{
	"contracts/Main.sol": {
		"Main": {
			"abi": [
				{
					"inputs": [
						{
							"internalType": "string",
							"name": "_name",
							"type": "string"
						},
						{
							"internalType": "string",
							"name": "_proposal",
							"type": "string"
						},
						{
							"internalType": "address",
							"name": "owner",
							"type": "address"
						}
					],
					"name": "addCandidate",
					"outputs": [],
					"stateMutability": "nonpayable",
					"type": "function"
				},
				{
					"inputs": [
						{
							"internalType": "address",
							"name": "_voter",
							"type": "address"
						},
						{
							"internalType": "address",
							"name": "owner",
							"type": "address"
						}
					],
					"name": "addVoter",
					"outputs": [],
					"stateMutability": "nonpayable",
					"type": "function"
				},
				{
					"inputs": [],
					"name": "candidate_count",
					"outputs": [
						{
							"internalType": "uint256",
							"name": "",
							"type": "uint256"
						}
					],
					"stateMutability": "view",
					"type": "function"
				},
				{
					"inputs": [
						{
							"internalType": "address",
							"name": "_delegate",
							"type": "address"
						},
						{
							"internalType": "address",
							"name": "_voter",
							"type": "address"
						}
					],
					"name": "delegateVote",
					"outputs": [],
					"stateMutability": "nonpayable",
					"type": "function"
				},
				{
					"inputs": [
						{
							"internalType": "uint256",
							"name": "_ID",
							"type": "uint256"
						}
					],
					"name": "displayCandidate",
					"outputs": [
						{
							"internalType": "uint256",
							"name": "name",
							"type": "uint256"
						},
						{
							"internalType": "string",
							"name": "",
							"type": "string"
						},
						{
							"internalType": "string",
							"name": "",
							"type": "string"
						}
					],
					"stateMutability": "view",
					"type": "function"
				},
				{
					"inputs": [],
					"name": "electionState",
					"outputs": [
						{
							"internalType": "string",
							"name": "",
							"type": "string"
						}
					],
					"stateMutability": "view",
					"type": "function"
				},
				{
					"inputs": [
						{
							"internalType": "address",
							"name": "owner",
							"type": "address"
						}
					],
					"name": "endElection",
					"outputs": [],
					"stateMutability": "nonpayable",
					"type": "function"
				},
				{
					"inputs": [
						{
							"internalType": "uint256",
							"name": "_ID",
							"type": "uint256"
						}
					],
					"name": "showResults",
					"outputs": [
						{
							"internalType": "uint256",
							"name": "",
							"type": "uint256"
						},
						{
							"internalType": "string",
							"name": "",
							"type": "string"
						},
						{
							"internalType": "uint256",
							"name": "",
							"type": "uint256"
						}
					],
					"stateMutability": "view",
					"type": "function"
				},
				{
					"inputs": [],
					"name": "showWinner",
					"outputs": [
						{
							"internalType": "string",
							"name": "name",
							"type": "string"
						},
						{
							"internalType": "uint256",
							"name": "ID",
							"type": "uint256"
						},
						{
							"internalType": "uint256",
							"name": "Votes",
							"type": "uint256"
						}
					],
					"stateMutability": "view",
					"type": "function"
				},
				{
					"inputs": [
						{
							"internalType": "address",
							"name": "owner",
							"type": "address"
						}
					],
					"name": "startElection",
					"outputs": [],
					"stateMutability": "nonpayable",
					"type": "function"
				},
				{
					"inputs": [
						{
							"internalType": "uint256",
							"name": "_ID",
							"type": "uint256"
						},
						{
							"internalType": "address",
							"name": "_voter",
							"type": "address"
						}
					],
					"name": "vote",
					"outputs": [],
					"stateMutability": "nonpayable",
					"type": "function"
				},
				{
					"inputs": [],
					"name": "voter_count",
					"outputs": [
						{
							"internalType": "uint256",
							"name": "",
							"type": "uint256"
						}
					],
					"stateMutability": "view",
					"type": "function"
				}
			],
			"devdoc": {
				"kind": "dev",
				"methods": {},
				"version": 1
			},
			"evm": {
				"assembly": "    /* \"contracts/Main.sol\":59:5089  contract Main {... */\n  mstore(0x40, 0x80)\n    /* \"contracts/Main.sol\":460:503  string public electionState = \"NOT STARTED\" */\n  mload(0x40)\n  dup1\n  0x40\n  add\n  0x40\n  mstore\n  dup1\n  0x0b\n  dup2\n  mstore\n  0x20\n  add\n  0x4e4f542053544152544544000000000000000000000000000000000000000000\n  dup2\n  mstore\n  pop\n  0x07\n  swap1\n  dup2\n  tag_1\n  swap2\n  swap1\n  tag_2\n  jump\t// in\ntag_1:\n  pop\n    /* \"contracts/Main.sol\":59:5089  contract Main {... */\n  callvalue\n  dup1\n  iszero\n  tag_3\n  jumpi\n  0x00\n  dup1\n  revert\ntag_3:\n  pop\n  jump(tag_4)\n    /* \"#utility.yul\":7:106   */\ntag_5:\n    /* \"#utility.yul\":59:65   */\n  0x00\n    /* \"#utility.yul\":93:98   */\n  dup2\n    /* \"#utility.yul\":87:99   */\n  mload\n    /* \"#utility.yul\":77:99   */\n  swap1\n  pop\n    /* \"#utility.yul\":7:106   */\n  swap2\n  swap1\n  pop\n  jump\t// out\n    /* \"#utility.yul\":112:292   */\ntag_6:\n    /* \"#utility.yul\":160:237   */\n  0x4e487b7100000000000000000000000000000000000000000000000000000000\n    /* \"#utility.yul\":157:158   */\n  0x00\n    /* \"#utility.yul\":150:238   */\n  mstore\n    /* \"#utility.yul\":257:261   */\n  0x41\n    /* \"#utility.yul\":254:255   */\n  0x04\n    /* \"#utility.yul\":247:262   */\n  mstore\n    /* \"#utility.yul\":281:285   */\n  0x24\n    /* \"#utility.yul\":278:279   */\n  0x00\n    /* \"#utility.yul\":271:286   */\n  revert\n    /* \"#utility.yul\":298:478   */\ntag_7:\n    /* \"#utility.yul\":346:423   */\n  0x4e487b7100000000000000000000000000000000000000000000000000000000\n    /* \"#utility.yul\":343:344   */\n  0x00\n    /* \"#utility.yul\":336:424   */\n  mstore\n    /* \"#utility.yul\":443:447   */\n  0x22\n    /* \"#utility.yul\":440:441   */\n  0x04\n    /* \"#utility.yul\":433:448   */\n  mstore\n    /* \"#utility.yul\":467:471   */\n  0x24\n    /* \"#utility.yul\":464:465   */\n  0x00\n    /* \"#utility.yul\":457:472   */\n  revert\n    /* \"#utility.yul\":484:804   */\ntag_8:\n    /* \"#utility.yul\":528:534   */\n  0x00\n    /* \"#utility.yul\":565:566   */\n  0x02\n    /* \"#utility.yul\":559:563   */\n  dup3\n    /* \"#utility.yul\":555:567   */\n  div\n    /* \"#utility.yul\":545:567   */\n  swap1\n  pop\n    /* \"#utility.yul\":612:613   */\n  0x01\n    /* \"#utility.yul\":606:610   */\n  dup3\n    /* \"#utility.yul\":602:614   */\n  and\n    /* \"#utility.yul\":633:651   */\n  dup1\n    /* \"#utility.yul\":623:704   */\n  tag_30\n  jumpi\n    /* \"#utility.yul\":689:693   */\n  0x7f\n    /* \"#utility.yul\":681:687   */\n  dup3\n    /* \"#utility.yul\":677:694   */\n  and\n    /* \"#utility.yul\":667:694   */\n  swap2\n  pop\n    /* \"#utility.yul\":623:704   */\ntag_30:\n    /* \"#utility.yul\":751:753   */\n  0x20\n    /* \"#utility.yul\":743:749   */\n  dup3\n    /* \"#utility.yul\":740:754   */\n  lt\n    /* \"#utility.yul\":720:738   */\n  dup2\n    /* \"#utility.yul\":717:755   */\n  sub\n    /* \"#utility.yul\":714:798   */\n  tag_31\n  jumpi\n    /* \"#utility.yul\":770:788   */\n  tag_32\n  tag_7\n  jump\t// in\ntag_32:\n    /* \"#utility.yul\":714:798   */\ntag_31:\n    /* \"#utility.yul\":535:804   */\n  pop\n    /* \"#utility.yul\":484:804   */\n  swap2\n  swap1\n  pop\n  jump\t// out\n    /* \"#utility.yul\":810:951   */\ntag_9:\n    /* \"#utility.yul\":859:863   */\n  0x00\n    /* \"#utility.yul\":882:885   */\n  dup2\n    /* \"#utility.yul\":874:885   */\n  swap1\n  pop\n    /* \"#utility.yul\":905:908   */\n  dup2\n    /* \"#utility.yul\":902:903   */\n  0x00\n    /* \"#utility.yul\":895:909   */\n  mstore\n    /* \"#utility.yul\":939:943   */\n  0x20\n    /* \"#utility.yul\":936:937   */\n  0x00\n    /* \"#utility.yul\":926:944   */\n  keccak256\n    /* \"#utility.yul\":918:944   */\n  swap1\n  pop\n    /* \"#utility.yul\":810:951   */\n  swap2\n  swap1\n  pop\n  jump\t// out\n    /* \"#utility.yul\":957:1050   */\ntag_10:\n    /* \"#utility.yul\":994:1000   */\n  0x00\n    /* \"#utility.yul\":1041:1043   */\n  0x20\n    /* \"#utility.yul\":1036:1038   */\n  0x1f\n    /* \"#utility.yul\":1029:1034   */\n  dup4\n    /* \"#utility.yul\":1025:1039   */\n  add\n    /* \"#utility.yul\":1021:1044   */\n  div\n    /* \"#utility.yul\":1011:1044   */\n  swap1\n  pop\n    /* \"#utility.yul\":957:1050   */\n  swap2\n  swap1\n  pop\n  jump\t// out\n    /* \"#utility.yul\":1056:1163   */\ntag_11:\n    /* \"#utility.yul\":1100:1108   */\n  0x00\n    /* \"#utility.yul\":1150:1155   */\n  dup3\n    /* \"#utility.yul\":1144:1148   */\n  dup3\n    /* \"#utility.yul\":1140:1156   */\n  shl\n    /* \"#utility.yul\":1119:1156   */\n  swap1\n  pop\n    /* \"#utility.yul\":1056:1163   */\n  swap3\n  swap2\n  pop\n  pop\n  jump\t// out\n    /* \"#utility.yul\":1169:1562   */\ntag_12:\n    /* \"#utility.yul\":1238:1244   */\n  0x00\n    /* \"#utility.yul\":1288:1289   */\n  0x08\n    /* \"#utility.yul\":1276:1286   */\n  dup4\n    /* \"#utility.yul\":1272:1290   */\n  mul\n    /* \"#utility.yul\":1311:1408   */\n  tag_37\n    /* \"#utility.yul\":1341:1407   */\n  0xffffffffffffffffffffffffffffffffffffffffffffffffffffffffffffffff\n    /* \"#utility.yul\":1330:1339   */\n  dup3\n    /* \"#utility.yul\":1311:1408   */\n  tag_11\n  jump\t// in\ntag_37:\n    /* \"#utility.yul\":1429:1468   */\n  tag_38\n    /* \"#utility.yul\":1459:1467   */\n  dup7\n    /* \"#utility.yul\":1448:1457   */\n  dup4\n    /* \"#utility.yul\":1429:1468   */\n  tag_11\n  jump\t// in\ntag_38:\n    /* \"#utility.yul\":1417:1468   */\n  swap6\n  pop\n    /* \"#utility.yul\":1501:1505   */\n  dup1\n    /* \"#utility.yul\":1497:1506   */\n  not\n    /* \"#utility.yul\":1490:1495   */\n  dup5\n    /* \"#utility.yul\":1486:1507   */\n  and\n    /* \"#utility.yul\":1477:1507   */\n  swap4\n  pop\n    /* \"#utility.yul\":1550:1554   */\n  dup1\n    /* \"#utility.yul\":1540:1548   */\n  dup7\n    /* \"#utility.yul\":1536:1555   */\n  and\n    /* \"#utility.yul\":1529:1534   */\n  dup5\n    /* \"#utility.yul\":1526:1556   */\n  or\n    /* \"#utility.yul\":1516:1556   */\n  swap3\n  pop\n    /* \"#utility.yul\":1245:1562   */\n  pop\n  pop\n    /* \"#utility.yul\":1169:1562   */\n  swap4\n  swap3\n  pop\n  pop\n  pop\n  jump\t// out\n    /* \"#utility.yul\":1568:1645   */\ntag_13:\n    /* \"#utility.yul\":1605:1612   */\n  0x00\n    /* \"#utility.yul\":1634:1639   */\n  dup2\n    /* \"#utility.yul\":1623:1639   */\n  swap1\n  pop\n    /* \"#utility.yul\":1568:1645   */\n  swap2\n  swap1\n  pop\n  jump\t// out\n    /* \"#utility.yul\":1651:1711   */\ntag_14:\n    /* \"#utility.yul\":1679:1682   */\n  0x00\n    /* \"#utility.yul\":1700:1705   */\n  dup2\n    /* \"#utility.yul\":1693:1705   */\n  swap1\n  pop\n    /* \"#utility.yul\":1651:1711   */\n  swap2\n  swap1\n  pop\n  jump\t// out\n    /* \"#utility.yul\":1717:1859   */\ntag_15:\n    /* \"#utility.yul\":1767:1776   */\n  0x00\n    /* \"#utility.yul\":1800:1853   */\n  tag_42\n    /* \"#utility.yul\":1818:1852   */\n  tag_43\n    /* \"#utility.yul\":1827:1851   */\n  tag_44\n    /* \"#utility.yul\":1845:1850   */\n  dup5\n    /* \"#utility.yul\":1827:1851   */\n  tag_13\n  jump\t// in\ntag_44:\n    /* \"#utility.yul\":1818:1852   */\n  tag_14\n  jump\t// in\ntag_43:\n    /* \"#utility.yul\":1800:1853   */\n  tag_13\n  jump\t// in\ntag_42:\n    /* \"#utility.yul\":1787:1853   */\n  swap1\n  pop\n    /* \"#utility.yul\":1717:1859   */\n  swap2\n  swap1\n  pop\n  jump\t// out\n    /* \"#utility.yul\":1865:1940   */\ntag_16:\n    /* \"#utility.yul\":1908:1911   */\n  0x00\n    /* \"#utility.yul\":1929:1934   */\n  dup2\n    /* \"#utility.yul\":1922:1934   */\n  swap1\n  pop\n    /* \"#utility.yul\":1865:1940   */\n  swap2\n  swap1\n  pop\n  jump\t// out\n    /* \"#utility.yul\":1946:2215   */\ntag_17:\n    /* \"#utility.yul\":2056:2095   */\n  tag_47\n    /* \"#utility.yul\":2087:2094   */\n  dup4\n    /* \"#utility.yul\":2056:2095   */\n  tag_15\n  jump\t// in\ntag_47:\n    /* \"#utility.yul\":2117:2208   */\n  tag_48\n    /* \"#utility.yul\":2166:2207   */\n  tag_49\n    /* \"#utility.yul\":2190:2206   */\n  dup3\n    /* \"#utility.yul\":2166:2207   */\n  tag_16\n  jump\t// in\ntag_49:\n    /* \"#utility.yul\":2158:2164   */\n  dup5\n    /* \"#utility.yul\":2151:2155   */\n  dup5\n    /* \"#utility.yul\":2145:2156   */\n  sload\n    /* \"#utility.yul\":2117:2208   */\n  tag_12\n  jump\t// in\ntag_48:\n    /* \"#utility.yul\":2111:2115   */\n  dup3\n    /* \"#utility.yul\":2104:2209   */\n  sstore\n    /* \"#utility.yul\":2022:2215   */\n  pop\n    /* \"#utility.yul\":1946:2215   */\n  pop\n  pop\n  pop\n  jump\t// out\n    /* \"#utility.yul\":2221:2294   */\ntag_18:\n    /* \"#utility.yul\":2266:2269   */\n  0x00\n    /* \"#utility.yul\":2221:2294   */\n  swap1\n  jump\t// out\n    /* \"#utility.yul\":2300:2489   */\ntag_19:\n    /* \"#utility.yul\":2377:2409   */\n  tag_52\n  tag_18\n  jump\t// in\ntag_52:\n    /* \"#utility.yul\":2418:2483   */\n  tag_53\n    /* \"#utility.yul\":2476:2482   */\n  dup2\n    /* \"#utility.yul\":2468:2474   */\n  dup5\n    /* \"#utility.yul\":2462:2466   */\n  dup5\n    /* \"#utility.yul\":2418:2483   */\n  tag_17\n  jump\t// in\ntag_53:\n    /* \"#utility.yul\":2353:2489   */\n  pop\n    /* \"#utility.yul\":2300:2489   */\n  pop\n  pop\n  jump\t// out\n    /* \"#utility.yul\":2495:2681   */\ntag_20:\n    /* \"#utility.yul\":2555:2675   */\ntag_55:\n    /* \"#utility.yul\":2572:2575   */\n  dup2\n    /* \"#utility.yul\":2565:2570   */\n  dup2\n    /* \"#utility.yul\":2562:2576   */\n  lt\n    /* \"#utility.yul\":2555:2675   */\n  iszero\n  tag_57\n  jumpi\n    /* \"#utility.yul\":2626:2665   */\n  tag_58\n    /* \"#utility.yul\":2663:2664   */\n  0x00\n    /* \"#utility.yul\":2656:2661   */\n  dup3\n    /* \"#utility.yul\":2626:2665   */\n  tag_19\n  jump\t// in\ntag_58:\n    /* \"#utility.yul\":2599:2600   */\n  0x01\n    /* \"#utility.yul\":2592:2597   */\n  dup2\n    /* \"#utility.yul\":2588:2601   */\n  add\n    /* \"#utility.yul\":2579:2601   */\n  swap1\n  pop\n    /* \"#utility.yul\":2555:2675   */\n  jump(tag_55)\ntag_57:\n    /* \"#utility.yul\":2495:2681   */\n  pop\n  pop\n  jump\t// out\n    /* \"#utility.yul\":2687:3230   */\ntag_21:\n    /* \"#utility.yul\":2788:2790   */\n  0x1f\n    /* \"#utility.yul\":2783:2786   */\n  dup3\n    /* \"#utility.yul\":2780:2791   */\n  gt\n    /* \"#utility.yul\":2777:3223   */\n  iszero\n  tag_60\n  jumpi\n    /* \"#utility.yul\":2822:2860   */\n  tag_61\n    /* \"#utility.yul\":2854:2859   */\n  dup2\n    /* \"#utility.yul\":2822:2860   */\n  tag_9\n  jump\t// in\ntag_61:\n    /* \"#utility.yul\":2906:2935   */\n  tag_62\n    /* \"#utility.yul\":2924:2934   */\n  dup5\n    /* \"#utility.yul\":2906:2935   */\n  tag_10\n  jump\t// in\ntag_62:\n    /* \"#utility.yul\":2896:2904   */\n  dup2\n    /* \"#utility.yul\":2892:2936   */\n  add\n    /* \"#utility.yul\":3089:3091   */\n  0x20\n    /* \"#utility.yul\":3077:3087   */\n  dup6\n    /* \"#utility.yul\":3074:3092   */\n  lt\n    /* \"#utility.yul\":3071:3120   */\n  iszero\n  tag_63\n  jumpi\n    /* \"#utility.yul\":3110:3118   */\n  dup2\n    /* \"#utility.yul\":3095:3118   */\n  swap1\n  pop\n    /* \"#utility.yul\":3071:3120   */\ntag_63:\n    /* \"#utility.yul\":3133:3213   */\n  tag_64\n    /* \"#utility.yul\":3189:3211   */\n  tag_65\n    /* \"#utility.yul\":3207:3210   */\n  dup6\n    /* \"#utility.yul\":3189:3211   */\n  tag_10\n  jump\t// in\ntag_65:\n    /* \"#utility.yul\":3179:3187   */\n  dup4\n    /* \"#utility.yul\":3175:3212   */\n  add\n    /* \"#utility.yul\":3162:3173   */\n  dup3\n    /* \"#utility.yul\":3133:3213   */\n  tag_20\n  jump\t// in\ntag_64:\n    /* \"#utility.yul\":2792:3223   */\n  pop\n  pop\n    /* \"#utility.yul\":2777:3223   */\ntag_60:\n    /* \"#utility.yul\":2687:3230   */\n  pop\n  pop\n  pop\n  jump\t// out\n    /* \"#utility.yul\":3236:3353   */\ntag_22:\n    /* \"#utility.yul\":3290:3298   */\n  0x00\n    /* \"#utility.yul\":3340:3345   */\n  dup3\n    /* \"#utility.yul\":3334:3338   */\n  dup3\n    /* \"#utility.yul\":3330:3346   */\n  shr\n    /* \"#utility.yul\":3309:3346   */\n  swap1\n  pop\n    /* \"#utility.yul\":3236:3353   */\n  swap3\n  swap2\n  pop\n  pop\n  jump\t// out\n    /* \"#utility.yul\":3359:3528   */\ntag_23:\n    /* \"#utility.yul\":3403:3409   */\n  0x00\n    /* \"#utility.yul\":3436:3487   */\n  tag_68\n    /* \"#utility.yul\":3484:3485   */\n  0x00\n    /* \"#utility.yul\":3480:3486   */\n  not\n    /* \"#utility.yul\":3472:3477   */\n  dup5\n    /* \"#utility.yul\":3469:3470   */\n  0x08\n    /* \"#utility.yul\":3465:3478   */\n  mul\n    /* \"#utility.yul\":3436:3487   */\n  tag_22\n  jump\t// in\ntag_68:\n    /* \"#utility.yul\":3432:3488   */\n  not\n    /* \"#utility.yul\":3517:3521   */\n  dup1\n    /* \"#utility.yul\":3511:3515   */\n  dup4\n    /* \"#utility.yul\":3507:3522   */\n  and\n    /* \"#utility.yul\":3497:3522   */\n  swap2\n  pop\n    /* \"#utility.yul\":3410:3528   */\n  pop\n    /* \"#utility.yul\":3359:3528   */\n  swap3\n  swap2\n  pop\n  pop\n  jump\t// out\n    /* \"#utility.yul\":3533:3828   */\ntag_24:\n    /* \"#utility.yul\":3609:3613   */\n  0x00\n    /* \"#utility.yul\":3755:3784   */\n  tag_70\n    /* \"#utility.yul\":3780:3783   */\n  dup4\n    /* \"#utility.yul\":3774:3778   */\n  dup4\n    /* \"#utility.yul\":3755:3784   */\n  tag_23\n  jump\t// in\ntag_70:\n    /* \"#utility.yul\":3747:3784   */\n  swap2\n  pop\n    /* \"#utility.yul\":3817:3820   */\n  dup3\n    /* \"#utility.yul\":3814:3815   */\n  0x02\n    /* \"#utility.yul\":3810:3821   */\n  mul\n    /* \"#utility.yul\":3804:3808   */\n  dup3\n    /* \"#utility.yul\":3801:3822   */\n  or\n    /* \"#utility.yul\":3793:3822   */\n  swap1\n  pop\n    /* \"#utility.yul\":3533:3828   */\n  swap3\n  swap2\n  pop\n  pop\n  jump\t// out\n    /* \"#utility.yul\":3833:5228   */\ntag_2:\n    /* \"#utility.yul\":3950:3987   */\n  tag_72\n    /* \"#utility.yul\":3983:3986   */\n  dup3\n    /* \"#utility.yul\":3950:3987   */\n  tag_5\n  jump\t// in\ntag_72:\n    /* \"#utility.yul\":4052:4070   */\n  0xffffffffffffffff\n    /* \"#utility.yul\":4044:4050   */\n  dup2\n    /* \"#utility.yul\":4041:4071   */\n  gt\n    /* \"#utility.yul\":4038:4094   */\n  iszero\n  tag_73\n  jumpi\n    /* \"#utility.yul\":4074:4092   */\n  tag_74\n  tag_6\n  jump\t// in\ntag_74:\n    /* \"#utility.yul\":4038:4094   */\ntag_73:\n    /* \"#utility.yul\":4118:4156   */\n  tag_75\n    /* \"#utility.yul\":4150:4154   */\n  dup3\n    /* \"#utility.yul\":4144:4155   */\n  sload\n    /* \"#utility.yul\":4118:4156   */\n  tag_8\n  jump\t// in\ntag_75:\n    /* \"#utility.yul\":4203:4270   */\n  tag_76\n    /* \"#utility.yul\":4263:4269   */\n  dup3\n    /* \"#utility.yul\":4255:4261   */\n  dup3\n    /* \"#utility.yul\":4249:4253   */\n  dup6\n    /* \"#utility.yul\":4203:4270   */\n  tag_21\n  jump\t// in\ntag_76:\n    /* \"#utility.yul\":4297:4298   */\n  0x00\n    /* \"#utility.yul\":4321:4325   */\n  0x20\n    /* \"#utility.yul\":4308:4325   */\n  swap1\n  pop\n    /* \"#utility.yul\":4353:4355   */\n  0x1f\n    /* \"#utility.yul\":4345:4351   */\n  dup4\n    /* \"#utility.yul\":4342:4356   */\n  gt\n    /* \"#utility.yul\":4370:4371   */\n  0x01\n    /* \"#utility.yul\":4365:4983   */\n  dup2\n  eq\n  tag_78\n  jumpi\n    /* \"#utility.yul\":5027:5028   */\n  0x00\n    /* \"#utility.yul\":5044:5050   */\n  dup5\n    /* \"#utility.yul\":5041:5118   */\n  iszero\n  tag_79\n  jumpi\n    /* \"#utility.yul\":5093:5102   */\n  dup3\n    /* \"#utility.yul\":5088:5091   */\n  dup8\n    /* \"#utility.yul\":5084:5103   */\n  add\n    /* \"#utility.yul\":5078:5104   */\n  mload\n    /* \"#utility.yul\":5069:5104   */\n  swap1\n  pop\n    /* \"#utility.yul\":5041:5118   */\ntag_79:\n    /* \"#utility.yul\":5144:5211   */\n  tag_80\n    /* \"#utility.yul\":5204:5210   */\n  dup6\n    /* \"#utility.yul\":5197:5202   */\n  dup3\n    /* \"#utility.yul\":5144:5211   */\n  tag_24\n  jump\t// in\ntag_80:\n    /* \"#utility.yul\":5138:5142   */\n  dup7\n    /* \"#utility.yul\":5131:5212   */\n  sstore\n    /* \"#utility.yul\":5000:5222   */\n  pop\n    /* \"#utility.yul\":4335:5222   */\n  jump(tag_77)\n    /* \"#utility.yul\":4365:4983   */\ntag_78:\n    /* \"#utility.yul\":4417:4421   */\n  0x1f\n    /* \"#utility.yul\":4413:4422   */\n  not\n    /* \"#utility.yul\":4405:4411   */\n  dup5\n    /* \"#utility.yul\":4401:4423   */\n  and\n    /* \"#utility.yul\":4451:4488   */\n  tag_81\n    /* \"#utility.yul\":4483:4487   */\n  dup7\n    /* \"#utility.yul\":4451:4488   */\n  tag_9\n  jump\t// in\ntag_81:\n    /* \"#utility.yul\":4510:4511   */\n  0x00\n    /* \"#utility.yul\":4524:4732   */\ntag_82:\n    /* \"#utility.yul\":4538:4545   */\n  dup3\n    /* \"#utility.yul\":4535:4536   */\n  dup2\n    /* \"#utility.yul\":4532:4546   */\n  lt\n    /* \"#utility.yul\":4524:4732   */\n  iszero\n  tag_84\n  jumpi\n    /* \"#utility.yul\":4617:4626   */\n  dup5\n    /* \"#utility.yul\":4612:4615   */\n  dup10\n    /* \"#utility.yul\":4608:4627   */\n  add\n    /* \"#utility.yul\":4602:4628   */\n  mload\n    /* \"#utility.yul\":4594:4600   */\n  dup3\n    /* \"#utility.yul\":4587:4629   */\n  sstore\n    /* \"#utility.yul\":4668:4669   */\n  0x01\n    /* \"#utility.yul\":4660:4666   */\n  dup3\n    /* \"#utility.yul\":4656:4670   */\n  add\n    /* \"#utility.yul\":4646:4670   */\n  swap2\n  pop\n    /* \"#utility.yul\":4715:4717   */\n  0x20\n    /* \"#utility.yul\":4704:4713   */\n  dup6\n    /* \"#utility.yul\":4700:4718   */\n  add\n    /* \"#utility.yul\":4687:4718   */\n  swap5\n  pop\n    /* \"#utility.yul\":4561:4565   */\n  0x20\n    /* \"#utility.yul\":4558:4559   */\n  dup2\n    /* \"#utility.yul\":4554:4566   */\n  add\n    /* \"#utility.yul\":4549:4566   */\n  swap1\n  pop\n    /* \"#utility.yul\":4524:4732   */\n  jump(tag_82)\ntag_84:\n    /* \"#utility.yul\":4760:4766   */\n  dup7\n    /* \"#utility.yul\":4751:4758   */\n  dup4\n    /* \"#utility.yul\":4748:4767   */\n  lt\n    /* \"#utility.yul\":4745:4924   */\n  iszero\n  tag_85\n  jumpi\n    /* \"#utility.yul\":4818:4827   */\n  dup5\n    /* \"#utility.yul\":4813:4816   */\n  dup10\n    /* \"#utility.yul\":4809:4828   */\n  add\n    /* \"#utility.yul\":4803:4829   */\n  mload\n    /* \"#utility.yul\":4861:4909   */\n  tag_86\n    /* \"#utility.yul\":4903:4907   */\n  0x1f\n    /* \"#utility.yul\":4895:4901   */\n  dup10\n    /* \"#utility.yul\":4891:4908   */\n  and\n    /* \"#utility.yul\":4880:4889   */\n  dup3\n    /* \"#utility.yul\":4861:4909   */\n  tag_23\n  jump\t// in\ntag_86:\n    /* \"#utility.yul\":4853:4859   */\n  dup4\n    /* \"#utility.yul\":4846:4910   */\n  sstore\n    /* \"#utility.yul\":4768:4924   */\n  pop\n    /* \"#utility.yul\":4745:4924   */\ntag_85:\n    /* \"#utility.yul\":4970:4971   */\n  0x01\n    /* \"#utility.yul\":4966:4967   */\n  0x02\n    /* \"#utility.yul\":4958:4964   */\n  dup9\n    /* \"#utility.yul\":4954:4968   */\n  mul\n    /* \"#utility.yul\":4950:4972   */\n  add\n    /* \"#utility.yul\":4944:4948   */\n  dup9\n    /* \"#utility.yul\":4937:4973   */\n  sstore\n    /* \"#utility.yul\":4372:4983   */\n  pop\n  pop\n  pop\n    /* \"#utility.yul\":4335:5222   */\ntag_77:\n  pop\n    /* \"#utility.yul\":3925:5228   */\n  pop\n  pop\n  pop\n    /* \"#utility.yul\":3833:5228   */\n  pop\n  pop\n  jump\t// out\n    /* \"contracts/Main.sol\":59:5089  contract Main {... */\ntag_4:\n  dataSize(sub_0)\n  dup1\n  dataOffset(sub_0)\n  0x00\n  codecopy\n  0x00\n  return\nstop\n\nsub_0: assembly {\n        /* \"contracts/Main.sol\":59:5089  contract Main {... */\n      mstore(0x40, 0x80)\n      callvalue\n      dup1\n      iszero\n      tag_1\n      jumpi\n      0x00\n      dup1\n      revert\n    tag_1:\n      pop\n      jumpi(tag_2, lt(calldatasize, 0x04))\n      shr(0xe0, calldataload(0x00))\n      dup1\n      0x8dc83771\n      gt\n      tag_15\n      jumpi\n      dup1\n      0x8dc83771\n      eq\n      tag_9\n      jumpi\n      dup1\n      0xb7e03264\n      eq\n      tag_10\n      jumpi\n      dup1\n      0xbeb604e0\n      eq\n      tag_11\n      jumpi\n      dup1\n      0xe5ed5b1e\n      eq\n      tag_12\n      jumpi\n      dup1\n      0xe6a5e61d\n      eq\n      tag_13\n      jumpi\n      dup1\n      0xfa106d40\n      eq\n      tag_14\n      jumpi\n      jump(tag_2)\n    tag_15:\n      dup1\n      0x02d947ef\n      eq\n      tag_3\n      jumpi\n      dup1\n      0x07e4b70a\n      eq\n      tag_4\n      jumpi\n      dup1\n      0x0b32ff77\n      eq\n      tag_5\n      jumpi\n      dup1\n      0x2280043d\n      eq\n      tag_6\n      jumpi\n      dup1\n      0x4b1c4c29\n      eq\n      tag_7\n      jumpi\n      dup1\n      0x79614b2e\n      eq\n      tag_8\n      jumpi\n    tag_2:\n      0x00\n      dup1\n      revert\n        /* \"contracts/Main.sol\":3223:4172  function vote(uint _ID, address _voter) public {... */\n    tag_3:\n      tag_16\n      0x04\n      dup1\n      calldatasize\n      sub\n      dup2\n      add\n      swap1\n      tag_17\n      swap2\n      swap1\n      tag_18\n      jump\t// in\n    tag_17:\n      tag_19\n      jump\t// in\n    tag_16:\n      stop\n        /* \"contracts/Main.sol\":1942:2573  function endElection(address owner) public {... */\n    tag_4:\n      tag_20\n      0x04\n      dup1\n      calldatasize\n      sub\n      dup2\n      add\n      swap1\n      tag_21\n      swap2\n      swap1\n      tag_22\n      jump\t// in\n    tag_21:\n      tag_23\n      jump\t// in\n    tag_20:\n      stop\n        /* \"contracts/Main.sol\":512:897  function addCandidate(string memory _name, string memory _proposal, address owner) public {... */\n    tag_5:\n      tag_24\n      0x04\n      dup1\n      calldatasize\n      sub\n      dup2\n      add\n      swap1\n      tag_25\n      swap2\n      swap1\n      tag_26\n      jump\t// in\n    tag_25:\n      tag_27\n      jump\t// in\n    tag_24:\n      stop\n        /* \"contracts/Main.sol\":460:503  string public electionState = \"NOT STARTED\" */\n    tag_6:\n      tag_28\n      tag_29\n      jump\t// in\n    tag_28:\n      mload(0x40)\n      tag_30\n      swap2\n      swap1\n      tag_31\n      jump\t// in\n    tag_30:\n      mload(0x40)\n      dup1\n      swap2\n      sub\n      swap1\n      return\n        /* \"contracts/Main.sol\":360:387  uint public candidate_count */\n    tag_7:\n      tag_32\n      tag_33\n      jump\t// in\n    tag_32:\n      mload(0x40)\n      tag_34\n      swap2\n      swap1\n      tag_35\n      jump\t// in\n    tag_34:\n      mload(0x40)\n      dup1\n      swap2\n      sub\n      swap1\n      return\n        /* \"contracts/Main.sol\":4426:4635  function showResults(uint _ID) public view returns(uint, string memory, uint) {... */\n    tag_8:\n      tag_36\n      0x04\n      dup1\n      calldatasize\n      sub\n      dup2\n      add\n      swap1\n      tag_37\n      swap2\n      swap1\n      tag_38\n      jump\t// in\n    tag_37:\n      tag_39\n      jump\t// in\n    tag_36:\n      mload(0x40)\n      tag_40\n      swap4\n      swap3\n      swap2\n      swap1\n      tag_41\n      jump\t// in\n    tag_40:\n      mload(0x40)\n      dup1\n      swap2\n      sub\n      swap1\n      return\n        /* \"contracts/Main.sol\":4186:4418  function displayCandidate(uint _ID) view public returns(uint name, string memory, string memory) {... */\n    tag_9:\n      tag_42\n      0x04\n      dup1\n      calldatasize\n      sub\n      dup2\n      add\n      swap1\n      tag_43\n      swap2\n      swap1\n      tag_38\n      jump\t// in\n    tag_43:\n      tag_44\n      jump\t// in\n    tag_42:\n      mload(0x40)\n      tag_45\n      swap4\n      swap3\n      swap2\n      swap1\n      tag_46\n      jump\t// in\n    tag_45:\n      mload(0x40)\n      dup1\n      swap2\n      sub\n      swap1\n      return\n        /* \"contracts/Main.sol\":4643:5086  function showWinner() public view returns(string memory name, uint ID, uint Votes) {... */\n    tag_10:\n      tag_47\n      tag_48\n      jump\t// in\n    tag_47:\n      mload(0x40)\n      tag_49\n      swap4\n      swap3\n      swap2\n      swap1\n      tag_50\n      jump\t// in\n    tag_49:\n      mload(0x40)\n      dup1\n      swap2\n      sub\n      swap1\n      return\n        /* \"contracts/Main.sol\":428:451  uint public voter_count */\n    tag_11:\n      tag_51\n      tag_52\n      jump\t// in\n    tag_51:\n      mload(0x40)\n      tag_53\n      swap2\n      swap1\n      tag_35\n      jump\t// in\n    tag_53:\n      mload(0x40)\n      dup1\n      swap2\n      sub\n      swap1\n      return\n        /* \"contracts/Main.sol\":1476:1934  function delegateVote(address _delegate, address _voter) public {... */\n    tag_12:\n      tag_54\n      0x04\n      dup1\n      calldatasize\n      sub\n      dup2\n      add\n      swap1\n      tag_55\n      swap2\n      swap1\n      tag_56\n      jump\t// in\n    tag_55:\n      tag_57\n      jump\t// in\n    tag_54:\n      stop\n        /* \"contracts/Main.sol\":2581:3215  function startElection(address owner) public {... */\n    tag_13:\n      tag_58\n      0x04\n      dup1\n      calldatasize\n      sub\n      dup2\n      add\n      swap1\n      tag_59\n      swap2\n      swap1\n      tag_22\n      jump\t// in\n    tag_59:\n      tag_60\n      jump\t// in\n    tag_58:\n      stop\n        /* \"contracts/Main.sol\":905:1468  function addVoter(address _voter, address owner) public {... */\n    tag_14:\n      tag_61\n      0x04\n      dup1\n      calldatasize\n      sub\n      dup2\n      add\n      swap1\n      tag_62\n      swap2\n      swap1\n      tag_56\n      jump\t// in\n    tag_62:\n      tag_63\n      jump\t// in\n    tag_61:\n      stop\n        /* \"contracts/Main.sol\":3223:4172  function vote(uint _ID, address _voter) public {... */\n    tag_19:\n        /* \"contracts/Main.sol\":3342:3369  abi.encodePacked(\"ONGOING\") */\n      add(0x20, mload(0x40))\n      tag_65\n      swap1\n      tag_66\n      jump\t// in\n    tag_65:\n      mload(0x40)\n      0x20\n      dup2\n      dup4\n      sub\n      sub\n      dup2\n      mstore\n      swap1\n      0x40\n      mstore\n        /* \"contracts/Main.sol\":3332:3370  keccak256(abi.encodePacked(\"ONGOING\")) */\n      dup1\n      mload\n      swap1\n      0x20\n      add\n      keccak256\n        /* \"contracts/Main.sol\":3313:3326  electionState */\n      0x07\n        /* \"contracts/Main.sol\":3296:3327  abi.encodePacked(electionState) */\n      add(0x20, mload(0x40))\n      tag_67\n      swap2\n      swap1\n      tag_68\n      jump\t// in\n    tag_67:\n      mload(0x40)\n      0x20\n      dup2\n      dup4\n      sub\n      sub\n      dup2\n      mstore\n      swap1\n      0x40\n      mstore\n        /* \"contracts/Main.sol\":3286:3328  keccak256(abi.encodePacked(electionState)) */\n      dup1\n      mload\n      swap1\n      0x20\n      add\n      keccak256\n        /* \"contracts/Main.sol\":3286:3370  keccak256(abi.encodePacked(electionState)) == keccak256(abi.encodePacked(\"ONGOING\")) */\n      sub\n        /* \"contracts/Main.sol\":3281:4165  if ((keccak256(abi.encodePacked(electionState)) == keccak256(abi.encodePacked(\"ONGOING\")))) {... */\n      tag_69\n      jumpi\n        /* \"contracts/Main.sol\":3416:3417  0 */\n      0x00\n        /* \"contracts/Main.sol\":3392:3404  voterMapping */\n      0x01\n        /* \"contracts/Main.sol\":3392:3412  voterMapping[_voter] */\n      0x00\n        /* \"contracts/Main.sol\":3405:3411  _voter */\n      dup4\n        /* \"contracts/Main.sol\":3392:3412  voterMapping[_voter] */\n      0xffffffffffffffffffffffffffffffffffffffff\n      and\n      0xffffffffffffffffffffffffffffffffffffffff\n      and\n      dup2\n      mstore\n      0x20\n      add\n      swap1\n      dup2\n      mstore\n      0x20\n      add\n      0x00\n      keccak256\n      sload\n        /* \"contracts/Main.sol\":3392:3417  voterMapping[_voter] == 0 */\n      sub\n        /* \"contracts/Main.sol\":3388:3825  if (voterMapping[_voter] == 0) {... */\n      tag_70\n      jumpi\n        /* \"contracts/Main.sol\":3469:3470  0 */\n      0x00\n        /* \"contracts/Main.sol\":3442:3457  delegateMapping */\n      0x02\n        /* \"contracts/Main.sol\":3442:3465  delegateMapping[_voter] */\n      0x00\n        /* \"contracts/Main.sol\":3458:3464  _voter */\n      dup4\n        /* \"contracts/Main.sol\":3442:3465  delegateMapping[_voter] */\n      0xffffffffffffffffffffffffffffffffffffffff\n      and\n      0xffffffffffffffffffffffffffffffffffffffff\n      and\n      dup2\n      mstore\n      0x20\n      add\n      swap1\n      dup2\n      mstore\n      0x20\n      add\n      0x00\n      keccak256\n      sload\n        /* \"contracts/Main.sol\":3442:3470  delegateMapping[_voter] == 0 */\n      sub\n        /* \"contracts/Main.sol\":3438:3696  if (delegateMapping[_voter] == 0) {... */\n      tag_71\n      jumpi\n        /* \"contracts/Main.sol\":3495:3543  revert(\"vote already casted or voter invalid. \") */\n      mload(0x40)\n      0x08c379a000000000000000000000000000000000000000000000000000000000\n      dup2\n      mstore\n      0x04\n      add\n      tag_72\n      swap1\n      tag_73\n      jump\t// in\n    tag_72:\n      mload(0x40)\n      dup1\n      swap2\n      sub\n      swap1\n      revert\n        /* \"contracts/Main.sol\":3438:3696  if (delegateMapping[_voter] == 0) {... */\n    tag_71:\n        /* \"contracts/Main.sol\":3635:3636  0 */\n      0x00\n        /* \"contracts/Main.sol\":3609:3624  delegateMapping */\n      0x02\n        /* \"contracts/Main.sol\":3609:3632  delegateMapping[_voter] */\n      0x00\n        /* \"contracts/Main.sol\":3625:3631  _voter */\n      dup4\n        /* \"contracts/Main.sol\":3609:3632  delegateMapping[_voter] */\n      0xffffffffffffffffffffffffffffffffffffffff\n      and\n      0xffffffffffffffffffffffffffffffffffffffff\n      and\n      dup2\n      mstore\n      0x20\n      add\n      swap1\n      dup2\n      mstore\n      0x20\n      add\n      0x00\n      keccak256\n        /* \"contracts/Main.sol\":3609:3636  delegateMapping[_voter] = 0 */\n      dup2\n      swap1\n      sstore\n      pop\n        /* \"contracts/Main.sol\":3659:3668  voteCount */\n      0x03\n        /* \"contracts/Main.sol\":3659:3673  voteCount[_ID] */\n      0x00\n        /* \"contracts/Main.sol\":3669:3672  _ID */\n      dup4\n        /* \"contracts/Main.sol\":3659:3673  voteCount[_ID] */\n      dup2\n      mstore\n      0x20\n      add\n      swap1\n      dup2\n      mstore\n      0x20\n      add\n      0x00\n      keccak256\n      0x00\n        /* \"contracts/Main.sol\":3659:3676  voteCount[_ID] ++ */\n      dup2\n      sload\n      dup1\n      swap3\n      swap2\n      swap1\n      tag_75\n      swap1\n      tag_76\n      jump\t// in\n    tag_75:\n      swap2\n      swap1\n      pop\n      sstore\n      pop\n        /* \"contracts/Main.sol\":3388:3825  if (voterMapping[_voter] == 0) {... */\n      jump(tag_77)\n    tag_70:\n        /* \"contracts/Main.sol\":3772:3773  0 */\n      0x00\n        /* \"contracts/Main.sol\":3749:3761  voterMapping */\n      0x01\n        /* \"contracts/Main.sol\":3749:3769  voterMapping[_voter] */\n      0x00\n        /* \"contracts/Main.sol\":3762:3768  _voter */\n      dup4\n        /* \"contracts/Main.sol\":3749:3769  voterMapping[_voter] */\n      0xffffffffffffffffffffffffffffffffffffffff\n      and\n      0xffffffffffffffffffffffffffffffffffffffff\n      and\n      dup2\n      mstore\n      0x20\n      add\n      swap1\n      dup2\n      mstore\n      0x20\n      add\n      0x00\n      keccak256\n        /* \"contracts/Main.sol\":3749:3773  voterMapping[_voter] = 0 */\n      dup2\n      swap1\n      sstore\n      pop\n        /* \"contracts/Main.sol\":3792:3801  voteCount */\n      0x03\n        /* \"contracts/Main.sol\":3792:3806  voteCount[_ID] */\n      0x00\n        /* \"contracts/Main.sol\":3802:3805  _ID */\n      dup4\n        /* \"contracts/Main.sol\":3792:3806  voteCount[_ID] */\n      dup2\n      mstore\n      0x20\n      add\n      swap1\n      dup2\n      mstore\n      0x20\n      add\n      0x00\n      keccak256\n      0x00\n        /* \"contracts/Main.sol\":3792:3809  voteCount[_ID] ++ */\n      dup2\n      sload\n      dup1\n      swap3\n      swap2\n      swap1\n      tag_78\n      swap1\n      tag_76\n      jump\t// in\n    tag_78:\n      swap2\n      swap1\n      pop\n      sstore\n      pop\n        /* \"contracts/Main.sol\":3388:3825  if (voterMapping[_voter] == 0) {... */\n    tag_77:\n        /* \"contracts/Main.sol\":3281:4165  if ((keccak256(abi.encodePacked(electionState)) == keccak256(abi.encodePacked(\"ONGOING\")))) {... */\n      jump(tag_79)\n    tag_69:\n        /* \"contracts/Main.sol\":3917:3948  abi.encodePacked(\"NOT STARTED\") */\n      add(0x20, mload(0x40))\n      tag_80\n      swap1\n      tag_81\n      jump\t// in\n    tag_80:\n      mload(0x40)\n      0x20\n      dup2\n      dup4\n      sub\n      sub\n      dup2\n      mstore\n      swap1\n      0x40\n      mstore\n        /* \"contracts/Main.sol\":3907:3949  keccak256(abi.encodePacked(\"NOT STARTED\")) */\n      dup1\n      mload\n      swap1\n      0x20\n      add\n      keccak256\n        /* \"contracts/Main.sol\":3888:3901  electionState */\n      0x07\n        /* \"contracts/Main.sol\":3871:3902  abi.encodePacked(electionState) */\n      add(0x20, mload(0x40))\n      tag_82\n      swap2\n      swap1\n      tag_68\n      jump\t// in\n    tag_82:\n      mload(0x40)\n      0x20\n      dup2\n      dup4\n      sub\n      sub\n      dup2\n      mstore\n      swap1\n      0x40\n      mstore\n        /* \"contracts/Main.sol\":3861:3903  keccak256(abi.encodePacked(electionState)) */\n      dup1\n      mload\n      swap1\n      0x20\n      add\n      keccak256\n        /* \"contracts/Main.sol\":3861:3949  keccak256(abi.encodePacked(electionState)) == keccak256(abi.encodePacked(\"NOT STARTED\")) */\n      sub\n        /* \"contracts/Main.sol\":3856:4165  if ((keccak256(abi.encodePacked(electionState)) == keccak256(abi.encodePacked(\"NOT STARTED\")))) {... */\n      tag_83\n      jumpi\n        /* \"contracts/Main.sol\":3967:3997  revert(\"Election not Started\") */\n      mload(0x40)\n      0x08c379a000000000000000000000000000000000000000000000000000000000\n      dup2\n      mstore\n      0x04\n      add\n      tag_84\n      swap1\n      tag_85\n      jump\t// in\n    tag_84:\n      mload(0x40)\n      dup1\n      swap2\n      sub\n      swap1\n      revert\n        /* \"contracts/Main.sol\":3856:4165  if ((keccak256(abi.encodePacked(electionState)) == keccak256(abi.encodePacked(\"NOT STARTED\")))) {... */\n    tag_83:\n        /* \"contracts/Main.sol\":4085:4110  abi.encodePacked(\"ENDED\") */\n      add(0x20, mload(0x40))\n      tag_87\n      swap1\n      tag_88\n      jump\t// in\n    tag_87:\n      mload(0x40)\n      0x20\n      dup2\n      dup4\n      sub\n      sub\n      dup2\n      mstore\n      swap1\n      0x40\n      mstore\n        /* \"contracts/Main.sol\":4075:4111  keccak256(abi.encodePacked(\"ENDED\")) */\n      dup1\n      mload\n      swap1\n      0x20\n      add\n      keccak256\n        /* \"contracts/Main.sol\":4056:4069  electionState */\n      0x07\n        /* \"contracts/Main.sol\":4039:4070  abi.encodePacked(electionState) */\n      add(0x20, mload(0x40))\n      tag_89\n      swap2\n      swap1\n      tag_68\n      jump\t// in\n    tag_89:\n      mload(0x40)\n      0x20\n      dup2\n      dup4\n      sub\n      sub\n      dup2\n      mstore\n      swap1\n      0x40\n      mstore\n        /* \"contracts/Main.sol\":4029:4071  keccak256(abi.encodePacked(electionState)) */\n      dup1\n      mload\n      swap1\n      0x20\n      add\n      keccak256\n        /* \"contracts/Main.sol\":4029:4111  keccak256(abi.encodePacked(electionState)) == keccak256(abi.encodePacked(\"ENDED\")) */\n      sub\n        /* \"contracts/Main.sol\":4024:4165  if ((keccak256(abi.encodePacked(electionState)) == keccak256(abi.encodePacked(\"ENDED\")))) {... */\n      tag_90\n      jumpi\n        /* \"contracts/Main.sol\":4129:4153  revert(\"Election Ended\") */\n      mload(0x40)\n      0x08c379a000000000000000000000000000000000000000000000000000000000\n      dup2\n      mstore\n      0x04\n      add\n      tag_91\n      swap1\n      tag_92\n      jump\t// in\n    tag_91:\n      mload(0x40)\n      dup1\n      swap2\n      sub\n      swap1\n      revert\n        /* \"contracts/Main.sol\":4024:4165  if ((keccak256(abi.encodePacked(electionState)) == keccak256(abi.encodePacked(\"ENDED\")))) {... */\n    tag_90:\n        /* \"contracts/Main.sol\":3281:4165  if ((keccak256(abi.encodePacked(electionState)) == keccak256(abi.encodePacked(\"ONGOING\")))) {... */\n    tag_79:\n        /* \"contracts/Main.sol\":3223:4172  function vote(uint _ID, address _voter) public {... */\n      pop\n      pop\n      jump\t// out\n        /* \"contracts/Main.sol\":1942:2573  function endElection(address owner) public {... */\n    tag_23:\n        /* \"contracts/Main.sol\":2057:2082  abi.encodePacked(\"ENDED\") */\n      add(0x20, mload(0x40))\n      tag_94\n      swap1\n      tag_88\n      jump\t// in\n    tag_94:\n      mload(0x40)\n      0x20\n      dup2\n      dup4\n      sub\n      sub\n      dup2\n      mstore\n      swap1\n      0x40\n      mstore\n        /* \"contracts/Main.sol\":2047:2083  keccak256(abi.encodePacked(\"ENDED\")) */\n      dup1\n      mload\n      swap1\n      0x20\n      add\n      keccak256\n        /* \"contracts/Main.sol\":2028:2041  electionState */\n      0x07\n        /* \"contracts/Main.sol\":2011:2042  abi.encodePacked(electionState) */\n      add(0x20, mload(0x40))\n      tag_95\n      swap2\n      swap1\n      tag_68\n      jump\t// in\n    tag_95:\n      mload(0x40)\n      0x20\n      dup2\n      dup4\n      sub\n      sub\n      dup2\n      mstore\n      swap1\n      0x40\n      mstore\n        /* \"contracts/Main.sol\":2001:2043  keccak256(abi.encodePacked(electionState)) */\n      dup1\n      mload\n      swap1\n      0x20\n      add\n      keccak256\n        /* \"contracts/Main.sol\":2001:2083  keccak256(abi.encodePacked(electionState)) == keccak256(abi.encodePacked(\"ENDED\")) */\n      sub\n        /* \"contracts/Main.sol\":1996:2566  if ((keccak256(abi.encodePacked(electionState)) == keccak256(abi.encodePacked(\"ENDED\")))) {... */\n      tag_96\n      jumpi\n        /* \"contracts/Main.sol\":2101:2131  revert(\"Election has ended. \") */\n      mload(0x40)\n      0x08c379a000000000000000000000000000000000000000000000000000000000\n      dup2\n      mstore\n      0x04\n      add\n      tag_97\n      swap1\n      tag_98\n      jump\t// in\n    tag_97:\n      mload(0x40)\n      dup1\n      swap2\n      sub\n      swap1\n      revert\n        /* \"contracts/Main.sol\":1996:2566  if ((keccak256(abi.encodePacked(electionState)) == keccak256(abi.encodePacked(\"ENDED\")))) {... */\n    tag_96:\n        /* \"contracts/Main.sol\":2219:2246  abi.encodePacked(\"ONGOING\") */\n      add(0x20, mload(0x40))\n      tag_100\n      swap1\n      tag_66\n      jump\t// in\n    tag_100:\n      mload(0x40)\n      0x20\n      dup2\n      dup4\n      sub\n      sub\n      dup2\n      mstore\n      swap1\n      0x40\n      mstore\n        /* \"contracts/Main.sol\":2209:2247  keccak256(abi.encodePacked(\"ONGOING\")) */\n      dup1\n      mload\n      swap1\n      0x20\n      add\n      keccak256\n        /* \"contracts/Main.sol\":2190:2203  electionState */\n      0x07\n        /* \"contracts/Main.sol\":2173:2204  abi.encodePacked(electionState) */\n      add(0x20, mload(0x40))\n      tag_101\n      swap2\n      swap1\n      tag_68\n      jump\t// in\n    tag_101:\n      mload(0x40)\n      0x20\n      dup2\n      dup4\n      sub\n      sub\n      dup2\n      mstore\n      swap1\n      0x40\n      mstore\n        /* \"contracts/Main.sol\":2163:2205  keccak256(abi.encodePacked(electionState)) */\n      dup1\n      mload\n      swap1\n      0x20\n      add\n      keccak256\n        /* \"contracts/Main.sol\":2163:2247  keccak256(abi.encodePacked(electionState)) == keccak256(abi.encodePacked(\"ONGOING\")) */\n      sub\n        /* \"contracts/Main.sol\":2158:2566  if ((keccak256(abi.encodePacked(electionState)) == keccak256(abi.encodePacked(\"ONGOING\")))) {... */\n      tag_102\n      jumpi\n        /* \"contracts/Main.sol\":2279:2321  0x5B38Da6a701c568545dCfcB03FcB875f56beddC4 */\n      0x5b38da6a701c568545dcfcb03fcb875f56beddc4\n        /* \"contracts/Main.sol\":2270:2321  owner == 0x5B38Da6a701c568545dCfcB03FcB875f56beddC4 */\n      0xffffffffffffffffffffffffffffffffffffffff\n      and\n        /* \"contracts/Main.sol\":2270:2275  owner */\n      dup2\n        /* \"contracts/Main.sol\":2270:2321  owner == 0x5B38Da6a701c568545dCfcB03FcB875f56beddC4 */\n      0xffffffffffffffffffffffffffffffffffffffff\n      and\n      sub\n        /* \"contracts/Main.sol\":2265:2555  if ( owner == 0x5B38Da6a701c568545dCfcB03FcB875f56beddC4) {... */\n      tag_103\n      jumpi\n        /* \"contracts/Main.sol\":2338:2361  electionState = \"ENDED\" */\n      mload(0x40)\n      dup1\n      0x40\n      add\n      0x40\n      mstore\n      dup1\n      0x05\n      dup2\n      mstore\n      0x20\n      add\n      0x454e444544000000000000000000000000000000000000000000000000000000\n      dup2\n      mstore\n      pop\n        /* \"contracts/Main.sol\":2338:2351  electionState */\n      0x07\n        /* \"contracts/Main.sol\":2338:2361  electionState = \"ENDED\" */\n      swap1\n      dup2\n      tag_104\n      swap2\n      swap1\n      tag_105\n      jump\t// in\n    tag_104:\n      pop\n        /* \"contracts/Main.sol\":2265:2555  if ( owner == 0x5B38Da6a701c568545dCfcB03FcB875f56beddC4) {... */\n      jump(tag_106)\n    tag_103:\n        /* \"contracts/Main.sol\":2449:2480  abi.encodePacked(\"NOT STARTED\") */\n      add(0x20, mload(0x40))\n      tag_107\n      swap1\n      tag_81\n      jump\t// in\n    tag_107:\n      mload(0x40)\n      0x20\n      dup2\n      dup4\n      sub\n      sub\n      dup2\n      mstore\n      swap1\n      0x40\n      mstore\n        /* \"contracts/Main.sol\":2439:2481  keccak256(abi.encodePacked(\"NOT STARTED\")) */\n      dup1\n      mload\n      swap1\n      0x20\n      add\n      keccak256\n        /* \"contracts/Main.sol\":2420:2433  electionState */\n      0x07\n        /* \"contracts/Main.sol\":2403:2434  abi.encodePacked(electionState) */\n      add(0x20, mload(0x40))\n      tag_108\n      swap2\n      swap1\n      tag_68\n      jump\t// in\n    tag_108:\n      mload(0x40)\n      0x20\n      dup2\n      dup4\n      sub\n      sub\n      dup2\n      mstore\n      swap1\n      0x40\n      mstore\n        /* \"contracts/Main.sol\":2393:2435  keccak256(abi.encodePacked(electionState)) */\n      dup1\n      mload\n      swap1\n      0x20\n      add\n      keccak256\n        /* \"contracts/Main.sol\":2393:2481  keccak256(abi.encodePacked(electionState)) == keccak256(abi.encodePacked(\"NOT STARTED\")) */\n      sub\n        /* \"contracts/Main.sol\":2388:2555  if ((keccak256(abi.encodePacked(electionState)) == keccak256(abi.encodePacked(\"NOT STARTED\")))) {... */\n      tag_109\n      jumpi\n        /* \"contracts/Main.sol\":2499:2539  revert(\"Election has not started yet. \") */\n      mload(0x40)\n      0x08c379a000000000000000000000000000000000000000000000000000000000\n      dup2\n      mstore\n      0x04\n      add\n      tag_110\n      swap1\n      tag_111\n      jump\t// in\n    tag_110:\n      mload(0x40)\n      dup1\n      swap2\n      sub\n      swap1\n      revert\n        /* \"contracts/Main.sol\":2388:2555  if ((keccak256(abi.encodePacked(electionState)) == keccak256(abi.encodePacked(\"NOT STARTED\")))) {... */\n    tag_109:\n        /* \"contracts/Main.sol\":2265:2555  if ( owner == 0x5B38Da6a701c568545dCfcB03FcB875f56beddC4) {... */\n    tag_106:\n        /* \"contracts/Main.sol\":2158:2566  if ((keccak256(abi.encodePacked(electionState)) == keccak256(abi.encodePacked(\"ONGOING\")))) {... */\n    tag_102:\n        /* \"contracts/Main.sol\":1942:2573  function endElection(address owner) public {... */\n      pop\n      jump\t// out\n        /* \"contracts/Main.sol\":512:897  function addCandidate(string memory _name, string memory _proposal, address owner) public {... */\n    tag_27:\n        /* \"contracts/Main.sol\":626:668  0x5B38Da6a701c568545dCfcB03FcB875f56beddC4 */\n      0x5b38da6a701c568545dcfcb03fcb875f56beddc4\n        /* \"contracts/Main.sol\":617:668  owner == 0x5B38Da6a701c568545dCfcB03FcB875f56beddC4 */\n      0xffffffffffffffffffffffffffffffffffffffff\n      and\n        /* \"contracts/Main.sol\":617:622  owner */\n      dup2\n        /* \"contracts/Main.sol\":617:668  owner == 0x5B38Da6a701c568545dCfcB03FcB875f56beddC4 */\n      0xffffffffffffffffffffffffffffffffffffffff\n      and\n      sub\n        /* \"contracts/Main.sol\":613:890  if (owner == 0x5B38Da6a701c568545dCfcB03FcB875f56beddC4) {... */\n      tag_113\n      jumpi\n        /* \"contracts/Main.sol\":685:700  candidate_count */\n      0x04\n      0x00\n        /* \"contracts/Main.sol\":685:703  candidate_count ++ */\n      dup2\n      sload\n      dup1\n      swap3\n      swap2\n      swap1\n      tag_114\n      swap1\n      tag_76\n      jump\t// in\n    tag_114:\n      swap2\n      swap1\n      pop\n      sstore\n      pop\n        /* \"contracts/Main.sol\":754:787  candidateStruct(_name, _proposal) */\n      mload(0x40)\n      dup1\n      0x40\n      add\n      0x40\n      mstore\n      dup1\n        /* \"contracts/Main.sol\":770:775  _name */\n      dup5\n        /* \"contracts/Main.sol\":754:787  candidateStruct(_name, _proposal) */\n      dup2\n      mstore\n      0x20\n      add\n        /* \"contracts/Main.sol\":777:786  _proposal */\n      dup4\n        /* \"contracts/Main.sol\":754:787  candidateStruct(_name, _proposal) */\n      dup2\n      mstore\n      pop\n        /* \"contracts/Main.sol\":718:734  candidateMapping */\n      0x00\n        /* \"contracts/Main.sol\":718:751  candidateMapping[candidate_count] */\n      dup1\n        /* \"contracts/Main.sol\":735:750  candidate_count */\n      sload(0x04)\n        /* \"contracts/Main.sol\":718:751  candidateMapping[candidate_count] */\n      dup2\n      mstore\n      0x20\n      add\n      swap1\n      dup2\n      mstore\n      0x20\n      add\n      0x00\n      keccak256\n        /* \"contracts/Main.sol\":718:787  candidateMapping[candidate_count] = candidateStruct(_name, _proposal) */\n      0x00\n      dup3\n      add\n      mload\n      dup2\n      0x00\n      add\n      swap1\n      dup2\n      tag_115\n      swap2\n      swap1\n      tag_105\n      jump\t// in\n    tag_115:\n      pop\n      0x20\n      dup3\n      add\n      mload\n      dup2\n      0x01\n      add\n      swap1\n      dup2\n      tag_116\n      swap2\n      swap1\n      tag_105\n      jump\t// in\n    tag_116:\n      pop\n      swap1\n      pop\n      pop\n        /* \"contracts/Main.sol\":613:890  if (owner == 0x5B38Da6a701c568545dCfcB03FcB875f56beddC4) {... */\n      jump(tag_117)\n    tag_113:\n        /* \"contracts/Main.sol\":825:878  revert(\"Only the contract owner can add candidates.\") */\n      mload(0x40)\n      0x08c379a000000000000000000000000000000000000000000000000000000000\n      dup2\n      mstore\n      0x04\n      add\n      tag_118\n      swap1\n      tag_119\n      jump\t// in\n    tag_118:\n      mload(0x40)\n      dup1\n      swap2\n      sub\n      swap1\n      revert\n        /* \"contracts/Main.sol\":613:890  if (owner == 0x5B38Da6a701c568545dCfcB03FcB875f56beddC4) {... */\n    tag_117:\n        /* \"contracts/Main.sol\":512:897  function addCandidate(string memory _name, string memory _proposal, address owner) public {... */\n      pop\n      pop\n      pop\n      jump\t// out\n        /* \"contracts/Main.sol\":460:503  string public electionState = \"NOT STARTED\" */\n    tag_29:\n      0x07\n      dup1\n      sload\n      tag_120\n      swap1\n      tag_121\n      jump\t// in\n    tag_120:\n      dup1\n      0x1f\n      add\n      0x20\n      dup1\n      swap2\n      div\n      mul\n      0x20\n      add\n      mload(0x40)\n      swap1\n      dup2\n      add\n      0x40\n      mstore\n      dup1\n      swap3\n      swap2\n      swap1\n      dup2\n      dup2\n      mstore\n      0x20\n      add\n      dup3\n      dup1\n      sload\n      tag_122\n      swap1\n      tag_121\n      jump\t// in\n    tag_122:\n      dup1\n      iszero\n      tag_123\n      jumpi\n      dup1\n      0x1f\n      lt\n      tag_124\n      jumpi\n      0x0100\n      dup1\n      dup4\n      sload\n      div\n      mul\n      dup4\n      mstore\n      swap2\n      0x20\n      add\n      swap2\n      jump(tag_123)\n    tag_124:\n      dup3\n      add\n      swap2\n      swap1\n      0x00\n      mstore\n      keccak256(0x00, 0x20)\n      swap1\n    tag_125:\n      dup2\n      sload\n      dup2\n      mstore\n      swap1\n      0x01\n      add\n      swap1\n      0x20\n      add\n      dup1\n      dup4\n      gt\n      tag_125\n      jumpi\n      dup3\n      swap1\n      sub\n      0x1f\n      and\n      dup3\n      add\n      swap2\n    tag_123:\n      pop\n      pop\n      pop\n      pop\n      pop\n      dup2\n      jump\t// out\n        /* \"contracts/Main.sol\":360:387  uint public candidate_count */\n    tag_33:\n      sload(0x04)\n      dup2\n      jump\t// out\n        /* \"contracts/Main.sol\":4426:4635  function showResults(uint _ID) public view returns(uint, string memory, uint) {... */\n    tag_39:\n        /* \"contracts/Main.sol\":4477:4481  uint */\n      0x00\n        /* \"contracts/Main.sol\":4483:4496  string memory */\n      0x60\n        /* \"contracts/Main.sol\":4498:4502  uint */\n      0x00\n        /* \"contracts/Main.sol\":4515:4548  candidateStruct storage candidate */\n      dup1\n        /* \"contracts/Main.sol\":4551:4567  candidateMapping */\n      0x00\n        /* \"contracts/Main.sol\":4551:4572  candidateMapping[_ID] */\n      dup1\n        /* \"contracts/Main.sol\":4568:4571  _ID */\n      dup7\n        /* \"contracts/Main.sol\":4551:4572  candidateMapping[_ID] */\n      dup2\n      mstore\n      0x20\n      add\n      swap1\n      dup2\n      mstore\n      0x20\n      add\n      0x00\n      keccak256\n        /* \"contracts/Main.sol\":4515:4572  candidateStruct storage candidate = candidateMapping[_ID] */\n      swap1\n      pop\n        /* \"contracts/Main.sol\":4591:4594  _ID */\n      dup5\n        /* \"contracts/Main.sol\":4596:4605  candidate */\n      dup2\n        /* \"contracts/Main.sol\":4596:4610  candidate.name */\n      0x00\n      add\n        /* \"contracts/Main.sol\":4612:4621  voteCount */\n      0x03\n        /* \"contracts/Main.sol\":4612:4626  voteCount[_ID] */\n      0x00\n        /* \"contracts/Main.sol\":4622:4625  _ID */\n      dup9\n        /* \"contracts/Main.sol\":4612:4626  voteCount[_ID] */\n      dup2\n      mstore\n      0x20\n      add\n      swap1\n      dup2\n      mstore\n      0x20\n      add\n      0x00\n      keccak256\n      sload\n        /* \"contracts/Main.sol\":4583:4627  return (_ID, candidate.name, voteCount[_ID]) */\n      dup2\n      dup1\n      sload\n      tag_127\n      swap1\n      tag_121\n      jump\t// in\n    tag_127:\n      dup1\n      0x1f\n      add\n      0x20\n      dup1\n      swap2\n      div\n      mul\n      0x20\n      add\n      mload(0x40)\n      swap1\n      dup2\n      add\n      0x40\n      mstore\n      dup1\n      swap3\n      swap2\n      swap1\n      dup2\n      dup2\n      mstore\n      0x20\n      add\n      dup3\n      dup1\n      sload\n      tag_128\n      swap1\n      tag_121\n      jump\t// in\n    tag_128:\n      dup1\n      iszero\n      tag_129\n      jumpi\n      dup1\n      0x1f\n      lt\n      tag_130\n      jumpi\n      0x0100\n      dup1\n      dup4\n      sload\n      div\n      mul\n      dup4\n      mstore\n      swap2\n      0x20\n      add\n      swap2\n      jump(tag_129)\n    tag_130:\n      dup3\n      add\n      swap2\n      swap1\n      0x00\n      mstore\n      keccak256(0x00, 0x20)\n      swap1\n    tag_131:\n      dup2\n      sload\n      dup2\n      mstore\n      swap1\n      0x01\n      add\n      swap1\n      0x20\n      add\n      dup1\n      dup4\n      gt\n      tag_131\n      jumpi\n      dup3\n      swap1\n      sub\n      0x1f\n      and\n      dup3\n      add\n      swap2\n    tag_129:\n      pop\n      pop\n      pop\n      pop\n      pop\n      swap2\n      pop\n      swap4\n      pop\n      swap4\n      pop\n      swap4\n      pop\n      pop\n        /* \"contracts/Main.sol\":4426:4635  function showResults(uint _ID) public view returns(uint, string memory, uint) {... */\n      swap2\n      swap4\n      swap1\n      swap3\n      pop\n      jump\t// out\n        /* \"contracts/Main.sol\":4186:4418  function displayCandidate(uint _ID) view public returns(uint name, string memory, string memory) {... */\n    tag_44:\n        /* \"contracts/Main.sol\":4242:4251  uint name */\n      0x00\n        /* \"contracts/Main.sol\":4253:4266  string memory */\n      0x60\n        /* \"contracts/Main.sol\":4268:4281  string memory */\n      dup1\n        /* \"contracts/Main.sol\":4294:4327  candidateStruct storage candidate */\n      0x00\n        /* \"contracts/Main.sol\":4330:4346  candidateMapping */\n      dup1\n        /* \"contracts/Main.sol\":4330:4351  candidateMapping[_ID] */\n      0x00\n        /* \"contracts/Main.sol\":4347:4350  _ID */\n      dup7\n        /* \"contracts/Main.sol\":4330:4351  candidateMapping[_ID] */\n      dup2\n      mstore\n      0x20\n      add\n      swap1\n      dup2\n      mstore\n      0x20\n      add\n      0x00\n      keccak256\n        /* \"contracts/Main.sol\":4294:4351  candidateStruct storage candidate = candidateMapping[_ID] */\n      swap1\n      pop\n        /* \"contracts/Main.sol\":4370:4373  _ID */\n      dup5\n        /* \"contracts/Main.sol\":4375:4384  candidate */\n      dup2\n        /* \"contracts/Main.sol\":4375:4389  candidate.name */\n      0x00\n      add\n        /* \"contracts/Main.sol\":4391:4400  candidate */\n      dup3\n        /* \"contracts/Main.sol\":4391:4409  candidate.proposal */\n      0x01\n      add\n        /* \"contracts/Main.sol\":4362:4410  return (_ID, candidate.name, candidate.proposal) */\n      dup2\n      dup1\n      sload\n      tag_133\n      swap1\n      tag_121\n      jump\t// in\n    tag_133:\n      dup1\n      0x1f\n      add\n      0x20\n      dup1\n      swap2\n      div\n      mul\n      0x20\n      add\n      mload(0x40)\n      swap1\n      dup2\n      add\n      0x40\n      mstore\n      dup1\n      swap3\n      swap2\n      swap1\n      dup2\n      dup2\n      mstore\n      0x20\n      add\n      dup3\n      dup1\n      sload\n      tag_134\n      swap1\n      tag_121\n      jump\t// in\n    tag_134:\n      dup1\n      iszero\n      tag_135\n      jumpi\n      dup1\n      0x1f\n      lt\n      tag_136\n      jumpi\n      0x0100\n      dup1\n      dup4\n      sload\n      div\n      mul\n      dup4\n      mstore\n      swap2\n      0x20\n      add\n      swap2\n      jump(tag_135)\n    tag_136:\n      dup3\n      add\n      swap2\n      swap1\n      0x00\n      mstore\n      keccak256(0x00, 0x20)\n      swap1\n    tag_137:\n      dup2\n      sload\n      dup2\n      mstore\n      swap1\n      0x01\n      add\n      swap1\n      0x20\n      add\n      dup1\n      dup4\n      gt\n      tag_137\n      jumpi\n      dup3\n      swap1\n      sub\n      0x1f\n      and\n      dup3\n      add\n      swap2\n    tag_135:\n      pop\n      pop\n      pop\n      pop\n      pop\n      swap2\n      pop\n      dup1\n      dup1\n      sload\n      tag_138\n      swap1\n      tag_121\n      jump\t// in\n    tag_138:\n      dup1\n      0x1f\n      add\n      0x20\n      dup1\n      swap2\n      div\n      mul\n      0x20\n      add\n      mload(0x40)\n      swap1\n      dup2\n      add\n      0x40\n      mstore\n      dup1\n      swap3\n      swap2\n      swap1\n      dup2\n      dup2\n      mstore\n      0x20\n      add\n      dup3\n      dup1\n      sload\n      tag_139\n      swap1\n      tag_121\n      jump\t// in\n    tag_139:\n      dup1\n      iszero\n      tag_140\n      jumpi\n      dup1\n      0x1f\n      lt\n      tag_141\n      jumpi\n      0x0100\n      dup1\n      dup4\n      sload\n      div\n      mul\n      dup4\n      mstore\n      swap2\n      0x20\n      add\n      swap2\n      jump(tag_140)\n    tag_141:\n      dup3\n      add\n      swap2\n      swap1\n      0x00\n      mstore\n      keccak256(0x00, 0x20)\n      swap1\n    tag_142:\n      dup2\n      sload\n      dup2\n      mstore\n      swap1\n      0x01\n      add\n      swap1\n      0x20\n      add\n      dup1\n      dup4\n      gt\n      tag_142\n      jumpi\n      dup3\n      swap1\n      sub\n      0x1f\n      and\n      dup3\n      add\n      swap2\n    tag_140:\n      pop\n      pop\n      pop\n      pop\n      pop\n      swap1\n      pop\n      swap4\n      pop\n      swap4\n      pop\n      swap4\n      pop\n      pop\n        /* \"contracts/Main.sol\":4186:4418  function displayCandidate(uint _ID) view public returns(uint name, string memory, string memory) {... */\n      swap2\n      swap4\n      swap1\n      swap3\n      pop\n      jump\t// out\n        /* \"contracts/Main.sol\":4643:5086  function showWinner() public view returns(string memory name, uint ID, uint Votes) {... */\n    tag_48:\n        /* \"contracts/Main.sol\":4685:4703  string memory name */\n      0x60\n        /* \"contracts/Main.sol\":4705:4712  uint ID */\n      0x00\n        /* \"contracts/Main.sol\":4714:4724  uint Votes */\n      dup1\n        /* \"contracts/Main.sol\":4737:4747  uint maxID */\n      0x00\n        /* \"contracts/Main.sol\":4762:4779  uint maxVoteCount */\n      dup1\n        /* \"contracts/Main.sol\":4801:4807  uint i */\n      0x00\n        /* \"contracts/Main.sol\":4810:4811  1 */\n      0x01\n        /* \"contracts/Main.sol\":4801:4811  uint i = 1 */\n      swap1\n      pop\n        /* \"contracts/Main.sol\":4796:5008  for (uint i = 1; i <= candidate_count; i ++) {... */\n    tag_144:\n        /* \"contracts/Main.sol\":4818:4833  candidate_count */\n      sload(0x04)\n        /* \"contracts/Main.sol\":4813:4814  i */\n      dup2\n        /* \"contracts/Main.sol\":4813:4833  i <= candidate_count */\n      gt\n        /* \"contracts/Main.sol\":4796:5008  for (uint i = 1; i <= candidate_count; i ++) {... */\n      tag_145\n      jumpi\n        /* \"contracts/Main.sol\":4875:4887  maxVoteCount */\n      dup2\n        /* \"contracts/Main.sol\":4860:4869  voteCount */\n      0x03\n        /* \"contracts/Main.sol\":4860:4872  voteCount[i] */\n      0x00\n        /* \"contracts/Main.sol\":4870:4871  i */\n      dup4\n        /* \"contracts/Main.sol\":4860:4872  voteCount[i] */\n      dup2\n      mstore\n      0x20\n      add\n      swap1\n      dup2\n      mstore\n      0x20\n      add\n      0x00\n      keccak256\n      sload\n        /* \"contracts/Main.sol\":4860:4887  voteCount[i] > maxVoteCount */\n      gt\n        /* \"contracts/Main.sol\":4856:4997  if (voteCount[i] > maxVoteCount) {... */\n      iszero\n      tag_147\n      jumpi\n        /* \"contracts/Main.sol\":4916:4917  i */\n      dup1\n        /* \"contracts/Main.sol\":4908:4917  maxID = i */\n      swap3\n      pop\n        /* \"contracts/Main.sol\":4951:4960  voteCount */\n      0x03\n        /* \"contracts/Main.sol\":4951:4963  voteCount[i] */\n      0x00\n        /* \"contracts/Main.sol\":4961:4962  i */\n      dup3\n        /* \"contracts/Main.sol\":4951:4963  voteCount[i] */\n      dup2\n      mstore\n      0x20\n      add\n      swap1\n      dup2\n      mstore\n      0x20\n      add\n      0x00\n      keccak256\n      sload\n        /* \"contracts/Main.sol\":4936:4963  maxVoteCount = voteCount[i] */\n      swap2\n      pop\n        /* \"contracts/Main.sol\":4856:4997  if (voteCount[i] > maxVoteCount) {... */\n    tag_147:\n        /* \"contracts/Main.sol\":4835:4839  i ++ */\n      dup1\n      dup1\n      tag_148\n      swap1\n      tag_76\n      jump\t// in\n    tag_148:\n      swap2\n      pop\n      pop\n        /* \"contracts/Main.sol\":4796:5008  for (uint i = 1; i <= candidate_count; i ++) {... */\n      jump(tag_144)\n    tag_145:\n      pop\n        /* \"contracts/Main.sol\":5028:5044  candidateMapping */\n      0x00\n        /* \"contracts/Main.sol\":5028:5051  candidateMapping[maxID] */\n      dup1\n        /* \"contracts/Main.sol\":5045:5050  maxID */\n      dup4\n        /* \"contracts/Main.sol\":5028:5051  candidateMapping[maxID] */\n      dup2\n      mstore\n      0x20\n      add\n      swap1\n      dup2\n      mstore\n      0x20\n      add\n      0x00\n      keccak256\n        /* \"contracts/Main.sol\":5028:5056  candidateMapping[maxID].name */\n      0x00\n      add\n        /* \"contracts/Main.sol\":5058:5063  maxID */\n      dup3\n        /* \"contracts/Main.sol\":5065:5077  maxVoteCount */\n      dup3\n        /* \"contracts/Main.sol\":5020:5078  return (candidateMapping[maxID].name, maxID, maxVoteCount) */\n      dup3\n      dup1\n      sload\n      tag_149\n      swap1\n      tag_121\n      jump\t// in\n    tag_149:\n      dup1\n      0x1f\n      add\n      0x20\n      dup1\n      swap2\n      div\n      mul\n      0x20\n      add\n      mload(0x40)\n      swap1\n      dup2\n      add\n      0x40\n      mstore\n      dup1\n      swap3\n      swap2\n      swap1\n      dup2\n      dup2\n      mstore\n      0x20\n      add\n      dup3\n      dup1\n      sload\n      tag_150\n      swap1\n      tag_121\n      jump\t// in\n    tag_150:\n      dup1\n      iszero\n      tag_151\n      jumpi\n      dup1\n      0x1f\n      lt\n      tag_152\n      jumpi\n      0x0100\n      dup1\n      dup4\n      sload\n      div\n      mul\n      dup4\n      mstore\n      swap2\n      0x20\n      add\n      swap2\n      jump(tag_151)\n    tag_152:\n      dup3\n      add\n      swap2\n      swap1\n      0x00\n      mstore\n      keccak256(0x00, 0x20)\n      swap1\n    tag_153:\n      dup2\n      sload\n      dup2\n      mstore\n      swap1\n      0x01\n      add\n      swap1\n      0x20\n      add\n      dup1\n      dup4\n      gt\n      tag_153\n      jumpi\n      dup3\n      swap1\n      sub\n      0x1f\n      and\n      dup3\n      add\n      swap2\n    tag_151:\n      pop\n      pop\n      pop\n      pop\n      pop\n      swap3\n      pop\n      swap5\n      pop\n      swap5\n      pop\n      swap5\n      pop\n      pop\n      pop\n        /* \"contracts/Main.sol\":4643:5086  function showWinner() public view returns(string memory name, uint ID, uint Votes) {... */\n      swap1\n      swap2\n      swap3\n      jump\t// out\n        /* \"contracts/Main.sol\":428:451  uint public voter_count */\n    tag_52:\n      sload(0x06)\n      dup2\n      jump\t// out\n        /* \"contracts/Main.sol\":1476:1934  function delegateVote(address _delegate, address _voter) public {... */\n    tag_57:\n        /* \"contracts/Main.sol\":1573:1574  0 */\n      0x00\n        /* \"contracts/Main.sol\":1555:1575  _voter != address(0) */\n      0xffffffffffffffffffffffffffffffffffffffff\n      and\n        /* \"contracts/Main.sol\":1555:1561  _voter */\n      dup2\n        /* \"contracts/Main.sol\":1555:1575  _voter != address(0) */\n      0xffffffffffffffffffffffffffffffffffffffff\n      and\n      eq\n        /* \"contracts/Main.sol\":1551:1927  if (_voter != address(0)) {... */\n      tag_155\n      jumpi\n        /* \"contracts/Main.sol\":1621:1622  0 */\n      0x00\n        /* \"contracts/Main.sol\":1597:1609  voterMapping */\n      0x01\n        /* \"contracts/Main.sol\":1597:1617  voterMapping[_voter] */\n      0x00\n        /* \"contracts/Main.sol\":1610:1616  _voter */\n      dup4\n        /* \"contracts/Main.sol\":1597:1617  voterMapping[_voter] */\n      0xffffffffffffffffffffffffffffffffffffffff\n      and\n      0xffffffffffffffffffffffffffffffffffffffff\n      and\n      dup2\n      mstore\n      0x20\n      add\n      swap1\n      dup2\n      mstore\n      0x20\n      add\n      0x00\n      keccak256\n      sload\n        /* \"contracts/Main.sol\":1597:1622  voterMapping[_voter] != 0 */\n      eq\n        /* \"contracts/Main.sol\":1592:1847  if ((voterMapping[_voter] != 0)) {... */\n      tag_156\n      jumpi\n        /* \"contracts/Main.sol\":1673:1687  delegate_count */\n      sload(0x05)\n        /* \"contracts/Main.sol\":1644:1659  delegateMapping */\n      0x02\n        /* \"contracts/Main.sol\":1644:1670  delegateMapping[_delegate] */\n      0x00\n        /* \"contracts/Main.sol\":1660:1669  _delegate */\n      dup5\n        /* \"contracts/Main.sol\":1644:1670  delegateMapping[_delegate] */\n      0xffffffffffffffffffffffffffffffffffffffff\n      and\n      0xffffffffffffffffffffffffffffffffffffffff\n      and\n      dup2\n      mstore\n      0x20\n      add\n      swap1\n      dup2\n      mstore\n      0x20\n      add\n      0x00\n      keccak256\n        /* \"contracts/Main.sol\":1644:1687  delegateMapping[_delegate] = delegate_count */\n      dup2\n      swap1\n      sstore\n      pop\n        /* \"contracts/Main.sol\":1729:1730  0 */\n      0x00\n        /* \"contracts/Main.sol\":1706:1718  voterMapping */\n      0x01\n        /* \"contracts/Main.sol\":1706:1726  voterMapping[_voter] */\n      0x00\n        /* \"contracts/Main.sol\":1719:1725  _voter */\n      dup4\n        /* \"contracts/Main.sol\":1706:1726  voterMapping[_voter] */\n      0xffffffffffffffffffffffffffffffffffffffff\n      and\n      0xffffffffffffffffffffffffffffffffffffffff\n      and\n      dup2\n      mstore\n      0x20\n      add\n      swap1\n      dup2\n      mstore\n      0x20\n      add\n      0x00\n      keccak256\n        /* \"contracts/Main.sol\":1706:1730  voterMapping[_voter] = 0 */\n      dup2\n      swap1\n      sstore\n      pop\n        /* \"contracts/Main.sol\":1592:1847  if ((voterMapping[_voter] != 0)) {... */\n      jump(tag_157)\n    tag_156:\n        /* \"contracts/Main.sol\":1788:1831  revert(\"Please register the voter first. \") */\n      mload(0x40)\n      0x08c379a000000000000000000000000000000000000000000000000000000000\n      dup2\n      mstore\n      0x04\n      add\n      tag_158\n      swap1\n      tag_159\n      jump\t// in\n    tag_158:\n      mload(0x40)\n      dup1\n      swap2\n      sub\n      swap1\n      revert\n        /* \"contracts/Main.sol\":1592:1847  if ((voterMapping[_voter] != 0)) {... */\n    tag_157:\n        /* \"contracts/Main.sol\":1551:1927  if (_voter != address(0)) {... */\n      jump(tag_160)\n    tag_155:\n        /* \"contracts/Main.sol\":1888:1915  revert(\"Invalid address. \") */\n      mload(0x40)\n      0x08c379a000000000000000000000000000000000000000000000000000000000\n      dup2\n      mstore\n      0x04\n      add\n      tag_161\n      swap1\n      tag_162\n      jump\t// in\n    tag_161:\n      mload(0x40)\n      dup1\n      swap2\n      sub\n      swap1\n      revert\n        /* \"contracts/Main.sol\":1551:1927  if (_voter != address(0)) {... */\n    tag_160:\n        /* \"contracts/Main.sol\":1476:1934  function delegateVote(address _delegate, address _voter) public {... */\n      pop\n      pop\n      jump\t// out\n        /* \"contracts/Main.sol\":2581:3215  function startElection(address owner) public {... */\n    tag_60:\n        /* \"contracts/Main.sol\":2698:2723  abi.encodePacked(\"ENDED\") */\n      add(0x20, mload(0x40))\n      tag_164\n      swap1\n      tag_88\n      jump\t// in\n    tag_164:\n      mload(0x40)\n      0x20\n      dup2\n      dup4\n      sub\n      sub\n      dup2\n      mstore\n      swap1\n      0x40\n      mstore\n        /* \"contracts/Main.sol\":2688:2724  keccak256(abi.encodePacked(\"ENDED\")) */\n      dup1\n      mload\n      swap1\n      0x20\n      add\n      keccak256\n        /* \"contracts/Main.sol\":2669:2682  electionState */\n      0x07\n        /* \"contracts/Main.sol\":2652:2683  abi.encodePacked(electionState) */\n      add(0x20, mload(0x40))\n      tag_165\n      swap2\n      swap1\n      tag_68\n      jump\t// in\n    tag_165:\n      mload(0x40)\n      0x20\n      dup2\n      dup4\n      sub\n      sub\n      dup2\n      mstore\n      swap1\n      0x40\n      mstore\n        /* \"contracts/Main.sol\":2642:2684  keccak256(abi.encodePacked(electionState)) */\n      dup1\n      mload\n      swap1\n      0x20\n      add\n      keccak256\n        /* \"contracts/Main.sol\":2642:2724  keccak256(abi.encodePacked(electionState)) == keccak256(abi.encodePacked(\"ENDED\")) */\n      sub\n        /* \"contracts/Main.sol\":2637:3208  if ((keccak256(abi.encodePacked(electionState)) == keccak256(abi.encodePacked(\"ENDED\")))) {... */\n      tag_166\n      jumpi\n        /* \"contracts/Main.sol\":2742:2772  revert(\"Election has ended. \") */\n      mload(0x40)\n      0x08c379a000000000000000000000000000000000000000000000000000000000\n      dup2\n      mstore\n      0x04\n      add\n      tag_167\n      swap1\n      tag_98\n      jump\t// in\n    tag_167:\n      mload(0x40)\n      dup1\n      swap2\n      sub\n      swap1\n      revert\n        /* \"contracts/Main.sol\":2637:3208  if ((keccak256(abi.encodePacked(electionState)) == keccak256(abi.encodePacked(\"ENDED\")))) {... */\n    tag_166:\n        /* \"contracts/Main.sol\":2860:2887  abi.encodePacked(\"ONGOING\") */\n      add(0x20, mload(0x40))\n      tag_169\n      swap1\n      tag_66\n      jump\t// in\n    tag_169:\n      mload(0x40)\n      0x20\n      dup2\n      dup4\n      sub\n      sub\n      dup2\n      mstore\n      swap1\n      0x40\n      mstore\n        /* \"contracts/Main.sol\":2850:2888  keccak256(abi.encodePacked(\"ONGOING\")) */\n      dup1\n      mload\n      swap1\n      0x20\n      add\n      keccak256\n        /* \"contracts/Main.sol\":2831:2844  electionState */\n      0x07\n        /* \"contracts/Main.sol\":2814:2845  abi.encodePacked(electionState) */\n      add(0x20, mload(0x40))\n      tag_170\n      swap2\n      swap1\n      tag_68\n      jump\t// in\n    tag_170:\n      mload(0x40)\n      0x20\n      dup2\n      dup4\n      sub\n      sub\n      dup2\n      mstore\n      swap1\n      0x40\n      mstore\n        /* \"contracts/Main.sol\":2804:2846  keccak256(abi.encodePacked(electionState)) */\n      dup1\n      mload\n      swap1\n      0x20\n      add\n      keccak256\n        /* \"contracts/Main.sol\":2804:2888  keccak256(abi.encodePacked(electionState)) == keccak256(abi.encodePacked(\"ONGOING\")) */\n      sub\n        /* \"contracts/Main.sol\":2799:3208  if ((keccak256(abi.encodePacked(electionState)) == keccak256(abi.encodePacked(\"ONGOING\")))) {... */\n      tag_171\n      jumpi\n        /* \"contracts/Main.sol\":2906:2945  revert(\"Election is already goin on. \") */\n      mload(0x40)\n      0x08c379a000000000000000000000000000000000000000000000000000000000\n      dup2\n      mstore\n      0x04\n      add\n      tag_172\n      swap1\n      tag_173\n      jump\t// in\n    tag_172:\n      mload(0x40)\n      dup1\n      swap2\n      sub\n      swap1\n      revert\n        /* \"contracts/Main.sol\":2799:3208  if ((keccak256(abi.encodePacked(electionState)) == keccak256(abi.encodePacked(\"ONGOING\")))) {... */\n    tag_171:\n        /* \"contracts/Main.sol\":3033:3064  abi.encodePacked(\"NOT STARTED\") */\n      add(0x20, mload(0x40))\n      tag_175\n      swap1\n      tag_81\n      jump\t// in\n    tag_175:\n      mload(0x40)\n      0x20\n      dup2\n      dup4\n      sub\n      sub\n      dup2\n      mstore\n      swap1\n      0x40\n      mstore\n        /* \"contracts/Main.sol\":3023:3065  keccak256(abi.encodePacked(\"NOT STARTED\")) */\n      dup1\n      mload\n      swap1\n      0x20\n      add\n      keccak256\n        /* \"contracts/Main.sol\":3004:3017  electionState */\n      0x07\n        /* \"contracts/Main.sol\":2987:3018  abi.encodePacked(electionState) */\n      add(0x20, mload(0x40))\n      tag_176\n      swap2\n      swap1\n      tag_68\n      jump\t// in\n    tag_176:\n      mload(0x40)\n      0x20\n      dup2\n      dup4\n      sub\n      sub\n      dup2\n      mstore\n      swap1\n      0x40\n      mstore\n        /* \"contracts/Main.sol\":2977:3019  keccak256(abi.encodePacked(electionState)) */\n      dup1\n      mload\n      swap1\n      0x20\n      add\n      keccak256\n        /* \"contracts/Main.sol\":2977:3065  keccak256(abi.encodePacked(electionState)) == keccak256(abi.encodePacked(\"NOT STARTED\")) */\n      sub\n        /* \"contracts/Main.sol\":2972:3208  if ((keccak256(abi.encodePacked(electionState)) == keccak256(abi.encodePacked(\"NOT STARTED\")))) {... */\n      tag_177\n      jumpi\n        /* \"contracts/Main.sol\":3097:3139  0x5B38Da6a701c568545dCfcB03FcB875f56beddC4 */\n      0x5b38da6a701c568545dcfcb03fcb875f56beddc4\n        /* \"contracts/Main.sol\":3088:3139  owner == 0x5B38Da6a701c568545dCfcB03FcB875f56beddC4 */\n      0xffffffffffffffffffffffffffffffffffffffff\n      and\n        /* \"contracts/Main.sol\":3088:3093  owner */\n      dup2\n        /* \"contracts/Main.sol\":3088:3139  owner == 0x5B38Da6a701c568545dCfcB03FcB875f56beddC4 */\n      0xffffffffffffffffffffffffffffffffffffffff\n      and\n      sub\n        /* \"contracts/Main.sol\":3083:3197  if ( owner == 0x5B38Da6a701c568545dCfcB03FcB875f56beddC4) {... */\n      tag_178\n      jumpi\n        /* \"contracts/Main.sol\":3156:3181  electionState = \"ONGOING\" */\n      mload(0x40)\n      dup1\n      0x40\n      add\n      0x40\n      mstore\n      dup1\n      0x07\n      dup2\n      mstore\n      0x20\n      add\n      0x4f4e474f494e4700000000000000000000000000000000000000000000000000\n      dup2\n      mstore\n      pop\n        /* \"contracts/Main.sol\":3156:3169  electionState */\n      0x07\n        /* \"contracts/Main.sol\":3156:3181  electionState = \"ONGOING\" */\n      swap1\n      dup2\n      tag_179\n      swap2\n      swap1\n      tag_105\n      jump\t// in\n    tag_179:\n      pop\n        /* \"contracts/Main.sol\":3083:3197  if ( owner == 0x5B38Da6a701c568545dCfcB03FcB875f56beddC4) {... */\n    tag_178:\n        /* \"contracts/Main.sol\":2972:3208  if ((keccak256(abi.encodePacked(electionState)) == keccak256(abi.encodePacked(\"NOT STARTED\")))) {... */\n    tag_177:\n        /* \"contracts/Main.sol\":2581:3215  function startElection(address owner) public {... */\n      pop\n      jump\t// out\n        /* \"contracts/Main.sol\":905:1468  function addVoter(address _voter, address owner) public {... */\n    tag_63:\n        /* \"contracts/Main.sol\":994:995  0 */\n      0x00\n        /* \"contracts/Main.sol\":976:996  _voter != address(0) */\n      0xffffffffffffffffffffffffffffffffffffffff\n      and\n        /* \"contracts/Main.sol\":976:982  _voter */\n      dup3\n        /* \"contracts/Main.sol\":976:996  _voter != address(0) */\n      0xffffffffffffffffffffffffffffffffffffffff\n      and\n      eq\n        /* \"contracts/Main.sol\":972:1461  if (_voter != address(0)) {... */\n      tag_181\n      jumpi\n        /* \"contracts/Main.sol\":1026:1068  0x5B38Da6a701c568545dCfcB03FcB875f56beddC4 */\n      0x5b38da6a701c568545dcfcb03fcb875f56beddc4\n        /* \"contracts/Main.sol\":1017:1068  owner == 0x5B38Da6a701c568545dCfcB03FcB875f56beddC4 */\n      0xffffffffffffffffffffffffffffffffffffffff\n      and\n        /* \"contracts/Main.sol\":1017:1022  owner */\n      dup2\n        /* \"contracts/Main.sol\":1017:1068  owner == 0x5B38Da6a701c568545dCfcB03FcB875f56beddC4 */\n      0xffffffffffffffffffffffffffffffffffffffff\n      and\n      sub\n        /* \"contracts/Main.sol\":1013:1450  if (owner == 0x5B38Da6a701c568545dCfcB03FcB875f56beddC4) {... */\n      tag_182\n      jumpi\n        /* \"contracts/Main.sol\":1117:1118  0 */\n      0x00\n        /* \"contracts/Main.sol\":1093:1105  voterMapping */\n      0x01\n        /* \"contracts/Main.sol\":1093:1113  voterMapping[_voter] */\n      0x00\n        /* \"contracts/Main.sol\":1106:1112  _voter */\n      dup5\n        /* \"contracts/Main.sol\":1093:1113  voterMapping[_voter] */\n      0xffffffffffffffffffffffffffffffffffffffff\n      and\n      0xffffffffffffffffffffffffffffffffffffffff\n      and\n      dup2\n      mstore\n      0x20\n      add\n      swap1\n      dup2\n      mstore\n      0x20\n      add\n      0x00\n      keccak256\n      sload\n        /* \"contracts/Main.sol\":1093:1118  voterMapping[_voter] != 0 */\n      eq\n        /* \"contracts/Main.sol\":1089:1332  if (voterMapping[_voter] != 0)  {... */\n      tag_183\n      jumpi\n        /* \"contracts/Main.sol\":1144:1175  revert(\"Voter already exists.\") */\n      mload(0x40)\n      0x08c379a000000000000000000000000000000000000000000000000000000000\n      dup2\n      mstore\n      0x04\n      add\n      tag_184\n      swap1\n      tag_185\n      jump\t// in\n    tag_184:\n      mload(0x40)\n      dup1\n      swap2\n      sub\n      swap1\n      revert\n        /* \"contracts/Main.sol\":1089:1332  if (voterMapping[_voter] != 0)  {... */\n    tag_183:\n        /* \"contracts/Main.sol\":1241:1252  voter_count */\n      0x06\n      0x00\n        /* \"contracts/Main.sol\":1241:1255  voter_count ++ */\n      dup2\n      sload\n      dup1\n      swap3\n      swap2\n      swap1\n      tag_187\n      swap1\n      tag_76\n      jump\t// in\n    tag_187:\n      swap2\n      swap1\n      pop\n      sstore\n      pop\n        /* \"contracts/Main.sol\":1301:1312  voter_count */\n      sload(0x06)\n        /* \"contracts/Main.sol\":1278:1290  voterMapping */\n      0x01\n        /* \"contracts/Main.sol\":1278:1298  voterMapping[_voter] */\n      0x00\n        /* \"contracts/Main.sol\":1291:1297  _voter */\n      dup5\n        /* \"contracts/Main.sol\":1278:1298  voterMapping[_voter] */\n      0xffffffffffffffffffffffffffffffffffffffff\n      and\n      0xffffffffffffffffffffffffffffffffffffffff\n      and\n      dup2\n      mstore\n      0x20\n      add\n      swap1\n      dup2\n      mstore\n      0x20\n      add\n      0x00\n      keccak256\n        /* \"contracts/Main.sol\":1278:1312  voterMapping[_voter] = voter_count */\n      dup2\n      swap1\n      sstore\n      pop\n        /* \"contracts/Main.sol\":1013:1450  if (owner == 0x5B38Da6a701c568545dCfcB03FcB875f56beddC4) {... */\n      jump(tag_188)\n    tag_182:\n        /* \"contracts/Main.sol\":1381:1434  revert(\"Only the contract owner can add candidates.\") */\n      mload(0x40)\n      0x08c379a000000000000000000000000000000000000000000000000000000000\n      dup2\n      mstore\n      0x04\n      add\n      tag_189\n      swap1\n      tag_119\n      jump\t// in\n    tag_189:\n      mload(0x40)\n      dup1\n      swap2\n      sub\n      swap1\n      revert\n        /* \"contracts/Main.sol\":1013:1450  if (owner == 0x5B38Da6a701c568545dCfcB03FcB875f56beddC4) {... */\n    tag_188:\n        /* \"contracts/Main.sol\":972:1461  if (_voter != address(0)) {... */\n    tag_181:\n        /* \"contracts/Main.sol\":905:1468  function addVoter(address _voter, address owner) public {... */\n      pop\n      pop\n      jump\t// out\n        /* \"#utility.yul\":7:82   */\n    tag_190:\n        /* \"#utility.yul\":40:46   */\n      0x00\n        /* \"#utility.yul\":73:75   */\n      0x40\n        /* \"#utility.yul\":67:76   */\n      mload\n        /* \"#utility.yul\":57:76   */\n      swap1\n      pop\n        /* \"#utility.yul\":7:82   */\n      swap1\n      jump\t// out\n        /* \"#utility.yul\":88:205   */\n    tag_191:\n        /* \"#utility.yul\":197:198   */\n      0x00\n        /* \"#utility.yul\":194:195   */\n      dup1\n        /* \"#utility.yul\":187:199   */\n      revert\n        /* \"#utility.yul\":211:328   */\n    tag_192:\n        /* \"#utility.yul\":320:321   */\n      0x00\n        /* \"#utility.yul\":317:318   */\n      dup1\n        /* \"#utility.yul\":310:322   */\n      revert\n        /* \"#utility.yul\":334:411   */\n    tag_193:\n        /* \"#utility.yul\":371:378   */\n      0x00\n        /* \"#utility.yul\":400:405   */\n      dup2\n        /* \"#utility.yul\":389:405   */\n      swap1\n      pop\n        /* \"#utility.yul\":334:411   */\n      swap2\n      swap1\n      pop\n      jump\t// out\n        /* \"#utility.yul\":417:539   */\n    tag_194:\n        /* \"#utility.yul\":490:514   */\n      tag_266\n        /* \"#utility.yul\":508:513   */\n      dup2\n        /* \"#utility.yul\":490:514   */\n      tag_193\n      jump\t// in\n    tag_266:\n        /* \"#utility.yul\":483:488   */\n      dup2\n        /* \"#utility.yul\":480:515   */\n      eq\n        /* \"#utility.yul\":470:533   */\n      tag_267\n      jumpi\n        /* \"#utility.yul\":529:530   */\n      0x00\n        /* \"#utility.yul\":526:527   */\n      dup1\n        /* \"#utility.yul\":519:531   */\n      revert\n        /* \"#utility.yul\":470:533   */\n    tag_267:\n        /* \"#utility.yul\":417:539   */\n      pop\n      jump\t// out\n        /* \"#utility.yul\":545:684   */\n    tag_195:\n        /* \"#utility.yul\":591:596   */\n      0x00\n        /* \"#utility.yul\":629:635   */\n      dup2\n        /* \"#utility.yul\":616:636   */\n      calldataload\n        /* \"#utility.yul\":607:636   */\n      swap1\n      pop\n        /* \"#utility.yul\":645:678   */\n      tag_269\n        /* \"#utility.yul\":672:677   */\n      dup2\n        /* \"#utility.yul\":645:678   */\n      tag_194\n      jump\t// in\n    tag_269:\n        /* \"#utility.yul\":545:684   */\n      swap3\n      swap2\n      pop\n      pop\n      jump\t// out\n        /* \"#utility.yul\":690:816   */\n    tag_196:\n        /* \"#utility.yul\":727:734   */\n      0x00\n        /* \"#utility.yul\":767:809   */\n      0xffffffffffffffffffffffffffffffffffffffff\n        /* \"#utility.yul\":760:765   */\n      dup3\n        /* \"#utility.yul\":756:810   */\n      and\n        /* \"#utility.yul\":745:810   */\n      swap1\n      pop\n        /* \"#utility.yul\":690:816   */\n      swap2\n      swap1\n      pop\n      jump\t// out\n        /* \"#utility.yul\":822:918   */\n    tag_197:\n        /* \"#utility.yul\":859:866   */\n      0x00\n        /* \"#utility.yul\":888:912   */\n      tag_272\n        /* \"#utility.yul\":906:911   */\n      dup3\n        /* \"#utility.yul\":888:912   */\n      tag_196\n      jump\t// in\n    tag_272:\n        /* \"#utility.yul\":877:912   */\n      swap1\n      pop\n        /* \"#utility.yul\":822:918   */\n      swap2\n      swap1\n      pop\n      jump\t// out\n        /* \"#utility.yul\":924:1046   */\n    tag_198:\n        /* \"#utility.yul\":997:1021   */\n      tag_274\n        /* \"#utility.yul\":1015:1020   */\n      dup2\n        /* \"#utility.yul\":997:1021   */\n      tag_197\n      jump\t// in\n    tag_274:\n        /* \"#utility.yul\":990:995   */\n      dup2\n        /* \"#utility.yul\":987:1022   */\n      eq\n        /* \"#utility.yul\":977:1040   */\n      tag_275\n      jumpi\n        /* \"#utility.yul\":1036:1037   */\n      0x00\n        /* \"#utility.yul\":1033:1034   */\n      dup1\n        /* \"#utility.yul\":1026:1038   */\n      revert\n        /* \"#utility.yul\":977:1040   */\n    tag_275:\n        /* \"#utility.yul\":924:1046   */\n      pop\n      jump\t// out\n        /* \"#utility.yul\":1052:1191   */\n    tag_199:\n        /* \"#utility.yul\":1098:1103   */\n      0x00\n        /* \"#utility.yul\":1136:1142   */\n      dup2\n        /* \"#utility.yul\":1123:1143   */\n      calldataload\n        /* \"#utility.yul\":1114:1143   */\n      swap1\n      pop\n        /* \"#utility.yul\":1152:1185   */\n      tag_277\n        /* \"#utility.yul\":1179:1184   */\n      dup2\n        /* \"#utility.yul\":1152:1185   */\n      tag_198\n      jump\t// in\n    tag_277:\n        /* \"#utility.yul\":1052:1191   */\n      swap3\n      swap2\n      pop\n      pop\n      jump\t// out\n        /* \"#utility.yul\":1197:1671   */\n    tag_18:\n        /* \"#utility.yul\":1265:1271   */\n      0x00\n        /* \"#utility.yul\":1273:1279   */\n      dup1\n        /* \"#utility.yul\":1322:1324   */\n      0x40\n        /* \"#utility.yul\":1310:1319   */\n      dup4\n        /* \"#utility.yul\":1301:1308   */\n      dup6\n        /* \"#utility.yul\":1297:1320   */\n      sub\n        /* \"#utility.yul\":1293:1325   */\n      slt\n        /* \"#utility.yul\":1290:1409   */\n      iszero\n      tag_279\n      jumpi\n        /* \"#utility.yul\":1328:1407   */\n      tag_280\n      tag_191\n      jump\t// in\n    tag_280:\n        /* \"#utility.yul\":1290:1409   */\n    tag_279:\n        /* \"#utility.yul\":1448:1449   */\n      0x00\n        /* \"#utility.yul\":1473:1526   */\n      tag_281\n        /* \"#utility.yul\":1518:1525   */\n      dup6\n        /* \"#utility.yul\":1509:1515   */\n      dup3\n        /* \"#utility.yul\":1498:1507   */\n      dup7\n        /* \"#utility.yul\":1494:1516   */\n      add\n        /* \"#utility.yul\":1473:1526   */\n      tag_195\n      jump\t// in\n    tag_281:\n        /* \"#utility.yul\":1463:1526   */\n      swap3\n      pop\n        /* \"#utility.yul\":1419:1536   */\n      pop\n        /* \"#utility.yul\":1575:1577   */\n      0x20\n        /* \"#utility.yul\":1601:1654   */\n      tag_282\n        /* \"#utility.yul\":1646:1653   */\n      dup6\n        /* \"#utility.yul\":1637:1643   */\n      dup3\n        /* \"#utility.yul\":1626:1635   */\n      dup7\n        /* \"#utility.yul\":1622:1644   */\n      add\n        /* \"#utility.yul\":1601:1654   */\n      tag_199\n      jump\t// in\n    tag_282:\n        /* \"#utility.yul\":1591:1654   */\n      swap2\n      pop\n        /* \"#utility.yul\":1546:1664   */\n      pop\n        /* \"#utility.yul\":1197:1671   */\n      swap3\n      pop\n      swap3\n      swap1\n      pop\n      jump\t// out\n        /* \"#utility.yul\":1677:2006   */\n    tag_22:\n        /* \"#utility.yul\":1736:1742   */\n      0x00\n        /* \"#utility.yul\":1785:1787   */\n      0x20\n        /* \"#utility.yul\":1773:1782   */\n      dup3\n        /* \"#utility.yul\":1764:1771   */\n      dup5\n        /* \"#utility.yul\":1760:1783   */\n      sub\n        /* \"#utility.yul\":1756:1788   */\n      slt\n        /* \"#utility.yul\":1753:1872   */\n      iszero\n      tag_284\n      jumpi\n        /* \"#utility.yul\":1791:1870   */\n      tag_285\n      tag_191\n      jump\t// in\n    tag_285:\n        /* \"#utility.yul\":1753:1872   */\n    tag_284:\n        /* \"#utility.yul\":1911:1912   */\n      0x00\n        /* \"#utility.yul\":1936:1989   */\n      tag_286\n        /* \"#utility.yul\":1981:1988   */\n      dup5\n        /* \"#utility.yul\":1972:1978   */\n      dup3\n        /* \"#utility.yul\":1961:1970   */\n      dup6\n        /* \"#utility.yul\":1957:1979   */\n      add\n        /* \"#utility.yul\":1936:1989   */\n      tag_199\n      jump\t// in\n    tag_286:\n        /* \"#utility.yul\":1926:1989   */\n      swap2\n      pop\n        /* \"#utility.yul\":1882:1999   */\n      pop\n        /* \"#utility.yul\":1677:2006   */\n      swap3\n      swap2\n      pop\n      pop\n      jump\t// out\n        /* \"#utility.yul\":2012:2129   */\n    tag_200:\n        /* \"#utility.yul\":2121:2122   */\n      0x00\n        /* \"#utility.yul\":2118:2119   */\n      dup1\n        /* \"#utility.yul\":2111:2123   */\n      revert\n        /* \"#utility.yul\":2135:2252   */\n    tag_201:\n        /* \"#utility.yul\":2244:2245   */\n      0x00\n        /* \"#utility.yul\":2241:2242   */\n      dup1\n        /* \"#utility.yul\":2234:2246   */\n      revert\n        /* \"#utility.yul\":2258:2360   */\n    tag_202:\n        /* \"#utility.yul\":2299:2305   */\n      0x00\n        /* \"#utility.yul\":2350:2352   */\n      0x1f\n        /* \"#utility.yul\":2346:2353   */\n      not\n        /* \"#utility.yul\":2341:2343   */\n      0x1f\n        /* \"#utility.yul\":2334:2339   */\n      dup4\n        /* \"#utility.yul\":2330:2344   */\n      add\n        /* \"#utility.yul\":2326:2354   */\n      and\n        /* \"#utility.yul\":2316:2354   */\n      swap1\n      pop\n        /* \"#utility.yul\":2258:2360   */\n      swap2\n      swap1\n      pop\n      jump\t// out\n        /* \"#utility.yul\":2366:2546   */\n    tag_203:\n        /* \"#utility.yul\":2414:2491   */\n      0x4e487b7100000000000000000000000000000000000000000000000000000000\n        /* \"#utility.yul\":2411:2412   */\n      0x00\n        /* \"#utility.yul\":2404:2492   */\n      mstore\n        /* \"#utility.yul\":2511:2515   */\n      0x41\n        /* \"#utility.yul\":2508:2509   */\n      0x04\n        /* \"#utility.yul\":2501:2516   */\n      mstore\n        /* \"#utility.yul\":2535:2539   */\n      0x24\n        /* \"#utility.yul\":2532:2533   */\n      0x00\n        /* \"#utility.yul\":2525:2540   */\n      revert\n        /* \"#utility.yul\":2552:2833   */\n    tag_204:\n        /* \"#utility.yul\":2635:2662   */\n      tag_292\n        /* \"#utility.yul\":2657:2661   */\n      dup3\n        /* \"#utility.yul\":2635:2662   */\n      tag_202\n      jump\t// in\n    tag_292:\n        /* \"#utility.yul\":2627:2633   */\n      dup2\n        /* \"#utility.yul\":2623:2663   */\n      add\n        /* \"#utility.yul\":2765:2771   */\n      dup2\n        /* \"#utility.yul\":2753:2763   */\n      dup2\n        /* \"#utility.yul\":2750:2772   */\n      lt\n        /* \"#utility.yul\":2729:2747   */\n      0xffffffffffffffff\n        /* \"#utility.yul\":2717:2727   */\n      dup3\n        /* \"#utility.yul\":2714:2748   */\n      gt\n        /* \"#utility.yul\":2711:2773   */\n      or\n        /* \"#utility.yul\":2708:2796   */\n      iszero\n      tag_293\n      jumpi\n        /* \"#utility.yul\":2776:2794   */\n      tag_294\n      tag_203\n      jump\t// in\n    tag_294:\n        /* \"#utility.yul\":2708:2796   */\n    tag_293:\n        /* \"#utility.yul\":2816:2826   */\n      dup1\n        /* \"#utility.yul\":2812:2814   */\n      0x40\n        /* \"#utility.yul\":2805:2827   */\n      mstore\n        /* \"#utility.yul\":2595:2833   */\n      pop\n        /* \"#utility.yul\":2552:2833   */\n      pop\n      pop\n      jump\t// out\n        /* \"#utility.yul\":2839:2968   */\n    tag_205:\n        /* \"#utility.yul\":2873:2879   */\n      0x00\n        /* \"#utility.yul\":2900:2920   */\n      tag_296\n      tag_190\n      jump\t// in\n    tag_296:\n        /* \"#utility.yul\":2890:2920   */\n      swap1\n      pop\n        /* \"#utility.yul\":2929:2962   */\n      tag_297\n        /* \"#utility.yul\":2957:2961   */\n      dup3\n        /* \"#utility.yul\":2949:2955   */\n      dup3\n        /* \"#utility.yul\":2929:2962   */\n      tag_204\n      jump\t// in\n    tag_297:\n        /* \"#utility.yul\":2839:2968   */\n      swap2\n      swap1\n      pop\n      jump\t// out\n        /* \"#utility.yul\":2974:3282   */\n    tag_206:\n        /* \"#utility.yul\":3036:3040   */\n      0x00\n        /* \"#utility.yul\":3126:3144   */\n      0xffffffffffffffff\n        /* \"#utility.yul\":3118:3124   */\n      dup3\n        /* \"#utility.yul\":3115:3145   */\n      gt\n        /* \"#utility.yul\":3112:3168   */\n      iszero\n      tag_299\n      jumpi\n        /* \"#utility.yul\":3148:3166   */\n      tag_300\n      tag_203\n      jump\t// in\n    tag_300:\n        /* \"#utility.yul\":3112:3168   */\n    tag_299:\n        /* \"#utility.yul\":3186:3215   */\n      tag_301\n        /* \"#utility.yul\":3208:3214   */\n      dup3\n        /* \"#utility.yul\":3186:3215   */\n      tag_202\n      jump\t// in\n    tag_301:\n        /* \"#utility.yul\":3178:3215   */\n      swap1\n      pop\n        /* \"#utility.yul\":3270:3274   */\n      0x20\n        /* \"#utility.yul\":3264:3268   */\n      dup2\n        /* \"#utility.yul\":3260:3275   */\n      add\n        /* \"#utility.yul\":3252:3275   */\n      swap1\n      pop\n        /* \"#utility.yul\":2974:3282   */\n      swap2\n      swap1\n      pop\n      jump\t// out\n        /* \"#utility.yul\":3288:3434   */\n    tag_207:\n        /* \"#utility.yul\":3385:3391   */\n      dup3\n        /* \"#utility.yul\":3380:3383   */\n      dup2\n        /* \"#utility.yul\":3375:3378   */\n      dup4\n        /* \"#utility.yul\":3362:3392   */\n      calldatacopy\n        /* \"#utility.yul\":3426:3427   */\n      0x00\n        /* \"#utility.yul\":3417:3423   */\n      dup4\n        /* \"#utility.yul\":3412:3415   */\n      dup4\n        /* \"#utility.yul\":3408:3424   */\n      add\n        /* \"#utility.yul\":3401:3428   */\n      mstore\n        /* \"#utility.yul\":3288:3434   */\n      pop\n      pop\n      pop\n      jump\t// out\n        /* \"#utility.yul\":3440:3865   */\n    tag_208:\n        /* \"#utility.yul\":3518:3523   */\n      0x00\n        /* \"#utility.yul\":3543:3609   */\n      tag_304\n        /* \"#utility.yul\":3559:3608   */\n      tag_305\n        /* \"#utility.yul\":3601:3607   */\n      dup5\n        /* \"#utility.yul\":3559:3608   */\n      tag_206\n      jump\t// in\n    tag_305:\n        /* \"#utility.yul\":3543:3609   */\n      tag_205\n      jump\t// in\n    tag_304:\n        /* \"#utility.yul\":3534:3609   */\n      swap1\n      pop\n        /* \"#utility.yul\":3632:3638   */\n      dup3\n        /* \"#utility.yul\":3625:3630   */\n      dup2\n        /* \"#utility.yul\":3618:3639   */\n      mstore\n        /* \"#utility.yul\":3670:3674   */\n      0x20\n        /* \"#utility.yul\":3663:3668   */\n      dup2\n        /* \"#utility.yul\":3659:3675   */\n      add\n        /* \"#utility.yul\":3708:3711   */\n      dup5\n        /* \"#utility.yul\":3699:3705   */\n      dup5\n        /* \"#utility.yul\":3694:3697   */\n      dup5\n        /* \"#utility.yul\":3690:3706   */\n      add\n        /* \"#utility.yul\":3687:3712   */\n      gt\n        /* \"#utility.yul\":3684:3796   */\n      iszero\n      tag_306\n      jumpi\n        /* \"#utility.yul\":3715:3794   */\n      tag_307\n      tag_201\n      jump\t// in\n    tag_307:\n        /* \"#utility.yul\":3684:3796   */\n    tag_306:\n        /* \"#utility.yul\":3805:3859   */\n      tag_308\n        /* \"#utility.yul\":3852:3858   */\n      dup5\n        /* \"#utility.yul\":3847:3850   */\n      dup3\n        /* \"#utility.yul\":3842:3845   */\n      dup6\n        /* \"#utility.yul\":3805:3859   */\n      tag_207\n      jump\t// in\n    tag_308:\n        /* \"#utility.yul\":3524:3865   */\n      pop\n        /* \"#utility.yul\":3440:3865   */\n      swap4\n      swap3\n      pop\n      pop\n      pop\n      jump\t// out\n        /* \"#utility.yul\":3885:4225   */\n    tag_209:\n        /* \"#utility.yul\":3941:3946   */\n      0x00\n        /* \"#utility.yul\":3990:3993   */\n      dup3\n        /* \"#utility.yul\":3983:3987   */\n      0x1f\n        /* \"#utility.yul\":3975:3981   */\n      dup4\n        /* \"#utility.yul\":3971:3988   */\n      add\n        /* \"#utility.yul\":3967:3994   */\n      slt\n        /* \"#utility.yul\":3957:4079   */\n      tag_310\n      jumpi\n        /* \"#utility.yul\":3998:4077   */\n      tag_311\n      tag_200\n      jump\t// in\n    tag_311:\n        /* \"#utility.yul\":3957:4079   */\n    tag_310:\n        /* \"#utility.yul\":4115:4121   */\n      dup2\n        /* \"#utility.yul\":4102:4122   */\n      calldataload\n        /* \"#utility.yul\":4140:4219   */\n      tag_312\n        /* \"#utility.yul\":4215:4218   */\n      dup5\n        /* \"#utility.yul\":4207:4213   */\n      dup3\n        /* \"#utility.yul\":4200:4204   */\n      0x20\n        /* \"#utility.yul\":4192:4198   */\n      dup7\n        /* \"#utility.yul\":4188:4205   */\n      add\n        /* \"#utility.yul\":4140:4219   */\n      tag_208\n      jump\t// in\n    tag_312:\n        /* \"#utility.yul\":4131:4219   */\n      swap2\n      pop\n        /* \"#utility.yul\":3947:4225   */\n      pop\n        /* \"#utility.yul\":3885:4225   */\n      swap3\n      swap2\n      pop\n      pop\n      jump\t// out\n        /* \"#utility.yul\":4231:5210   */\n    tag_26:\n        /* \"#utility.yul\":4328:4334   */\n      0x00\n        /* \"#utility.yul\":4336:4342   */\n      dup1\n        /* \"#utility.yul\":4344:4350   */\n      0x00\n        /* \"#utility.yul\":4393:4395   */\n      0x60\n        /* \"#utility.yul\":4381:4390   */\n      dup5\n        /* \"#utility.yul\":4372:4379   */\n      dup7\n        /* \"#utility.yul\":4368:4391   */\n      sub\n        /* \"#utility.yul\":4364:4396   */\n      slt\n        /* \"#utility.yul\":4361:4480   */\n      iszero\n      tag_314\n      jumpi\n        /* \"#utility.yul\":4399:4478   */\n      tag_315\n      tag_191\n      jump\t// in\n    tag_315:\n        /* \"#utility.yul\":4361:4480   */\n    tag_314:\n        /* \"#utility.yul\":4547:4548   */\n      0x00\n        /* \"#utility.yul\":4536:4545   */\n      dup5\n        /* \"#utility.yul\":4532:4549   */\n      add\n        /* \"#utility.yul\":4519:4550   */\n      calldataload\n        /* \"#utility.yul\":4577:4595   */\n      0xffffffffffffffff\n        /* \"#utility.yul\":4569:4575   */\n      dup2\n        /* \"#utility.yul\":4566:4596   */\n      gt\n        /* \"#utility.yul\":4563:4680   */\n      iszero\n      tag_316\n      jumpi\n        /* \"#utility.yul\":4599:4678   */\n      tag_317\n      tag_192\n      jump\t// in\n    tag_317:\n        /* \"#utility.yul\":4563:4680   */\n    tag_316:\n        /* \"#utility.yul\":4704:4767   */\n      tag_318\n        /* \"#utility.yul\":4759:4766   */\n      dup7\n        /* \"#utility.yul\":4750:4756   */\n      dup3\n        /* \"#utility.yul\":4739:4748   */\n      dup8\n        /* \"#utility.yul\":4735:4757   */\n      add\n        /* \"#utility.yul\":4704:4767   */\n      tag_209\n      jump\t// in\n    tag_318:\n        /* \"#utility.yul\":4694:4767   */\n      swap4\n      pop\n        /* \"#utility.yul\":4490:4777   */\n      pop\n        /* \"#utility.yul\":4844:4846   */\n      0x20\n        /* \"#utility.yul\":4833:4842   */\n      dup5\n        /* \"#utility.yul\":4829:4847   */\n      add\n        /* \"#utility.yul\":4816:4848   */\n      calldataload\n        /* \"#utility.yul\":4875:4893   */\n      0xffffffffffffffff\n        /* \"#utility.yul\":4867:4873   */\n      dup2\n        /* \"#utility.yul\":4864:4894   */\n      gt\n        /* \"#utility.yul\":4861:4978   */\n      iszero\n      tag_319\n      jumpi\n        /* \"#utility.yul\":4897:4976   */\n      tag_320\n      tag_192\n      jump\t// in\n    tag_320:\n        /* \"#utility.yul\":4861:4978   */\n    tag_319:\n        /* \"#utility.yul\":5002:5065   */\n      tag_321\n        /* \"#utility.yul\":5057:5064   */\n      dup7\n        /* \"#utility.yul\":5048:5054   */\n      dup3\n        /* \"#utility.yul\":5037:5046   */\n      dup8\n        /* \"#utility.yul\":5033:5055   */\n      add\n        /* \"#utility.yul\":5002:5065   */\n      tag_209\n      jump\t// in\n    tag_321:\n        /* \"#utility.yul\":4992:5065   */\n      swap3\n      pop\n        /* \"#utility.yul\":4787:5075   */\n      pop\n        /* \"#utility.yul\":5114:5116   */\n      0x40\n        /* \"#utility.yul\":5140:5193   */\n      tag_322\n        /* \"#utility.yul\":5185:5192   */\n      dup7\n        /* \"#utility.yul\":5176:5182   */\n      dup3\n        /* \"#utility.yul\":5165:5174   */\n      dup8\n        /* \"#utility.yul\":5161:5183   */\n      add\n        /* \"#utility.yul\":5140:5193   */\n      tag_199\n      jump\t// in\n    tag_322:\n        /* \"#utility.yul\":5130:5193   */\n      swap2\n      pop\n        /* \"#utility.yul\":5085:5203   */\n      pop\n        /* \"#utility.yul\":4231:5210   */\n      swap3\n      pop\n      swap3\n      pop\n      swap3\n      jump\t// out\n        /* \"#utility.yul\":5216:5315   */\n    tag_210:\n        /* \"#utility.yul\":5268:5274   */\n      0x00\n        /* \"#utility.yul\":5302:5307   */\n      dup2\n        /* \"#utility.yul\":5296:5308   */\n      mload\n        /* \"#utility.yul\":5286:5308   */\n      swap1\n      pop\n        /* \"#utility.yul\":5216:5315   */\n      swap2\n      swap1\n      pop\n      jump\t// out\n        /* \"#utility.yul\":5321:5490   */\n    tag_211:\n        /* \"#utility.yul\":5405:5416   */\n      0x00\n        /* \"#utility.yul\":5439:5445   */\n      dup3\n        /* \"#utility.yul\":5434:5437   */\n      dup3\n        /* \"#utility.yul\":5427:5446   */\n      mstore\n        /* \"#utility.yul\":5479:5483   */\n      0x20\n        /* \"#utility.yul\":5474:5477   */\n      dup3\n        /* \"#utility.yul\":5470:5484   */\n      add\n        /* \"#utility.yul\":5455:5484   */\n      swap1\n      pop\n        /* \"#utility.yul\":5321:5490   */\n      swap3\n      swap2\n      pop\n      pop\n      jump\t// out\n        /* \"#utility.yul\":5496:5742   */\n    tag_212:\n        /* \"#utility.yul\":5577:5578   */\n      0x00\n        /* \"#utility.yul\":5587:5700   */\n    tag_326:\n        /* \"#utility.yul\":5601:5607   */\n      dup4\n        /* \"#utility.yul\":5598:5599   */\n      dup2\n        /* \"#utility.yul\":5595:5608   */\n      lt\n        /* \"#utility.yul\":5587:5700   */\n      iszero\n      tag_328\n      jumpi\n        /* \"#utility.yul\":5686:5687   */\n      dup1\n        /* \"#utility.yul\":5681:5684   */\n      dup3\n        /* \"#utility.yul\":5677:5688   */\n      add\n        /* \"#utility.yul\":5671:5689   */\n      mload\n        /* \"#utility.yul\":5667:5668   */\n      dup2\n        /* \"#utility.yul\":5662:5665   */\n      dup5\n        /* \"#utility.yul\":5658:5669   */\n      add\n        /* \"#utility.yul\":5651:5690   */\n      mstore\n        /* \"#utility.yul\":5623:5625   */\n      0x20\n        /* \"#utility.yul\":5620:5621   */\n      dup2\n        /* \"#utility.yul\":5616:5626   */\n      add\n        /* \"#utility.yul\":5611:5626   */\n      swap1\n      pop\n        /* \"#utility.yul\":5587:5700   */\n      jump(tag_326)\n    tag_328:\n        /* \"#utility.yul\":5734:5735   */\n      0x00\n        /* \"#utility.yul\":5725:5731   */\n      dup5\n        /* \"#utility.yul\":5720:5723   */\n      dup5\n        /* \"#utility.yul\":5716:5732   */\n      add\n        /* \"#utility.yul\":5709:5736   */\n      mstore\n        /* \"#utility.yul\":5558:5742   */\n      pop\n        /* \"#utility.yul\":5496:5742   */\n      pop\n      pop\n      pop\n      jump\t// out\n        /* \"#utility.yul\":5748:6125   */\n    tag_213:\n        /* \"#utility.yul\":5836:5839   */\n      0x00\n        /* \"#utility.yul\":5864:5903   */\n      tag_330\n        /* \"#utility.yul\":5897:5902   */\n      dup3\n        /* \"#utility.yul\":5864:5903   */\n      tag_210\n      jump\t// in\n    tag_330:\n        /* \"#utility.yul\":5919:5990   */\n      tag_331\n        /* \"#utility.yul\":5983:5989   */\n      dup2\n        /* \"#utility.yul\":5978:5981   */\n      dup6\n        /* \"#utility.yul\":5919:5990   */\n      tag_211\n      jump\t// in\n    tag_331:\n        /* \"#utility.yul\":5912:5990   */\n      swap4\n      pop\n        /* \"#utility.yul\":5999:6064   */\n      tag_332\n        /* \"#utility.yul\":6057:6063   */\n      dup2\n        /* \"#utility.yul\":6052:6055   */\n      dup6\n        /* \"#utility.yul\":6045:6049   */\n      0x20\n        /* \"#utility.yul\":6038:6043   */\n      dup7\n        /* \"#utility.yul\":6034:6050   */\n      add\n        /* \"#utility.yul\":5999:6064   */\n      tag_212\n      jump\t// in\n    tag_332:\n        /* \"#utility.yul\":6089:6118   */\n      tag_333\n        /* \"#utility.yul\":6111:6117   */\n      dup2\n        /* \"#utility.yul\":6089:6118   */\n      tag_202\n      jump\t// in\n    tag_333:\n        /* \"#utility.yul\":6084:6087   */\n      dup5\n        /* \"#utility.yul\":6080:6119   */\n      add\n        /* \"#utility.yul\":6073:6119   */\n      swap2\n      pop\n        /* \"#utility.yul\":5840:6125   */\n      pop\n        /* \"#utility.yul\":5748:6125   */\n      swap3\n      swap2\n      pop\n      pop\n      jump\t// out\n        /* \"#utility.yul\":6131:6444   */\n    tag_31:\n        /* \"#utility.yul\":6244:6248   */\n      0x00\n        /* \"#utility.yul\":6282:6284   */\n      0x20\n        /* \"#utility.yul\":6271:6280   */\n      dup3\n        /* \"#utility.yul\":6267:6285   */\n      add\n        /* \"#utility.yul\":6259:6285   */\n      swap1\n      pop\n        /* \"#utility.yul\":6331:6340   */\n      dup2\n        /* \"#utility.yul\":6325:6329   */\n      dup2\n        /* \"#utility.yul\":6321:6341   */\n      sub\n        /* \"#utility.yul\":6317:6318   */\n      0x00\n        /* \"#utility.yul\":6306:6315   */\n      dup4\n        /* \"#utility.yul\":6302:6319   */\n      add\n        /* \"#utility.yul\":6295:6342   */\n      mstore\n        /* \"#utility.yul\":6359:6437   */\n      tag_335\n        /* \"#utility.yul\":6432:6436   */\n      dup2\n        /* \"#utility.yul\":6423:6429   */\n      dup5\n        /* \"#utility.yul\":6359:6437   */\n      tag_213\n      jump\t// in\n    tag_335:\n        /* \"#utility.yul\":6351:6437   */\n      swap1\n      pop\n        /* \"#utility.yul\":6131:6444   */\n      swap3\n      swap2\n      pop\n      pop\n      jump\t// out\n        /* \"#utility.yul\":6450:6568   */\n    tag_214:\n        /* \"#utility.yul\":6537:6561   */\n      tag_337\n        /* \"#utility.yul\":6555:6560   */\n      dup2\n        /* \"#utility.yul\":6537:6561   */\n      tag_193\n      jump\t// in\n    tag_337:\n        /* \"#utility.yul\":6532:6535   */\n      dup3\n        /* \"#utility.yul\":6525:6562   */\n      mstore\n        /* \"#utility.yul\":6450:6568   */\n      pop\n      pop\n      jump\t// out\n        /* \"#utility.yul\":6574:6796   */\n    tag_35:\n        /* \"#utility.yul\":6667:6671   */\n      0x00\n        /* \"#utility.yul\":6705:6707   */\n      0x20\n        /* \"#utility.yul\":6694:6703   */\n      dup3\n        /* \"#utility.yul\":6690:6708   */\n      add\n        /* \"#utility.yul\":6682:6708   */\n      swap1\n      pop\n        /* \"#utility.yul\":6718:6789   */\n      tag_339\n        /* \"#utility.yul\":6786:6787   */\n      0x00\n        /* \"#utility.yul\":6775:6784   */\n      dup4\n        /* \"#utility.yul\":6771:6788   */\n      add\n        /* \"#utility.yul\":6762:6768   */\n      dup5\n        /* \"#utility.yul\":6718:6789   */\n      tag_214\n      jump\t// in\n    tag_339:\n        /* \"#utility.yul\":6574:6796   */\n      swap3\n      swap2\n      pop\n      pop\n      jump\t// out\n        /* \"#utility.yul\":6802:7131   */\n    tag_38:\n        /* \"#utility.yul\":6861:6867   */\n      0x00\n        /* \"#utility.yul\":6910:6912   */\n      0x20\n        /* \"#utility.yul\":6898:6907   */\n      dup3\n        /* \"#utility.yul\":6889:6896   */\n      dup5\n        /* \"#utility.yul\":6885:6908   */\n      sub\n        /* \"#utility.yul\":6881:6913   */\n      slt\n        /* \"#utility.yul\":6878:6997   */\n      iszero\n      tag_341\n      jumpi\n        /* \"#utility.yul\":6916:6995   */\n      tag_342\n      tag_191\n      jump\t// in\n    tag_342:\n        /* \"#utility.yul\":6878:6997   */\n    tag_341:\n        /* \"#utility.yul\":7036:7037   */\n      0x00\n        /* \"#utility.yul\":7061:7114   */\n      tag_343\n        /* \"#utility.yul\":7106:7113   */\n      dup5\n        /* \"#utility.yul\":7097:7103   */\n      dup3\n        /* \"#utility.yul\":7086:7095   */\n      dup6\n        /* \"#utility.yul\":7082:7104   */\n      add\n        /* \"#utility.yul\":7061:7114   */\n      tag_195\n      jump\t// in\n    tag_343:\n        /* \"#utility.yul\":7051:7114   */\n      swap2\n      pop\n        /* \"#utility.yul\":7007:7124   */\n      pop\n        /* \"#utility.yul\":6802:7131   */\n      swap3\n      swap2\n      pop\n      pop\n      jump\t// out\n        /* \"#utility.yul\":7137:7670   */\n    tag_41:\n        /* \"#utility.yul\":7306:7310   */\n      0x00\n        /* \"#utility.yul\":7344:7346   */\n      0x60\n        /* \"#utility.yul\":7333:7342   */\n      dup3\n        /* \"#utility.yul\":7329:7347   */\n      add\n        /* \"#utility.yul\":7321:7347   */\n      swap1\n      pop\n        /* \"#utility.yul\":7357:7428   */\n      tag_345\n        /* \"#utility.yul\":7425:7426   */\n      0x00\n        /* \"#utility.yul\":7414:7423   */\n      dup4\n        /* \"#utility.yul\":7410:7427   */\n      add\n        /* \"#utility.yul\":7401:7407   */\n      dup7\n        /* \"#utility.yul\":7357:7428   */\n      tag_214\n      jump\t// in\n    tag_345:\n        /* \"#utility.yul\":7475:7484   */\n      dup2\n        /* \"#utility.yul\":7469:7473   */\n      dup2\n        /* \"#utility.yul\":7465:7485   */\n      sub\n        /* \"#utility.yul\":7460:7462   */\n      0x20\n        /* \"#utility.yul\":7449:7458   */\n      dup4\n        /* \"#utility.yul\":7445:7463   */\n      add\n        /* \"#utility.yul\":7438:7486   */\n      mstore\n        /* \"#utility.yul\":7503:7581   */\n      tag_346\n        /* \"#utility.yul\":7576:7580   */\n      dup2\n        /* \"#utility.yul\":7567:7573   */\n      dup6\n        /* \"#utility.yul\":7503:7581   */\n      tag_213\n      jump\t// in\n    tag_346:\n        /* \"#utility.yul\":7495:7581   */\n      swap1\n      pop\n        /* \"#utility.yul\":7591:7663   */\n      tag_347\n        /* \"#utility.yul\":7659:7661   */\n      0x40\n        /* \"#utility.yul\":7648:7657   */\n      dup4\n        /* \"#utility.yul\":7644:7662   */\n      add\n        /* \"#utility.yul\":7635:7641   */\n      dup5\n        /* \"#utility.yul\":7591:7663   */\n      tag_214\n      jump\t// in\n    tag_347:\n        /* \"#utility.yul\":7137:7670   */\n      swap5\n      swap4\n      pop\n      pop\n      pop\n      pop\n      jump\t// out\n        /* \"#utility.yul\":7676:8300   */\n    tag_46:\n        /* \"#utility.yul\":7865:7869   */\n      0x00\n        /* \"#utility.yul\":7903:7905   */\n      0x60\n        /* \"#utility.yul\":7892:7901   */\n      dup3\n        /* \"#utility.yul\":7888:7906   */\n      add\n        /* \"#utility.yul\":7880:7906   */\n      swap1\n      pop\n        /* \"#utility.yul\":7916:7987   */\n      tag_349\n        /* \"#utility.yul\":7984:7985   */\n      0x00\n        /* \"#utility.yul\":7973:7982   */\n      dup4\n        /* \"#utility.yul\":7969:7986   */\n      add\n        /* \"#utility.yul\":7960:7966   */\n      dup7\n        /* \"#utility.yul\":7916:7987   */\n      tag_214\n      jump\t// in\n    tag_349:\n        /* \"#utility.yul\":8034:8043   */\n      dup2\n        /* \"#utility.yul\":8028:8032   */\n      dup2\n        /* \"#utility.yul\":8024:8044   */\n      sub\n        /* \"#utility.yul\":8019:8021   */\n      0x20\n        /* \"#utility.yul\":8008:8017   */\n      dup4\n        /* \"#utility.yul\":8004:8022   */\n      add\n        /* \"#utility.yul\":7997:8045   */\n      mstore\n        /* \"#utility.yul\":8062:8140   */\n      tag_350\n        /* \"#utility.yul\":8135:8139   */\n      dup2\n        /* \"#utility.yul\":8126:8132   */\n      dup6\n        /* \"#utility.yul\":8062:8140   */\n      tag_213\n      jump\t// in\n    tag_350:\n        /* \"#utility.yul\":8054:8140   */\n      swap1\n      pop\n        /* \"#utility.yul\":8187:8196   */\n      dup2\n        /* \"#utility.yul\":8181:8185   */\n      dup2\n        /* \"#utility.yul\":8177:8197   */\n      sub\n        /* \"#utility.yul\":8172:8174   */\n      0x40\n        /* \"#utility.yul\":8161:8170   */\n      dup4\n        /* \"#utility.yul\":8157:8175   */\n      add\n        /* \"#utility.yul\":8150:8198   */\n      mstore\n        /* \"#utility.yul\":8215:8293   */\n      tag_351\n        /* \"#utility.yul\":8288:8292   */\n      dup2\n        /* \"#utility.yul\":8279:8285   */\n      dup5\n        /* \"#utility.yul\":8215:8293   */\n      tag_213\n      jump\t// in\n    tag_351:\n        /* \"#utility.yul\":8207:8293   */\n      swap1\n      pop\n        /* \"#utility.yul\":7676:8300   */\n      swap5\n      swap4\n      pop\n      pop\n      pop\n      pop\n      jump\t// out\n        /* \"#utility.yul\":8306:8839   */\n    tag_50:\n        /* \"#utility.yul\":8475:8479   */\n      0x00\n        /* \"#utility.yul\":8513:8515   */\n      0x60\n        /* \"#utility.yul\":8502:8511   */\n      dup3\n        /* \"#utility.yul\":8498:8516   */\n      add\n        /* \"#utility.yul\":8490:8516   */\n      swap1\n      pop\n        /* \"#utility.yul\":8562:8571   */\n      dup2\n        /* \"#utility.yul\":8556:8560   */\n      dup2\n        /* \"#utility.yul\":8552:8572   */\n      sub\n        /* \"#utility.yul\":8548:8549   */\n      0x00\n        /* \"#utility.yul\":8537:8546   */\n      dup4\n        /* \"#utility.yul\":8533:8550   */\n      add\n        /* \"#utility.yul\":8526:8573   */\n      mstore\n        /* \"#utility.yul\":8590:8668   */\n      tag_353\n        /* \"#utility.yul\":8663:8667   */\n      dup2\n        /* \"#utility.yul\":8654:8660   */\n      dup7\n        /* \"#utility.yul\":8590:8668   */\n      tag_213\n      jump\t// in\n    tag_353:\n        /* \"#utility.yul\":8582:8668   */\n      swap1\n      pop\n        /* \"#utility.yul\":8678:8750   */\n      tag_354\n        /* \"#utility.yul\":8746:8748   */\n      0x20\n        /* \"#utility.yul\":8735:8744   */\n      dup4\n        /* \"#utility.yul\":8731:8749   */\n      add\n        /* \"#utility.yul\":8722:8728   */\n      dup6\n        /* \"#utility.yul\":8678:8750   */\n      tag_214\n      jump\t// in\n    tag_354:\n        /* \"#utility.yul\":8760:8832   */\n      tag_355\n        /* \"#utility.yul\":8828:8830   */\n      0x40\n        /* \"#utility.yul\":8817:8826   */\n      dup4\n        /* \"#utility.yul\":8813:8831   */\n      add\n        /* \"#utility.yul\":8804:8810   */\n      dup5\n        /* \"#utility.yul\":8760:8832   */\n      tag_214\n      jump\t// in\n    tag_355:\n        /* \"#utility.yul\":8306:8839   */\n      swap5\n      swap4\n      pop\n      pop\n      pop\n      pop\n      jump\t// out\n        /* \"#utility.yul\":8845:9319   */\n    tag_56:\n        /* \"#utility.yul\":8913:8919   */\n      0x00\n        /* \"#utility.yul\":8921:8927   */\n      dup1\n        /* \"#utility.yul\":8970:8972   */\n      0x40\n        /* \"#utility.yul\":8958:8967   */\n      dup4\n        /* \"#utility.yul\":8949:8956   */\n      dup6\n        /* \"#utility.yul\":8945:8968   */\n      sub\n        /* \"#utility.yul\":8941:8973   */\n      slt\n        /* \"#utility.yul\":8938:9057   */\n      iszero\n      tag_357\n      jumpi\n        /* \"#utility.yul\":8976:9055   */\n      tag_358\n      tag_191\n      jump\t// in\n    tag_358:\n        /* \"#utility.yul\":8938:9057   */\n    tag_357:\n        /* \"#utility.yul\":9096:9097   */\n      0x00\n        /* \"#utility.yul\":9121:9174   */\n      tag_359\n        /* \"#utility.yul\":9166:9173   */\n      dup6\n        /* \"#utility.yul\":9157:9163   */\n      dup3\n        /* \"#utility.yul\":9146:9155   */\n      dup7\n        /* \"#utility.yul\":9142:9164   */\n      add\n        /* \"#utility.yul\":9121:9174   */\n      tag_199\n      jump\t// in\n    tag_359:\n        /* \"#utility.yul\":9111:9174   */\n      swap3\n      pop\n        /* \"#utility.yul\":9067:9184   */\n      pop\n        /* \"#utility.yul\":9223:9225   */\n      0x20\n        /* \"#utility.yul\":9249:9302   */\n      tag_360\n        /* \"#utility.yul\":9294:9301   */\n      dup6\n        /* \"#utility.yul\":9285:9291   */\n      dup3\n        /* \"#utility.yul\":9274:9283   */\n      dup7\n        /* \"#utility.yul\":9270:9292   */\n      add\n        /* \"#utility.yul\":9249:9302   */\n      tag_199\n      jump\t// in\n    tag_360:\n        /* \"#utility.yul\":9239:9302   */\n      swap2\n      pop\n        /* \"#utility.yul\":9194:9312   */\n      pop\n        /* \"#utility.yul\":8845:9319   */\n      swap3\n      pop\n      swap3\n      swap1\n      pop\n      jump\t// out\n        /* \"#utility.yul\":9325:9473   */\n    tag_215:\n        /* \"#utility.yul\":9427:9438   */\n      0x00\n        /* \"#utility.yul\":9464:9467   */\n      dup2\n        /* \"#utility.yul\":9449:9467   */\n      swap1\n      pop\n        /* \"#utility.yul\":9325:9473   */\n      swap3\n      swap2\n      pop\n      pop\n      jump\t// out\n        /* \"#utility.yul\":9479:9636   */\n    tag_216:\n        /* \"#utility.yul\":9619:9628   */\n      0x4f4e474f494e4700000000000000000000000000000000000000000000000000\n        /* \"#utility.yul\":9615:9616   */\n      0x00\n        /* \"#utility.yul\":9607:9613   */\n      dup3\n        /* \"#utility.yul\":9603:9617   */\n      add\n        /* \"#utility.yul\":9596:9629   */\n      mstore\n        /* \"#utility.yul\":9479:9636   */\n      pop\n      jump\t// out\n        /* \"#utility.yul\":9642:10042   */\n    tag_217:\n        /* \"#utility.yul\":9802:9805   */\n      0x00\n        /* \"#utility.yul\":9823:9907   */\n      tag_364\n        /* \"#utility.yul\":9905:9906   */\n      0x07\n        /* \"#utility.yul\":9900:9903   */\n      dup4\n        /* \"#utility.yul\":9823:9907   */\n      tag_215\n      jump\t// in\n    tag_364:\n        /* \"#utility.yul\":9816:9907   */\n      swap2\n      pop\n        /* \"#utility.yul\":9916:10009   */\n      tag_365\n        /* \"#utility.yul\":10005:10008   */\n      dup3\n        /* \"#utility.yul\":9916:10009   */\n      tag_216\n      jump\t// in\n    tag_365:\n        /* \"#utility.yul\":10034:10035   */\n      0x07\n        /* \"#utility.yul\":10029:10032   */\n      dup3\n        /* \"#utility.yul\":10025:10036   */\n      add\n        /* \"#utility.yul\":10018:10036   */\n      swap1\n      pop\n        /* \"#utility.yul\":9642:10042   */\n      swap2\n      swap1\n      pop\n      jump\t// out\n        /* \"#utility.yul\":10048:10429   */\n    tag_66:\n        /* \"#utility.yul\":10233:10236   */\n      0x00\n        /* \"#utility.yul\":10255:10403   */\n      tag_367\n        /* \"#utility.yul\":10399:10402   */\n      dup3\n        /* \"#utility.yul\":10255:10403   */\n      tag_217\n      jump\t// in\n    tag_367:\n        /* \"#utility.yul\":10248:10403   */\n      swap2\n      pop\n        /* \"#utility.yul\":10420:10423   */\n      dup2\n        /* \"#utility.yul\":10413:10423   */\n      swap1\n      pop\n        /* \"#utility.yul\":10048:10429   */\n      swap2\n      swap1\n      pop\n      jump\t// out\n        /* \"#utility.yul\":10435:10615   */\n    tag_218:\n        /* \"#utility.yul\":10483:10560   */\n      0x4e487b7100000000000000000000000000000000000000000000000000000000\n        /* \"#utility.yul\":10480:10481   */\n      0x00\n        /* \"#utility.yul\":10473:10561   */\n      mstore\n        /* \"#utility.yul\":10580:10584   */\n      0x22\n        /* \"#utility.yul\":10577:10578   */\n      0x04\n        /* \"#utility.yul\":10570:10585   */\n      mstore\n        /* \"#utility.yul\":10604:10608   */\n      0x24\n        /* \"#utility.yul\":10601:10602   */\n      0x00\n        /* \"#utility.yul\":10594:10609   */\n      revert\n        /* \"#utility.yul\":10621:10941   */\n    tag_121:\n        /* \"#utility.yul\":10665:10671   */\n      0x00\n        /* \"#utility.yul\":10702:10703   */\n      0x02\n        /* \"#utility.yul\":10696:10700   */\n      dup3\n        /* \"#utility.yul\":10692:10704   */\n      div\n        /* \"#utility.yul\":10682:10704   */\n      swap1\n      pop\n        /* \"#utility.yul\":10749:10750   */\n      0x01\n        /* \"#utility.yul\":10743:10747   */\n      dup3\n        /* \"#utility.yul\":10739:10751   */\n      and\n        /* \"#utility.yul\":10770:10788   */\n      dup1\n        /* \"#utility.yul\":10760:10841   */\n      tag_370\n      jumpi\n        /* \"#utility.yul\":10826:10830   */\n      0x7f\n        /* \"#utility.yul\":10818:10824   */\n      dup3\n        /* \"#utility.yul\":10814:10831   */\n      and\n        /* \"#utility.yul\":10804:10831   */\n      swap2\n      pop\n        /* \"#utility.yul\":10760:10841   */\n    tag_370:\n        /* \"#utility.yul\":10888:10890   */\n      0x20\n        /* \"#utility.yul\":10880:10886   */\n      dup3\n        /* \"#utility.yul\":10877:10891   */\n      lt\n        /* \"#utility.yul\":10857:10875   */\n      dup2\n        /* \"#utility.yul\":10854:10892   */\n      sub\n        /* \"#utility.yul\":10851:10935   */\n      tag_371\n      jumpi\n        /* \"#utility.yul\":10907:10925   */\n      tag_372\n      tag_218\n      jump\t// in\n    tag_372:\n        /* \"#utility.yul\":10851:10935   */\n    tag_371:\n        /* \"#utility.yul\":10672:10941   */\n      pop\n        /* \"#utility.yul\":10621:10941   */\n      swap2\n      swap1\n      pop\n      jump\t// out\n        /* \"#utility.yul\":10947:11088   */\n    tag_219:\n        /* \"#utility.yul\":10996:11000   */\n      0x00\n        /* \"#utility.yul\":11019:11022   */\n      dup2\n        /* \"#utility.yul\":11011:11022   */\n      swap1\n      pop\n        /* \"#utility.yul\":11042:11045   */\n      dup2\n        /* \"#utility.yul\":11039:11040   */\n      0x00\n        /* \"#utility.yul\":11032:11046   */\n      mstore\n        /* \"#utility.yul\":11076:11080   */\n      0x20\n        /* \"#utility.yul\":11073:11074   */\n      0x00\n        /* \"#utility.yul\":11063:11081   */\n      keccak256\n        /* \"#utility.yul\":11055:11081   */\n      swap1\n      pop\n        /* \"#utility.yul\":10947:11088   */\n      swap2\n      swap1\n      pop\n      jump\t// out\n        /* \"#utility.yul\":11118:11992   */\n    tag_220:\n        /* \"#utility.yul\":11221:11224   */\n      0x00\n        /* \"#utility.yul\":11258:11263   */\n      dup2\n        /* \"#utility.yul\":11252:11264   */\n      sload\n        /* \"#utility.yul\":11287:11323   */\n      tag_375\n        /* \"#utility.yul\":11313:11322   */\n      dup2\n        /* \"#utility.yul\":11287:11323   */\n      tag_121\n      jump\t// in\n    tag_375:\n        /* \"#utility.yul\":11339:11428   */\n      tag_376\n        /* \"#utility.yul\":11421:11427   */\n      dup2\n        /* \"#utility.yul\":11416:11419   */\n      dup7\n        /* \"#utility.yul\":11339:11428   */\n      tag_215\n      jump\t// in\n    tag_376:\n        /* \"#utility.yul\":11332:11428   */\n      swap5\n      pop\n        /* \"#utility.yul\":11459:11460   */\n      0x01\n        /* \"#utility.yul\":11448:11457   */\n      dup3\n        /* \"#utility.yul\":11444:11461   */\n      and\n        /* \"#utility.yul\":11475:11476   */\n      0x00\n        /* \"#utility.yul\":11470:11636   */\n      dup2\n      eq\n      tag_378\n      jumpi\n        /* \"#utility.yul\":11650:11651   */\n      0x01\n        /* \"#utility.yul\":11645:11986   */\n      dup2\n      eq\n      tag_379\n      jumpi\n        /* \"#utility.yul\":11437:11986   */\n      jump(tag_377)\n        /* \"#utility.yul\":11470:11636   */\n    tag_378:\n        /* \"#utility.yul\":11554:11558   */\n      0xff\n        /* \"#utility.yul\":11550:11559   */\n      not\n        /* \"#utility.yul\":11539:11548   */\n      dup4\n        /* \"#utility.yul\":11535:11560   */\n      and\n        /* \"#utility.yul\":11530:11533   */\n      dup7\n        /* \"#utility.yul\":11523:11561   */\n      mstore\n        /* \"#utility.yul\":11616:11622   */\n      dup2\n        /* \"#utility.yul\":11609:11623   */\n      iszero\n        /* \"#utility.yul\":11602:11624   */\n      iszero\n        /* \"#utility.yul\":11594:11600   */\n      dup3\n        /* \"#utility.yul\":11590:11625   */\n      mul\n        /* \"#utility.yul\":11585:11588   */\n      dup7\n        /* \"#utility.yul\":11581:11626   */\n      add\n        /* \"#utility.yul\":11574:11626   */\n      swap4\n      pop\n        /* \"#utility.yul\":11470:11636   */\n      jump(tag_377)\n        /* \"#utility.yul\":11645:11986   */\n    tag_379:\n        /* \"#utility.yul\":11712:11750   */\n      tag_380\n        /* \"#utility.yul\":11744:11749   */\n      dup6\n        /* \"#utility.yul\":11712:11750   */\n      tag_219\n      jump\t// in\n    tag_380:\n        /* \"#utility.yul\":11772:11773   */\n      0x00\n        /* \"#utility.yul\":11786:11940   */\n    tag_381:\n        /* \"#utility.yul\":11800:11806   */\n      dup4\n        /* \"#utility.yul\":11797:11798   */\n      dup2\n        /* \"#utility.yul\":11794:11807   */\n      lt\n        /* \"#utility.yul\":11786:11940   */\n      iszero\n      tag_383\n      jumpi\n        /* \"#utility.yul\":11874:11881   */\n      dup2\n        /* \"#utility.yul\":11868:11882   */\n      sload\n        /* \"#utility.yul\":11864:11865   */\n      dup2\n        /* \"#utility.yul\":11859:11862   */\n      dup10\n        /* \"#utility.yul\":11855:11866   */\n      add\n        /* \"#utility.yul\":11848:11883   */\n      mstore\n        /* \"#utility.yul\":11924:11925   */\n      0x01\n        /* \"#utility.yul\":11915:11922   */\n      dup3\n        /* \"#utility.yul\":11911:11926   */\n      add\n        /* \"#utility.yul\":11900:11926   */\n      swap2\n      pop\n        /* \"#utility.yul\":11822:11826   */\n      0x20\n        /* \"#utility.yul\":11819:11820   */\n      dup2\n        /* \"#utility.yul\":11815:11827   */\n      add\n        /* \"#utility.yul\":11810:11827   */\n      swap1\n      pop\n        /* \"#utility.yul\":11786:11940   */\n      jump(tag_381)\n    tag_383:\n        /* \"#utility.yul\":11969:11975   */\n      dup4\n        /* \"#utility.yul\":11964:11967   */\n      dup9\n        /* \"#utility.yul\":11960:11976   */\n      add\n        /* \"#utility.yul\":11953:11976   */\n      swap6\n      pop\n        /* \"#utility.yul\":11652:11986   */\n      pop\n      pop\n        /* \"#utility.yul\":11437:11986   */\n    tag_377:\n      pop\n        /* \"#utility.yul\":11225:11992   */\n      pop\n      pop\n        /* \"#utility.yul\":11118:11992   */\n      swap3\n      swap2\n      pop\n      pop\n      jump\t// out\n        /* \"#utility.yul\":11998:12267   */\n    tag_68:\n        /* \"#utility.yul\":12127:12130   */\n      0x00\n        /* \"#utility.yul\":12149:12241   */\n      tag_385\n        /* \"#utility.yul\":12237:12240   */\n      dup3\n        /* \"#utility.yul\":12228:12234   */\n      dup5\n        /* \"#utility.yul\":12149:12241   */\n      tag_220\n      jump\t// in\n    tag_385:\n        /* \"#utility.yul\":12142:12241   */\n      swap2\n      pop\n        /* \"#utility.yul\":12258:12261   */\n      dup2\n        /* \"#utility.yul\":12251:12261   */\n      swap1\n      pop\n        /* \"#utility.yul\":11998:12267   */\n      swap3\n      swap2\n      pop\n      pop\n      jump\t// out\n        /* \"#utility.yul\":12273:12498   */\n    tag_221:\n        /* \"#utility.yul\":12413:12447   */\n      0x766f746520616c726561647920636173746564206f7220766f74657220696e76\n        /* \"#utility.yul\":12409:12410   */\n      0x00\n        /* \"#utility.yul\":12401:12407   */\n      dup3\n        /* \"#utility.yul\":12397:12411   */\n      add\n        /* \"#utility.yul\":12390:12448   */\n      mstore\n        /* \"#utility.yul\":12482:12490   */\n      0x616c69642e200000000000000000000000000000000000000000000000000000\n        /* \"#utility.yul\":12477:12479   */\n      0x20\n        /* \"#utility.yul\":12469:12475   */\n      dup3\n        /* \"#utility.yul\":12465:12480   */\n      add\n        /* \"#utility.yul\":12458:12491   */\n      mstore\n        /* \"#utility.yul\":12273:12498   */\n      pop\n      jump\t// out\n        /* \"#utility.yul\":12504:12870   */\n    tag_222:\n        /* \"#utility.yul\":12646:12649   */\n      0x00\n        /* \"#utility.yul\":12667:12734   */\n      tag_388\n        /* \"#utility.yul\":12731:12733   */\n      0x26\n        /* \"#utility.yul\":12726:12729   */\n      dup4\n        /* \"#utility.yul\":12667:12734   */\n      tag_211\n      jump\t// in\n    tag_388:\n        /* \"#utility.yul\":12660:12734   */\n      swap2\n      pop\n        /* \"#utility.yul\":12743:12836   */\n      tag_389\n        /* \"#utility.yul\":12832:12835   */\n      dup3\n        /* \"#utility.yul\":12743:12836   */\n      tag_221\n      jump\t// in\n    tag_389:\n        /* \"#utility.yul\":12861:12863   */\n      0x40\n        /* \"#utility.yul\":12856:12859   */\n      dup3\n        /* \"#utility.yul\":12852:12864   */\n      add\n        /* \"#utility.yul\":12845:12864   */\n      swap1\n      pop\n        /* \"#utility.yul\":12504:12870   */\n      swap2\n      swap1\n      pop\n      jump\t// out\n        /* \"#utility.yul\":12876:13295   */\n    tag_73:\n        /* \"#utility.yul\":13042:13046   */\n      0x00\n        /* \"#utility.yul\":13080:13082   */\n      0x20\n        /* \"#utility.yul\":13069:13078   */\n      dup3\n        /* \"#utility.yul\":13065:13083   */\n      add\n        /* \"#utility.yul\":13057:13083   */\n      swap1\n      pop\n        /* \"#utility.yul\":13129:13138   */\n      dup2\n        /* \"#utility.yul\":13123:13127   */\n      dup2\n        /* \"#utility.yul\":13119:13139   */\n      sub\n        /* \"#utility.yul\":13115:13116   */\n      0x00\n        /* \"#utility.yul\":13104:13113   */\n      dup4\n        /* \"#utility.yul\":13100:13117   */\n      add\n        /* \"#utility.yul\":13093:13140   */\n      mstore\n        /* \"#utility.yul\":13157:13288   */\n      tag_391\n        /* \"#utility.yul\":13283:13287   */\n      dup2\n        /* \"#utility.yul\":13157:13288   */\n      tag_222\n      jump\t// in\n    tag_391:\n        /* \"#utility.yul\":13149:13288   */\n      swap1\n      pop\n        /* \"#utility.yul\":12876:13295   */\n      swap2\n      swap1\n      pop\n      jump\t// out\n        /* \"#utility.yul\":13301:13481   */\n    tag_223:\n        /* \"#utility.yul\":13349:13426   */\n      0x4e487b7100000000000000000000000000000000000000000000000000000000\n        /* \"#utility.yul\":13346:13347   */\n      0x00\n        /* \"#utility.yul\":13339:13427   */\n      mstore\n        /* \"#utility.yul\":13446:13450   */\n      0x11\n        /* \"#utility.yul\":13443:13444   */\n      0x04\n        /* \"#utility.yul\":13436:13451   */\n      mstore\n        /* \"#utility.yul\":13470:13474   */\n      0x24\n        /* \"#utility.yul\":13467:13468   */\n      0x00\n        /* \"#utility.yul\":13460:13475   */\n      revert\n        /* \"#utility.yul\":13487:13720   */\n    tag_76:\n        /* \"#utility.yul\":13526:13529   */\n      0x00\n        /* \"#utility.yul\":13549:13573   */\n      tag_394\n        /* \"#utility.yul\":13567:13572   */\n      dup3\n        /* \"#utility.yul\":13549:13573   */\n      tag_193\n      jump\t// in\n    tag_394:\n        /* \"#utility.yul\":13540:13573   */\n      swap2\n      pop\n        /* \"#utility.yul\":13595:13661   */\n      0xffffffffffffffffffffffffffffffffffffffffffffffffffffffffffffffff\n        /* \"#utility.yul\":13588:13593   */\n      dup3\n        /* \"#utility.yul\":13585:13662   */\n      sub\n        /* \"#utility.yul\":13582:13685   */\n      tag_395\n      jumpi\n        /* \"#utility.yul\":13665:13683   */\n      tag_396\n      tag_223\n      jump\t// in\n    tag_396:\n        /* \"#utility.yul\":13582:13685   */\n    tag_395:\n        /* \"#utility.yul\":13712:13713   */\n      0x01\n        /* \"#utility.yul\":13705:13710   */\n      dup3\n        /* \"#utility.yul\":13701:13714   */\n      add\n        /* \"#utility.yul\":13694:13714   */\n      swap1\n      pop\n        /* \"#utility.yul\":13487:13720   */\n      swap2\n      swap1\n      pop\n      jump\t// out\n        /* \"#utility.yul\":13726:13887   */\n    tag_224:\n        /* \"#utility.yul\":13866:13879   */\n      0x4e4f542053544152544544000000000000000000000000000000000000000000\n        /* \"#utility.yul\":13862:13863   */\n      0x00\n        /* \"#utility.yul\":13854:13860   */\n      dup3\n        /* \"#utility.yul\":13850:13864   */\n      add\n        /* \"#utility.yul\":13843:13880   */\n      mstore\n        /* \"#utility.yul\":13726:13887   */\n      pop\n      jump\t// out\n        /* \"#utility.yul\":13893:14295   */\n    tag_225:\n        /* \"#utility.yul\":14053:14056   */\n      0x00\n        /* \"#utility.yul\":14074:14159   */\n      tag_399\n        /* \"#utility.yul\":14156:14158   */\n      0x0b\n        /* \"#utility.yul\":14151:14154   */\n      dup4\n        /* \"#utility.yul\":14074:14159   */\n      tag_215\n      jump\t// in\n    tag_399:\n        /* \"#utility.yul\":14067:14159   */\n      swap2\n      pop\n        /* \"#utility.yul\":14168:14261   */\n      tag_400\n        /* \"#utility.yul\":14257:14260   */\n      dup3\n        /* \"#utility.yul\":14168:14261   */\n      tag_224\n      jump\t// in\n    tag_400:\n        /* \"#utility.yul\":14286:14288   */\n      0x0b\n        /* \"#utility.yul\":14281:14284   */\n      dup3\n        /* \"#utility.yul\":14277:14289   */\n      add\n        /* \"#utility.yul\":14270:14289   */\n      swap1\n      pop\n        /* \"#utility.yul\":13893:14295   */\n      swap2\n      swap1\n      pop\n      jump\t// out\n        /* \"#utility.yul\":14301:14682   */\n    tag_81:\n        /* \"#utility.yul\":14486:14489   */\n      0x00\n        /* \"#utility.yul\":14508:14656   */\n      tag_402\n        /* \"#utility.yul\":14652:14655   */\n      dup3\n        /* \"#utility.yul\":14508:14656   */\n      tag_225\n      jump\t// in\n    tag_402:\n        /* \"#utility.yul\":14501:14656   */\n      swap2\n      pop\n        /* \"#utility.yul\":14673:14676   */\n      dup2\n        /* \"#utility.yul\":14666:14676   */\n      swap1\n      pop\n        /* \"#utility.yul\":14301:14682   */\n      swap2\n      swap1\n      pop\n      jump\t// out\n        /* \"#utility.yul\":14688:14858   */\n    tag_226:\n        /* \"#utility.yul\":14828:14850   */\n      0x456c656374696f6e206e6f742053746172746564000000000000000000000000\n        /* \"#utility.yul\":14824:14825   */\n      0x00\n        /* \"#utility.yul\":14816:14822   */\n      dup3\n        /* \"#utility.yul\":14812:14826   */\n      add\n        /* \"#utility.yul\":14805:14851   */\n      mstore\n        /* \"#utility.yul\":14688:14858   */\n      pop\n      jump\t// out\n        /* \"#utility.yul\":14864:15230   */\n    tag_227:\n        /* \"#utility.yul\":15006:15009   */\n      0x00\n        /* \"#utility.yul\":15027:15094   */\n      tag_405\n        /* \"#utility.yul\":15091:15093   */\n      0x14\n        /* \"#utility.yul\":15086:15089   */\n      dup4\n        /* \"#utility.yul\":15027:15094   */\n      tag_211\n      jump\t// in\n    tag_405:\n        /* \"#utility.yul\":15020:15094   */\n      swap2\n      pop\n        /* \"#utility.yul\":15103:15196   */\n      tag_406\n        /* \"#utility.yul\":15192:15195   */\n      dup3\n        /* \"#utility.yul\":15103:15196   */\n      tag_226\n      jump\t// in\n    tag_406:\n        /* \"#utility.yul\":15221:15223   */\n      0x20\n        /* \"#utility.yul\":15216:15219   */\n      dup3\n        /* \"#utility.yul\":15212:15224   */\n      add\n        /* \"#utility.yul\":15205:15224   */\n      swap1\n      pop\n        /* \"#utility.yul\":14864:15230   */\n      swap2\n      swap1\n      pop\n      jump\t// out\n        /* \"#utility.yul\":15236:15655   */\n    tag_85:\n        /* \"#utility.yul\":15402:15406   */\n      0x00\n        /* \"#utility.yul\":15440:15442   */\n      0x20\n        /* \"#utility.yul\":15429:15438   */\n      dup3\n        /* \"#utility.yul\":15425:15443   */\n      add\n        /* \"#utility.yul\":15417:15443   */\n      swap1\n      pop\n        /* \"#utility.yul\":15489:15498   */\n      dup2\n        /* \"#utility.yul\":15483:15487   */\n      dup2\n        /* \"#utility.yul\":15479:15499   */\n      sub\n        /* \"#utility.yul\":15475:15476   */\n      0x00\n        /* \"#utility.yul\":15464:15473   */\n      dup4\n        /* \"#utility.yul\":15460:15477   */\n      add\n        /* \"#utility.yul\":15453:15500   */\n      mstore\n        /* \"#utility.yul\":15517:15648   */\n      tag_408\n        /* \"#utility.yul\":15643:15647   */\n      dup2\n        /* \"#utility.yul\":15517:15648   */\n      tag_227\n      jump\t// in\n    tag_408:\n        /* \"#utility.yul\":15509:15648   */\n      swap1\n      pop\n        /* \"#utility.yul\":15236:15655   */\n      swap2\n      swap1\n      pop\n      jump\t// out\n        /* \"#utility.yul\":15661:15816   */\n    tag_228:\n        /* \"#utility.yul\":15801:15808   */\n      0x454e444544000000000000000000000000000000000000000000000000000000\n        /* \"#utility.yul\":15797:15798   */\n      0x00\n        /* \"#utility.yul\":15789:15795   */\n      dup3\n        /* \"#utility.yul\":15785:15799   */\n      add\n        /* \"#utility.yul\":15778:15809   */\n      mstore\n        /* \"#utility.yul\":15661:15816   */\n      pop\n      jump\t// out\n        /* \"#utility.yul\":15822:16222   */\n    tag_229:\n        /* \"#utility.yul\":15982:15985   */\n      0x00\n        /* \"#utility.yul\":16003:16087   */\n      tag_411\n        /* \"#utility.yul\":16085:16086   */\n      0x05\n        /* \"#utility.yul\":16080:16083   */\n      dup4\n        /* \"#utility.yul\":16003:16087   */\n      tag_215\n      jump\t// in\n    tag_411:\n        /* \"#utility.yul\":15996:16087   */\n      swap2\n      pop\n        /* \"#utility.yul\":16096:16189   */\n      tag_412\n        /* \"#utility.yul\":16185:16188   */\n      dup3\n        /* \"#utility.yul\":16096:16189   */\n      tag_228\n      jump\t// in\n    tag_412:\n        /* \"#utility.yul\":16214:16215   */\n      0x05\n        /* \"#utility.yul\":16209:16212   */\n      dup3\n        /* \"#utility.yul\":16205:16216   */\n      add\n        /* \"#utility.yul\":16198:16216   */\n      swap1\n      pop\n        /* \"#utility.yul\":15822:16222   */\n      swap2\n      swap1\n      pop\n      jump\t// out\n        /* \"#utility.yul\":16228:16609   */\n    tag_88:\n        /* \"#utility.yul\":16413:16416   */\n      0x00\n        /* \"#utility.yul\":16435:16583   */\n      tag_414\n        /* \"#utility.yul\":16579:16582   */\n      dup3\n        /* \"#utility.yul\":16435:16583   */\n      tag_229\n      jump\t// in\n    tag_414:\n        /* \"#utility.yul\":16428:16583   */\n      swap2\n      pop\n        /* \"#utility.yul\":16600:16603   */\n      dup2\n        /* \"#utility.yul\":16593:16603   */\n      swap1\n      pop\n        /* \"#utility.yul\":16228:16609   */\n      swap2\n      swap1\n      pop\n      jump\t// out\n        /* \"#utility.yul\":16615:16779   */\n    tag_230:\n        /* \"#utility.yul\":16755:16771   */\n      0x456c656374696f6e20456e646564000000000000000000000000000000000000\n        /* \"#utility.yul\":16751:16752   */\n      0x00\n        /* \"#utility.yul\":16743:16749   */\n      dup3\n        /* \"#utility.yul\":16739:16753   */\n      add\n        /* \"#utility.yul\":16732:16772   */\n      mstore\n        /* \"#utility.yul\":16615:16779   */\n      pop\n      jump\t// out\n        /* \"#utility.yul\":16785:17151   */\n    tag_231:\n        /* \"#utility.yul\":16927:16930   */\n      0x00\n        /* \"#utility.yul\":16948:17015   */\n      tag_417\n        /* \"#utility.yul\":17012:17014   */\n      0x0e\n        /* \"#utility.yul\":17007:17010   */\n      dup4\n        /* \"#utility.yul\":16948:17015   */\n      tag_211\n      jump\t// in\n    tag_417:\n        /* \"#utility.yul\":16941:17015   */\n      swap2\n      pop\n        /* \"#utility.yul\":17024:17117   */\n      tag_418\n        /* \"#utility.yul\":17113:17116   */\n      dup3\n        /* \"#utility.yul\":17024:17117   */\n      tag_230\n      jump\t// in\n    tag_418:\n        /* \"#utility.yul\":17142:17144   */\n      0x20\n        /* \"#utility.yul\":17137:17140   */\n      dup3\n        /* \"#utility.yul\":17133:17145   */\n      add\n        /* \"#utility.yul\":17126:17145   */\n      swap1\n      pop\n        /* \"#utility.yul\":16785:17151   */\n      swap2\n      swap1\n      pop\n      jump\t// out\n        /* \"#utility.yul\":17157:17576   */\n    tag_92:\n        /* \"#utility.yul\":17323:17327   */\n      0x00\n        /* \"#utility.yul\":17361:17363   */\n      0x20\n        /* \"#utility.yul\":17350:17359   */\n      dup3\n        /* \"#utility.yul\":17346:17364   */\n      add\n        /* \"#utility.yul\":17338:17364   */\n      swap1\n      pop\n        /* \"#utility.yul\":17410:17419   */\n      dup2\n        /* \"#utility.yul\":17404:17408   */\n      dup2\n        /* \"#utility.yul\":17400:17420   */\n      sub\n        /* \"#utility.yul\":17396:17397   */\n      0x00\n        /* \"#utility.yul\":17385:17394   */\n      dup4\n        /* \"#utility.yul\":17381:17398   */\n      add\n        /* \"#utility.yul\":17374:17421   */\n      mstore\n        /* \"#utility.yul\":17438:17569   */\n      tag_420\n        /* \"#utility.yul\":17564:17568   */\n      dup2\n        /* \"#utility.yul\":17438:17569   */\n      tag_231\n      jump\t// in\n    tag_420:\n        /* \"#utility.yul\":17430:17569   */\n      swap1\n      pop\n        /* \"#utility.yul\":17157:17576   */\n      swap2\n      swap1\n      pop\n      jump\t// out\n        /* \"#utility.yul\":17582:17752   */\n    tag_232:\n        /* \"#utility.yul\":17722:17744   */\n      0x456c656374696f6e2068617320656e6465642e20000000000000000000000000\n        /* \"#utility.yul\":17718:17719   */\n      0x00\n        /* \"#utility.yul\":17710:17716   */\n      dup3\n        /* \"#utility.yul\":17706:17720   */\n      add\n        /* \"#utility.yul\":17699:17745   */\n      mstore\n        /* \"#utility.yul\":17582:17752   */\n      pop\n      jump\t// out\n        /* \"#utility.yul\":17758:18124   */\n    tag_233:\n        /* \"#utility.yul\":17900:17903   */\n      0x00\n        /* \"#utility.yul\":17921:17988   */\n      tag_423\n        /* \"#utility.yul\":17985:17987   */\n      0x14\n        /* \"#utility.yul\":17980:17983   */\n      dup4\n        /* \"#utility.yul\":17921:17988   */\n      tag_211\n      jump\t// in\n    tag_423:\n        /* \"#utility.yul\":17914:17988   */\n      swap2\n      pop\n        /* \"#utility.yul\":17997:18090   */\n      tag_424\n        /* \"#utility.yul\":18086:18089   */\n      dup3\n        /* \"#utility.yul\":17997:18090   */\n      tag_232\n      jump\t// in\n    tag_424:\n        /* \"#utility.yul\":18115:18117   */\n      0x20\n        /* \"#utility.yul\":18110:18113   */\n      dup3\n        /* \"#utility.yul\":18106:18118   */\n      add\n        /* \"#utility.yul\":18099:18118   */\n      swap1\n      pop\n        /* \"#utility.yul\":17758:18124   */\n      swap2\n      swap1\n      pop\n      jump\t// out\n        /* \"#utility.yul\":18130:18549   */\n    tag_98:\n        /* \"#utility.yul\":18296:18300   */\n      0x00\n        /* \"#utility.yul\":18334:18336   */\n      0x20\n        /* \"#utility.yul\":18323:18332   */\n      dup3\n        /* \"#utility.yul\":18319:18337   */\n      add\n        /* \"#utility.yul\":18311:18337   */\n      swap1\n      pop\n        /* \"#utility.yul\":18383:18392   */\n      dup2\n        /* \"#utility.yul\":18377:18381   */\n      dup2\n        /* \"#utility.yul\":18373:18393   */\n      sub\n        /* \"#utility.yul\":18369:18370   */\n      0x00\n        /* \"#utility.yul\":18358:18367   */\n      dup4\n        /* \"#utility.yul\":18354:18371   */\n      add\n        /* \"#utility.yul\":18347:18394   */\n      mstore\n        /* \"#utility.yul\":18411:18542   */\n      tag_426\n        /* \"#utility.yul\":18537:18541   */\n      dup2\n        /* \"#utility.yul\":18411:18542   */\n      tag_233\n      jump\t// in\n    tag_426:\n        /* \"#utility.yul\":18403:18542   */\n      swap1\n      pop\n        /* \"#utility.yul\":18130:18549   */\n      swap2\n      swap1\n      pop\n      jump\t// out\n        /* \"#utility.yul\":18555:18648   */\n    tag_234:\n        /* \"#utility.yul\":18592:18598   */\n      0x00\n        /* \"#utility.yul\":18639:18641   */\n      0x20\n        /* \"#utility.yul\":18634:18636   */\n      0x1f\n        /* \"#utility.yul\":18627:18632   */\n      dup4\n        /* \"#utility.yul\":18623:18637   */\n      add\n        /* \"#utility.yul\":18619:18642   */\n      div\n        /* \"#utility.yul\":18609:18642   */\n      swap1\n      pop\n        /* \"#utility.yul\":18555:18648   */\n      swap2\n      swap1\n      pop\n      jump\t// out\n        /* \"#utility.yul\":18654:18761   */\n    tag_235:\n        /* \"#utility.yul\":18698:18706   */\n      0x00\n        /* \"#utility.yul\":18748:18753   */\n      dup3\n        /* \"#utility.yul\":18742:18746   */\n      dup3\n        /* \"#utility.yul\":18738:18754   */\n      shl\n        /* \"#utility.yul\":18717:18754   */\n      swap1\n      pop\n        /* \"#utility.yul\":18654:18761   */\n      swap3\n      swap2\n      pop\n      pop\n      jump\t// out\n        /* \"#utility.yul\":18767:19160   */\n    tag_236:\n        /* \"#utility.yul\":18836:18842   */\n      0x00\n        /* \"#utility.yul\":18886:18887   */\n      0x08\n        /* \"#utility.yul\":18874:18884   */\n      dup4\n        /* \"#utility.yul\":18870:18888   */\n      mul\n        /* \"#utility.yul\":18909:19006   */\n      tag_430\n        /* \"#utility.yul\":18939:19005   */\n      0xffffffffffffffffffffffffffffffffffffffffffffffffffffffffffffffff\n        /* \"#utility.yul\":18928:18937   */\n      dup3\n        /* \"#utility.yul\":18909:19006   */\n      tag_235\n      jump\t// in\n    tag_430:\n        /* \"#utility.yul\":19027:19066   */\n      tag_431\n        /* \"#utility.yul\":19057:19065   */\n      dup7\n        /* \"#utility.yul\":19046:19055   */\n      dup4\n        /* \"#utility.yul\":19027:19066   */\n      tag_235\n      jump\t// in\n    tag_431:\n        /* \"#utility.yul\":19015:19066   */\n      swap6\n      pop\n        /* \"#utility.yul\":19099:19103   */\n      dup1\n        /* \"#utility.yul\":19095:19104   */\n      not\n        /* \"#utility.yul\":19088:19093   */\n      dup5\n        /* \"#utility.yul\":19084:19105   */\n      and\n        /* \"#utility.yul\":19075:19105   */\n      swap4\n      pop\n        /* \"#utility.yul\":19148:19152   */\n      dup1\n        /* \"#utility.yul\":19138:19146   */\n      dup7\n        /* \"#utility.yul\":19134:19153   */\n      and\n        /* \"#utility.yul\":19127:19132   */\n      dup5\n        /* \"#utility.yul\":19124:19154   */\n      or\n        /* \"#utility.yul\":19114:19154   */\n      swap3\n      pop\n        /* \"#utility.yul\":18843:19160   */\n      pop\n      pop\n        /* \"#utility.yul\":18767:19160   */\n      swap4\n      swap3\n      pop\n      pop\n      pop\n      jump\t// out\n        /* \"#utility.yul\":19166:19226   */\n    tag_237:\n        /* \"#utility.yul\":19194:19197   */\n      0x00\n        /* \"#utility.yul\":19215:19220   */\n      dup2\n        /* \"#utility.yul\":19208:19220   */\n      swap1\n      pop\n        /* \"#utility.yul\":19166:19226   */\n      swap2\n      swap1\n      pop\n      jump\t// out\n        /* \"#utility.yul\":19232:19374   */\n    tag_238:\n        /* \"#utility.yul\":19282:19291   */\n      0x00\n        /* \"#utility.yul\":19315:19368   */\n      tag_434\n        /* \"#utility.yul\":19333:19367   */\n      tag_435\n        /* \"#utility.yul\":19342:19366   */\n      tag_436\n        /* \"#utility.yul\":19360:19365   */\n      dup5\n        /* \"#utility.yul\":19342:19366   */\n      tag_193\n      jump\t// in\n    tag_436:\n        /* \"#utility.yul\":19333:19367   */\n      tag_237\n      jump\t// in\n    tag_435:\n        /* \"#utility.yul\":19315:19368   */\n      tag_193\n      jump\t// in\n    tag_434:\n        /* \"#utility.yul\":19302:19368   */\n      swap1\n      pop\n        /* \"#utility.yul\":19232:19374   */\n      swap2\n      swap1\n      pop\n      jump\t// out\n        /* \"#utility.yul\":19380:19455   */\n    tag_239:\n        /* \"#utility.yul\":19423:19426   */\n      0x00\n        /* \"#utility.yul\":19444:19449   */\n      dup2\n        /* \"#utility.yul\":19437:19449   */\n      swap1\n      pop\n        /* \"#utility.yul\":19380:19455   */\n      swap2\n      swap1\n      pop\n      jump\t// out\n        /* \"#utility.yul\":19461:19730   */\n    tag_240:\n        /* \"#utility.yul\":19571:19610   */\n      tag_439\n        /* \"#utility.yul\":19602:19609   */\n      dup4\n        /* \"#utility.yul\":19571:19610   */\n      tag_238\n      jump\t// in\n    tag_439:\n        /* \"#utility.yul\":19632:19723   */\n      tag_440\n        /* \"#utility.yul\":19681:19722   */\n      tag_441\n        /* \"#utility.yul\":19705:19721   */\n      dup3\n        /* \"#utility.yul\":19681:19722   */\n      tag_239\n      jump\t// in\n    tag_441:\n        /* \"#utility.yul\":19673:19679   */\n      dup5\n        /* \"#utility.yul\":19666:19670   */\n      dup5\n        /* \"#utility.yul\":19660:19671   */\n      sload\n        /* \"#utility.yul\":19632:19723   */\n      tag_236\n      jump\t// in\n    tag_440:\n        /* \"#utility.yul\":19626:19630   */\n      dup3\n        /* \"#utility.yul\":19619:19724   */\n      sstore\n        /* \"#utility.yul\":19537:19730   */\n      pop\n        /* \"#utility.yul\":19461:19730   */\n      pop\n      pop\n      pop\n      jump\t// out\n        /* \"#utility.yul\":19736:19809   */\n    tag_241:\n        /* \"#utility.yul\":19781:19784   */\n      0x00\n        /* \"#utility.yul\":19736:19809   */\n      swap1\n      jump\t// out\n        /* \"#utility.yul\":19815:20004   */\n    tag_242:\n        /* \"#utility.yul\":19892:19924   */\n      tag_444\n      tag_241\n      jump\t// in\n    tag_444:\n        /* \"#utility.yul\":19933:19998   */\n      tag_445\n        /* \"#utility.yul\":19991:19997   */\n      dup2\n        /* \"#utility.yul\":19983:19989   */\n      dup5\n        /* \"#utility.yul\":19977:19981   */\n      dup5\n        /* \"#utility.yul\":19933:19998   */\n      tag_240\n      jump\t// in\n    tag_445:\n        /* \"#utility.yul\":19868:20004   */\n      pop\n        /* \"#utility.yul\":19815:20004   */\n      pop\n      pop\n      jump\t// out\n        /* \"#utility.yul\":20010:20196   */\n    tag_243:\n        /* \"#utility.yul\":20070:20190   */\n    tag_447:\n        /* \"#utility.yul\":20087:20090   */\n      dup2\n        /* \"#utility.yul\":20080:20085   */\n      dup2\n        /* \"#utility.yul\":20077:20091   */\n      lt\n        /* \"#utility.yul\":20070:20190   */\n      iszero\n      tag_449\n      jumpi\n        /* \"#utility.yul\":20141:20180   */\n      tag_450\n        /* \"#utility.yul\":20178:20179   */\n      0x00\n        /* \"#utility.yul\":20171:20176   */\n      dup3\n        /* \"#utility.yul\":20141:20180   */\n      tag_242\n      jump\t// in\n    tag_450:\n        /* \"#utility.yul\":20114:20115   */\n      0x01\n        /* \"#utility.yul\":20107:20112   */\n      dup2\n        /* \"#utility.yul\":20103:20116   */\n      add\n        /* \"#utility.yul\":20094:20116   */\n      swap1\n      pop\n        /* \"#utility.yul\":20070:20190   */\n      jump(tag_447)\n    tag_449:\n        /* \"#utility.yul\":20010:20196   */\n      pop\n      pop\n      jump\t// out\n        /* \"#utility.yul\":20202:20745   */\n    tag_244:\n        /* \"#utility.yul\":20303:20305   */\n      0x1f\n        /* \"#utility.yul\":20298:20301   */\n      dup3\n        /* \"#utility.yul\":20295:20306   */\n      gt\n        /* \"#utility.yul\":20292:20738   */\n      iszero\n      tag_452\n      jumpi\n        /* \"#utility.yul\":20337:20375   */\n      tag_453\n        /* \"#utility.yul\":20369:20374   */\n      dup2\n        /* \"#utility.yul\":20337:20375   */\n      tag_219\n      jump\t// in\n    tag_453:\n        /* \"#utility.yul\":20421:20450   */\n      tag_454\n        /* \"#utility.yul\":20439:20449   */\n      dup5\n        /* \"#utility.yul\":20421:20450   */\n      tag_234\n      jump\t// in\n    tag_454:\n        /* \"#utility.yul\":20411:20419   */\n      dup2\n        /* \"#utility.yul\":20407:20451   */\n      add\n        /* \"#utility.yul\":20604:20606   */\n      0x20\n        /* \"#utility.yul\":20592:20602   */\n      dup6\n        /* \"#utility.yul\":20589:20607   */\n      lt\n        /* \"#utility.yul\":20586:20635   */\n      iszero\n      tag_455\n      jumpi\n        /* \"#utility.yul\":20625:20633   */\n      dup2\n        /* \"#utility.yul\":20610:20633   */\n      swap1\n      pop\n        /* \"#utility.yul\":20586:20635   */\n    tag_455:\n        /* \"#utility.yul\":20648:20728   */\n      tag_456\n        /* \"#utility.yul\":20704:20726   */\n      tag_457\n        /* \"#utility.yul\":20722:20725   */\n      dup6\n        /* \"#utility.yul\":20704:20726   */\n      tag_234\n      jump\t// in\n    tag_457:\n        /* \"#utility.yul\":20694:20702   */\n      dup4\n        /* \"#utility.yul\":20690:20727   */\n      add\n        /* \"#utility.yul\":20677:20688   */\n      dup3\n        /* \"#utility.yul\":20648:20728   */\n      tag_243\n      jump\t// in\n    tag_456:\n        /* \"#utility.yul\":20307:20738   */\n      pop\n      pop\n        /* \"#utility.yul\":20292:20738   */\n    tag_452:\n        /* \"#utility.yul\":20202:20745   */\n      pop\n      pop\n      pop\n      jump\t// out\n        /* \"#utility.yul\":20751:20868   */\n    tag_245:\n        /* \"#utility.yul\":20805:20813   */\n      0x00\n        /* \"#utility.yul\":20855:20860   */\n      dup3\n        /* \"#utility.yul\":20849:20853   */\n      dup3\n        /* \"#utility.yul\":20845:20861   */\n      shr\n        /* \"#utility.yul\":20824:20861   */\n      swap1\n      pop\n        /* \"#utility.yul\":20751:20868   */\n      swap3\n      swap2\n      pop\n      pop\n      jump\t// out\n        /* \"#utility.yul\":20874:21043   */\n    tag_246:\n        /* \"#utility.yul\":20918:20924   */\n      0x00\n        /* \"#utility.yul\":20951:21002   */\n      tag_460\n        /* \"#utility.yul\":20999:21000   */\n      0x00\n        /* \"#utility.yul\":20995:21001   */\n      not\n        /* \"#utility.yul\":20987:20992   */\n      dup5\n        /* \"#utility.yul\":20984:20985   */\n      0x08\n        /* \"#utility.yul\":20980:20993   */\n      mul\n        /* \"#utility.yul\":20951:21002   */\n      tag_245\n      jump\t// in\n    tag_460:\n        /* \"#utility.yul\":20947:21003   */\n      not\n        /* \"#utility.yul\":21032:21036   */\n      dup1\n        /* \"#utility.yul\":21026:21030   */\n      dup4\n        /* \"#utility.yul\":21022:21037   */\n      and\n        /* \"#utility.yul\":21012:21037   */\n      swap2\n      pop\n        /* \"#utility.yul\":20925:21043   */\n      pop\n        /* \"#utility.yul\":20874:21043   */\n      swap3\n      swap2\n      pop\n      pop\n      jump\t// out\n        /* \"#utility.yul\":21048:21343   */\n    tag_247:\n        /* \"#utility.yul\":21124:21128   */\n      0x00\n        /* \"#utility.yul\":21270:21299   */\n      tag_462\n        /* \"#utility.yul\":21295:21298   */\n      dup4\n        /* \"#utility.yul\":21289:21293   */\n      dup4\n        /* \"#utility.yul\":21270:21299   */\n      tag_246\n      jump\t// in\n    tag_462:\n        /* \"#utility.yul\":21262:21299   */\n      swap2\n      pop\n        /* \"#utility.yul\":21332:21335   */\n      dup3\n        /* \"#utility.yul\":21329:21330   */\n      0x02\n        /* \"#utility.yul\":21325:21336   */\n      mul\n        /* \"#utility.yul\":21319:21323   */\n      dup3\n        /* \"#utility.yul\":21316:21337   */\n      or\n        /* \"#utility.yul\":21308:21337   */\n      swap1\n      pop\n        /* \"#utility.yul\":21048:21343   */\n      swap3\n      swap2\n      pop\n      pop\n      jump\t// out\n        /* \"#utility.yul\":21348:22743   */\n    tag_105:\n        /* \"#utility.yul\":21465:21502   */\n      tag_464\n        /* \"#utility.yul\":21498:21501   */\n      dup3\n        /* \"#utility.yul\":21465:21502   */\n      tag_210\n      jump\t// in\n    tag_464:\n        /* \"#utility.yul\":21567:21585   */\n      0xffffffffffffffff\n        /* \"#utility.yul\":21559:21565   */\n      dup2\n        /* \"#utility.yul\":21556:21586   */\n      gt\n        /* \"#utility.yul\":21553:21609   */\n      iszero\n      tag_465\n      jumpi\n        /* \"#utility.yul\":21589:21607   */\n      tag_466\n      tag_203\n      jump\t// in\n    tag_466:\n        /* \"#utility.yul\":21553:21609   */\n    tag_465:\n        /* \"#utility.yul\":21633:21671   */\n      tag_467\n        /* \"#utility.yul\":21665:21669   */\n      dup3\n        /* \"#utility.yul\":21659:21670   */\n      sload\n        /* \"#utility.yul\":21633:21671   */\n      tag_121\n      jump\t// in\n    tag_467:\n        /* \"#utility.yul\":21718:21785   */\n      tag_468\n        /* \"#utility.yul\":21778:21784   */\n      dup3\n        /* \"#utility.yul\":21770:21776   */\n      dup3\n        /* \"#utility.yul\":21764:21768   */\n      dup6\n        /* \"#utility.yul\":21718:21785   */\n      tag_244\n      jump\t// in\n    tag_468:\n        /* \"#utility.yul\":21812:21813   */\n      0x00\n        /* \"#utility.yul\":21836:21840   */\n      0x20\n        /* \"#utility.yul\":21823:21840   */\n      swap1\n      pop\n        /* \"#utility.yul\":21868:21870   */\n      0x1f\n        /* \"#utility.yul\":21860:21866   */\n      dup4\n        /* \"#utility.yul\":21857:21871   */\n      gt\n        /* \"#utility.yul\":21885:21886   */\n      0x01\n        /* \"#utility.yul\":21880:22498   */\n      dup2\n      eq\n      tag_470\n      jumpi\n        /* \"#utility.yul\":22542:22543   */\n      0x00\n        /* \"#utility.yul\":22559:22565   */\n      dup5\n        /* \"#utility.yul\":22556:22633   */\n      iszero\n      tag_471\n      jumpi\n        /* \"#utility.yul\":22608:22617   */\n      dup3\n        /* \"#utility.yul\":22603:22606   */\n      dup8\n        /* \"#utility.yul\":22599:22618   */\n      add\n        /* \"#utility.yul\":22593:22619   */\n      mload\n        /* \"#utility.yul\":22584:22619   */\n      swap1\n      pop\n        /* \"#utility.yul\":22556:22633   */\n    tag_471:\n        /* \"#utility.yul\":22659:22726   */\n      tag_472\n        /* \"#utility.yul\":22719:22725   */\n      dup6\n        /* \"#utility.yul\":22712:22717   */\n      dup3\n        /* \"#utility.yul\":22659:22726   */\n      tag_247\n      jump\t// in\n    tag_472:\n        /* \"#utility.yul\":22653:22657   */\n      dup7\n        /* \"#utility.yul\":22646:22727   */\n      sstore\n        /* \"#utility.yul\":22515:22737   */\n      pop\n        /* \"#utility.yul\":21850:22737   */\n      jump(tag_469)\n        /* \"#utility.yul\":21880:22498   */\n    tag_470:\n        /* \"#utility.yul\":21932:21936   */\n      0x1f\n        /* \"#utility.yul\":21928:21937   */\n      not\n        /* \"#utility.yul\":21920:21926   */\n      dup5\n        /* \"#utility.yul\":21916:21938   */\n      and\n        /* \"#utility.yul\":21966:22003   */\n      tag_473\n        /* \"#utility.yul\":21998:22002   */\n      dup7\n        /* \"#utility.yul\":21966:22003   */\n      tag_219\n      jump\t// in\n    tag_473:\n        /* \"#utility.yul\":22025:22026   */\n      0x00\n        /* \"#utility.yul\":22039:22247   */\n    tag_474:\n        /* \"#utility.yul\":22053:22060   */\n      dup3\n        /* \"#utility.yul\":22050:22051   */\n      dup2\n        /* \"#utility.yul\":22047:22061   */\n      lt\n        /* \"#utility.yul\":22039:22247   */\n      iszero\n      tag_476\n      jumpi\n        /* \"#utility.yul\":22132:22141   */\n      dup5\n        /* \"#utility.yul\":22127:22130   */\n      dup10\n        /* \"#utility.yul\":22123:22142   */\n      add\n        /* \"#utility.yul\":22117:22143   */\n      mload\n        /* \"#utility.yul\":22109:22115   */\n      dup3\n        /* \"#utility.yul\":22102:22144   */\n      sstore\n        /* \"#utility.yul\":22183:22184   */\n      0x01\n        /* \"#utility.yul\":22175:22181   */\n      dup3\n        /* \"#utility.yul\":22171:22185   */\n      add\n        /* \"#utility.yul\":22161:22185   */\n      swap2\n      pop\n        /* \"#utility.yul\":22230:22232   */\n      0x20\n        /* \"#utility.yul\":22219:22228   */\n      dup6\n        /* \"#utility.yul\":22215:22233   */\n      add\n        /* \"#utility.yul\":22202:22233   */\n      swap5\n      pop\n        /* \"#utility.yul\":22076:22080   */\n      0x20\n        /* \"#utility.yul\":22073:22074   */\n      dup2\n        /* \"#utility.yul\":22069:22081   */\n      add\n        /* \"#utility.yul\":22064:22081   */\n      swap1\n      pop\n        /* \"#utility.yul\":22039:22247   */\n      jump(tag_474)\n    tag_476:\n        /* \"#utility.yul\":22275:22281   */\n      dup7\n        /* \"#utility.yul\":22266:22273   */\n      dup4\n        /* \"#utility.yul\":22263:22282   */\n      lt\n        /* \"#utility.yul\":22260:22439   */\n      iszero\n      tag_477\n      jumpi\n        /* \"#utility.yul\":22333:22342   */\n      dup5\n        /* \"#utility.yul\":22328:22331   */\n      dup10\n        /* \"#utility.yul\":22324:22343   */\n      add\n        /* \"#utility.yul\":22318:22344   */\n      mload\n        /* \"#utility.yul\":22376:22424   */\n      tag_478\n        /* \"#utility.yul\":22418:22422   */\n      0x1f\n        /* \"#utility.yul\":22410:22416   */\n      dup10\n        /* \"#utility.yul\":22406:22423   */\n      and\n        /* \"#utility.yul\":22395:22404   */\n      dup3\n        /* \"#utility.yul\":22376:22424   */\n      tag_246\n      jump\t// in\n    tag_478:\n        /* \"#utility.yul\":22368:22374   */\n      dup4\n        /* \"#utility.yul\":22361:22425   */\n      sstore\n        /* \"#utility.yul\":22283:22439   */\n      pop\n        /* \"#utility.yul\":22260:22439   */\n    tag_477:\n        /* \"#utility.yul\":22485:22486   */\n      0x01\n        /* \"#utility.yul\":22481:22482   */\n      0x02\n        /* \"#utility.yul\":22473:22479   */\n      dup9\n        /* \"#utility.yul\":22469:22483   */\n      mul\n        /* \"#utility.yul\":22465:22487   */\n      add\n        /* \"#utility.yul\":22459:22463   */\n      dup9\n        /* \"#utility.yul\":22452:22488   */\n      sstore\n        /* \"#utility.yul\":21887:22498   */\n      pop\n      pop\n      pop\n        /* \"#utility.yul\":21850:22737   */\n    tag_469:\n      pop\n        /* \"#utility.yul\":21440:22743   */\n      pop\n      pop\n      pop\n        /* \"#utility.yul\":21348:22743   */\n      pop\n      pop\n      jump\t// out\n        /* \"#utility.yul\":22749:22929   */\n    tag_248:\n        /* \"#utility.yul\":22889:22921   */\n      0x456c656374696f6e20686173206e6f742073746172746564207965742e200000\n        /* \"#utility.yul\":22885:22886   */\n      0x00\n        /* \"#utility.yul\":22877:22883   */\n      dup3\n        /* \"#utility.yul\":22873:22887   */\n      add\n        /* \"#utility.yul\":22866:22922   */\n      mstore\n        /* \"#utility.yul\":22749:22929   */\n      pop\n      jump\t// out\n        /* \"#utility.yul\":22935:23301   */\n    tag_249:\n        /* \"#utility.yul\":23077:23080   */\n      0x00\n        /* \"#utility.yul\":23098:23165   */\n      tag_481\n        /* \"#utility.yul\":23162:23164   */\n      0x1e\n        /* \"#utility.yul\":23157:23160   */\n      dup4\n        /* \"#utility.yul\":23098:23165   */\n      tag_211\n      jump\t// in\n    tag_481:\n        /* \"#utility.yul\":23091:23165   */\n      swap2\n      pop\n        /* \"#utility.yul\":23174:23267   */\n      tag_482\n        /* \"#utility.yul\":23263:23266   */\n      dup3\n        /* \"#utility.yul\":23174:23267   */\n      tag_248\n      jump\t// in\n    tag_482:\n        /* \"#utility.yul\":23292:23294   */\n      0x20\n        /* \"#utility.yul\":23287:23290   */\n      dup3\n        /* \"#utility.yul\":23283:23295   */\n      add\n        /* \"#utility.yul\":23276:23295   */\n      swap1\n      pop\n        /* \"#utility.yul\":22935:23301   */\n      swap2\n      swap1\n      pop\n      jump\t// out\n        /* \"#utility.yul\":23307:23726   */\n    tag_111:\n        /* \"#utility.yul\":23473:23477   */\n      0x00\n        /* \"#utility.yul\":23511:23513   */\n      0x20\n        /* \"#utility.yul\":23500:23509   */\n      dup3\n        /* \"#utility.yul\":23496:23514   */\n      add\n        /* \"#utility.yul\":23488:23514   */\n      swap1\n      pop\n        /* \"#utility.yul\":23560:23569   */\n      dup2\n        /* \"#utility.yul\":23554:23558   */\n      dup2\n        /* \"#utility.yul\":23550:23570   */\n      sub\n        /* \"#utility.yul\":23546:23547   */\n      0x00\n        /* \"#utility.yul\":23535:23544   */\n      dup4\n        /* \"#utility.yul\":23531:23548   */\n      add\n        /* \"#utility.yul\":23524:23571   */\n      mstore\n        /* \"#utility.yul\":23588:23719   */\n      tag_484\n        /* \"#utility.yul\":23714:23718   */\n      dup2\n        /* \"#utility.yul\":23588:23719   */\n      tag_249\n      jump\t// in\n    tag_484:\n        /* \"#utility.yul\":23580:23719   */\n      swap1\n      pop\n        /* \"#utility.yul\":23307:23726   */\n      swap2\n      swap1\n      pop\n      jump\t// out\n        /* \"#utility.yul\":23732:23962   */\n    tag_250:\n        /* \"#utility.yul\":23872:23906   */\n      0x4f6e6c792074686520636f6e7472616374206f776e65722063616e2061646420\n        /* \"#utility.yul\":23868:23869   */\n      0x00\n        /* \"#utility.yul\":23860:23866   */\n      dup3\n        /* \"#utility.yul\":23856:23870   */\n      add\n        /* \"#utility.yul\":23849:23907   */\n      mstore\n        /* \"#utility.yul\":23941:23954   */\n      0x63616e646964617465732e000000000000000000000000000000000000000000\n        /* \"#utility.yul\":23936:23938   */\n      0x20\n        /* \"#utility.yul\":23928:23934   */\n      dup3\n        /* \"#utility.yul\":23924:23939   */\n      add\n        /* \"#utility.yul\":23917:23955   */\n      mstore\n        /* \"#utility.yul\":23732:23962   */\n      pop\n      jump\t// out\n        /* \"#utility.yul\":23968:24334   */\n    tag_251:\n        /* \"#utility.yul\":24110:24113   */\n      0x00\n        /* \"#utility.yul\":24131:24198   */\n      tag_487\n        /* \"#utility.yul\":24195:24197   */\n      0x2b\n        /* \"#utility.yul\":24190:24193   */\n      dup4\n        /* \"#utility.yul\":24131:24198   */\n      tag_211\n      jump\t// in\n    tag_487:\n        /* \"#utility.yul\":24124:24198   */\n      swap2\n      pop\n        /* \"#utility.yul\":24207:24300   */\n      tag_488\n        /* \"#utility.yul\":24296:24299   */\n      dup3\n        /* \"#utility.yul\":24207:24300   */\n      tag_250\n      jump\t// in\n    tag_488:\n        /* \"#utility.yul\":24325:24327   */\n      0x40\n        /* \"#utility.yul\":24320:24323   */\n      dup3\n        /* \"#utility.yul\":24316:24328   */\n      add\n        /* \"#utility.yul\":24309:24328   */\n      swap1\n      pop\n        /* \"#utility.yul\":23968:24334   */\n      swap2\n      swap1\n      pop\n      jump\t// out\n        /* \"#utility.yul\":24340:24759   */\n    tag_119:\n        /* \"#utility.yul\":24506:24510   */\n      0x00\n        /* \"#utility.yul\":24544:24546   */\n      0x20\n        /* \"#utility.yul\":24533:24542   */\n      dup3\n        /* \"#utility.yul\":24529:24547   */\n      add\n        /* \"#utility.yul\":24521:24547   */\n      swap1\n      pop\n        /* \"#utility.yul\":24593:24602   */\n      dup2\n        /* \"#utility.yul\":24587:24591   */\n      dup2\n        /* \"#utility.yul\":24583:24603   */\n      sub\n        /* \"#utility.yul\":24579:24580   */\n      0x00\n        /* \"#utility.yul\":24568:24577   */\n      dup4\n        /* \"#utility.yul\":24564:24581   */\n      add\n        /* \"#utility.yul\":24557:24604   */\n      mstore\n        /* \"#utility.yul\":24621:24752   */\n      tag_490\n        /* \"#utility.yul\":24747:24751   */\n      dup2\n        /* \"#utility.yul\":24621:24752   */\n      tag_251\n      jump\t// in\n    tag_490:\n        /* \"#utility.yul\":24613:24752   */\n      swap1\n      pop\n        /* \"#utility.yul\":24340:24759   */\n      swap2\n      swap1\n      pop\n      jump\t// out\n        /* \"#utility.yul\":24765:24985   */\n    tag_252:\n        /* \"#utility.yul\":24905:24939   */\n      0x506c656173652072656769737465722074686520766f7465722066697273742e\n        /* \"#utility.yul\":24901:24902   */\n      0x00\n        /* \"#utility.yul\":24893:24899   */\n      dup3\n        /* \"#utility.yul\":24889:24903   */\n      add\n        /* \"#utility.yul\":24882:24940   */\n      mstore\n        /* \"#utility.yul\":24974:24977   */\n      0x2000000000000000000000000000000000000000000000000000000000000000\n        /* \"#utility.yul\":24969:24971   */\n      0x20\n        /* \"#utility.yul\":24961:24967   */\n      dup3\n        /* \"#utility.yul\":24957:24972   */\n      add\n        /* \"#utility.yul\":24950:24978   */\n      mstore\n        /* \"#utility.yul\":24765:24985   */\n      pop\n      jump\t// out\n        /* \"#utility.yul\":24991:25357   */\n    tag_253:\n        /* \"#utility.yul\":25133:25136   */\n      0x00\n        /* \"#utility.yul\":25154:25221   */\n      tag_493\n        /* \"#utility.yul\":25218:25220   */\n      0x21\n        /* \"#utility.yul\":25213:25216   */\n      dup4\n        /* \"#utility.yul\":25154:25221   */\n      tag_211\n      jump\t// in\n    tag_493:\n        /* \"#utility.yul\":25147:25221   */\n      swap2\n      pop\n        /* \"#utility.yul\":25230:25323   */\n      tag_494\n        /* \"#utility.yul\":25319:25322   */\n      dup3\n        /* \"#utility.yul\":25230:25323   */\n      tag_252\n      jump\t// in\n    tag_494:\n        /* \"#utility.yul\":25348:25350   */\n      0x40\n        /* \"#utility.yul\":25343:25346   */\n      dup3\n        /* \"#utility.yul\":25339:25351   */\n      add\n        /* \"#utility.yul\":25332:25351   */\n      swap1\n      pop\n        /* \"#utility.yul\":24991:25357   */\n      swap2\n      swap1\n      pop\n      jump\t// out\n        /* \"#utility.yul\":25363:25782   */\n    tag_159:\n        /* \"#utility.yul\":25529:25533   */\n      0x00\n        /* \"#utility.yul\":25567:25569   */\n      0x20\n        /* \"#utility.yul\":25556:25565   */\n      dup3\n        /* \"#utility.yul\":25552:25570   */\n      add\n        /* \"#utility.yul\":25544:25570   */\n      swap1\n      pop\n        /* \"#utility.yul\":25616:25625   */\n      dup2\n        /* \"#utility.yul\":25610:25614   */\n      dup2\n        /* \"#utility.yul\":25606:25626   */\n      sub\n        /* \"#utility.yul\":25602:25603   */\n      0x00\n        /* \"#utility.yul\":25591:25600   */\n      dup4\n        /* \"#utility.yul\":25587:25604   */\n      add\n        /* \"#utility.yul\":25580:25627   */\n      mstore\n        /* \"#utility.yul\":25644:25775   */\n      tag_496\n        /* \"#utility.yul\":25770:25774   */\n      dup2\n        /* \"#utility.yul\":25644:25775   */\n      tag_253\n      jump\t// in\n    tag_496:\n        /* \"#utility.yul\":25636:25775   */\n      swap1\n      pop\n        /* \"#utility.yul\":25363:25782   */\n      swap2\n      swap1\n      pop\n      jump\t// out\n        /* \"#utility.yul\":25788:25955   */\n    tag_254:\n        /* \"#utility.yul\":25928:25947   */\n      0x496e76616c696420616464726573732e20000000000000000000000000000000\n        /* \"#utility.yul\":25924:25925   */\n      0x00\n        /* \"#utility.yul\":25916:25922   */\n      dup3\n        /* \"#utility.yul\":25912:25926   */\n      add\n        /* \"#utility.yul\":25905:25948   */\n      mstore\n        /* \"#utility.yul\":25788:25955   */\n      pop\n      jump\t// out\n        /* \"#utility.yul\":25961:26327   */\n    tag_255:\n        /* \"#utility.yul\":26103:26106   */\n      0x00\n        /* \"#utility.yul\":26124:26191   */\n      tag_499\n        /* \"#utility.yul\":26188:26190   */\n      0x11\n        /* \"#utility.yul\":26183:26186   */\n      dup4\n        /* \"#utility.yul\":26124:26191   */\n      tag_211\n      jump\t// in\n    tag_499:\n        /* \"#utility.yul\":26117:26191   */\n      swap2\n      pop\n        /* \"#utility.yul\":26200:26293   */\n      tag_500\n        /* \"#utility.yul\":26289:26292   */\n      dup3\n        /* \"#utility.yul\":26200:26293   */\n      tag_254\n      jump\t// in\n    tag_500:\n        /* \"#utility.yul\":26318:26320   */\n      0x20\n        /* \"#utility.yul\":26313:26316   */\n      dup3\n        /* \"#utility.yul\":26309:26321   */\n      add\n        /* \"#utility.yul\":26302:26321   */\n      swap1\n      pop\n        /* \"#utility.yul\":25961:26327   */\n      swap2\n      swap1\n      pop\n      jump\t// out\n        /* \"#utility.yul\":26333:26752   */\n    tag_162:\n        /* \"#utility.yul\":26499:26503   */\n      0x00\n        /* \"#utility.yul\":26537:26539   */\n      0x20\n        /* \"#utility.yul\":26526:26535   */\n      dup3\n        /* \"#utility.yul\":26522:26540   */\n      add\n        /* \"#utility.yul\":26514:26540   */\n      swap1\n      pop\n        /* \"#utility.yul\":26586:26595   */\n      dup2\n        /* \"#utility.yul\":26580:26584   */\n      dup2\n        /* \"#utility.yul\":26576:26596   */\n      sub\n        /* \"#utility.yul\":26572:26573   */\n      0x00\n        /* \"#utility.yul\":26561:26570   */\n      dup4\n        /* \"#utility.yul\":26557:26574   */\n      add\n        /* \"#utility.yul\":26550:26597   */\n      mstore\n        /* \"#utility.yul\":26614:26745   */\n      tag_502\n        /* \"#utility.yul\":26740:26744   */\n      dup2\n        /* \"#utility.yul\":26614:26745   */\n      tag_255\n      jump\t// in\n    tag_502:\n        /* \"#utility.yul\":26606:26745   */\n      swap1\n      pop\n        /* \"#utility.yul\":26333:26752   */\n      swap2\n      swap1\n      pop\n      jump\t// out\n        /* \"#utility.yul\":26758:26937   */\n    tag_256:\n        /* \"#utility.yul\":26898:26929   */\n      0x456c656374696f6e20697320616c726561647920676f696e206f6e2e20000000\n        /* \"#utility.yul\":26894:26895   */\n      0x00\n        /* \"#utility.yul\":26886:26892   */\n      dup3\n        /* \"#utility.yul\":26882:26896   */\n      add\n        /* \"#utility.yul\":26875:26930   */\n      mstore\n        /* \"#utility.yul\":26758:26937   */\n      pop\n      jump\t// out\n        /* \"#utility.yul\":26943:27309   */\n    tag_257:\n        /* \"#utility.yul\":27085:27088   */\n      0x00\n        /* \"#utility.yul\":27106:27173   */\n      tag_505\n        /* \"#utility.yul\":27170:27172   */\n      0x1d\n        /* \"#utility.yul\":27165:27168   */\n      dup4\n        /* \"#utility.yul\":27106:27173   */\n      tag_211\n      jump\t// in\n    tag_505:\n        /* \"#utility.yul\":27099:27173   */\n      swap2\n      pop\n        /* \"#utility.yul\":27182:27275   */\n      tag_506\n        /* \"#utility.yul\":27271:27274   */\n      dup3\n        /* \"#utility.yul\":27182:27275   */\n      tag_256\n      jump\t// in\n    tag_506:\n        /* \"#utility.yul\":27300:27302   */\n      0x20\n        /* \"#utility.yul\":27295:27298   */\n      dup3\n        /* \"#utility.yul\":27291:27303   */\n      add\n        /* \"#utility.yul\":27284:27303   */\n      swap1\n      pop\n        /* \"#utility.yul\":26943:27309   */\n      swap2\n      swap1\n      pop\n      jump\t// out\n        /* \"#utility.yul\":27315:27734   */\n    tag_173:\n        /* \"#utility.yul\":27481:27485   */\n      0x00\n        /* \"#utility.yul\":27519:27521   */\n      0x20\n        /* \"#utility.yul\":27508:27517   */\n      dup3\n        /* \"#utility.yul\":27504:27522   */\n      add\n        /* \"#utility.yul\":27496:27522   */\n      swap1\n      pop\n        /* \"#utility.yul\":27568:27577   */\n      dup2\n        /* \"#utility.yul\":27562:27566   */\n      dup2\n        /* \"#utility.yul\":27558:27578   */\n      sub\n        /* \"#utility.yul\":27554:27555   */\n      0x00\n        /* \"#utility.yul\":27543:27552   */\n      dup4\n        /* \"#utility.yul\":27539:27556   */\n      add\n        /* \"#utility.yul\":27532:27579   */\n      mstore\n        /* \"#utility.yul\":27596:27727   */\n      tag_508\n        /* \"#utility.yul\":27722:27726   */\n      dup2\n        /* \"#utility.yul\":27596:27727   */\n      tag_257\n      jump\t// in\n    tag_508:\n        /* \"#utility.yul\":27588:27727   */\n      swap1\n      pop\n        /* \"#utility.yul\":27315:27734   */\n      swap2\n      swap1\n      pop\n      jump\t// out\n        /* \"#utility.yul\":27740:27911   */\n    tag_258:\n        /* \"#utility.yul\":27880:27903   */\n      0x566f74657220616c7265616479206578697374732e0000000000000000000000\n        /* \"#utility.yul\":27876:27877   */\n      0x00\n        /* \"#utility.yul\":27868:27874   */\n      dup3\n        /* \"#utility.yul\":27864:27878   */\n      add\n        /* \"#utility.yul\":27857:27904   */\n      mstore\n        /* \"#utility.yul\":27740:27911   */\n      pop\n      jump\t// out\n        /* \"#utility.yul\":27917:28283   */\n    tag_259:\n        /* \"#utility.yul\":28059:28062   */\n      0x00\n        /* \"#utility.yul\":28080:28147   */\n      tag_511\n        /* \"#utility.yul\":28144:28146   */\n      0x15\n        /* \"#utility.yul\":28139:28142   */\n      dup4\n        /* \"#utility.yul\":28080:28147   */\n      tag_211\n      jump\t// in\n    tag_511:\n        /* \"#utility.yul\":28073:28147   */\n      swap2\n      pop\n        /* \"#utility.yul\":28156:28249   */\n      tag_512\n        /* \"#utility.yul\":28245:28248   */\n      dup3\n        /* \"#utility.yul\":28156:28249   */\n      tag_258\n      jump\t// in\n    tag_512:\n        /* \"#utility.yul\":28274:28276   */\n      0x20\n        /* \"#utility.yul\":28269:28272   */\n      dup3\n        /* \"#utility.yul\":28265:28277   */\n      add\n        /* \"#utility.yul\":28258:28277   */\n      swap1\n      pop\n        /* \"#utility.yul\":27917:28283   */\n      swap2\n      swap1\n      pop\n      jump\t// out\n        /* \"#utility.yul\":28289:28708   */\n    tag_185:\n        /* \"#utility.yul\":28455:28459   */\n      0x00\n        /* \"#utility.yul\":28493:28495   */\n      0x20\n        /* \"#utility.yul\":28482:28491   */\n      dup3\n        /* \"#utility.yul\":28478:28496   */\n      add\n        /* \"#utility.yul\":28470:28496   */\n      swap1\n      pop\n        /* \"#utility.yul\":28542:28551   */\n      dup2\n        /* \"#utility.yul\":28536:28540   */\n      dup2\n        /* \"#utility.yul\":28532:28552   */\n      sub\n        /* \"#utility.yul\":28528:28529   */\n      0x00\n        /* \"#utility.yul\":28517:28526   */\n      dup4\n        /* \"#utility.yul\":28513:28530   */\n      add\n        /* \"#utility.yul\":28506:28553   */\n      mstore\n        /* \"#utility.yul\":28570:28701   */\n      tag_514\n        /* \"#utility.yul\":28696:28700   */\n      dup2\n        /* \"#utility.yul\":28570:28701   */\n      tag_259\n      jump\t// in\n    tag_514:\n        /* \"#utility.yul\":28562:28701   */\n      swap1\n      pop\n        /* \"#utility.yul\":28289:28708   */\n      swap2\n      swap1\n      pop\n      jump\t// out\n\n    auxdata: 0xa264697066735822122065153c39102be8e0b34d2c106ba5eeb79753f69d681e9a12fe6774c97a220e0764736f6c63430008120033\n}\n",
				"bytecode": {
					"linkReferences": {},
					"object": "60806040526040518060400160405280600b81526020017f4e4f542053544152544544000000000000000000000000000000000000000000815250600790816200004a9190620002d9565b503480156200005857600080fd5b50620003c0565b600081519050919050565b7f4e487b7100000000000000000000000000000000000000000000000000000000600052604160045260246000fd5b7f4e487b7100000000000000000000000000000000000000000000000000000000600052602260045260246000fd5b60006002820490506001821680620000e157607f821691505b602082108103620000f757620000f662000099565b5b50919050565b60008190508160005260206000209050919050565b60006020601f8301049050919050565b600082821b905092915050565b600060088302620001617fffffffffffffffffffffffffffffffffffffffffffffffffffffffffffffffff8262000122565b6200016d868362000122565b95508019841693508086168417925050509392505050565b6000819050919050565b6000819050919050565b6000620001ba620001b4620001ae8462000185565b6200018f565b62000185565b9050919050565b6000819050919050565b620001d68362000199565b620001ee620001e582620001c1565b8484546200012f565b825550505050565b600090565b62000205620001f6565b62000212818484620001cb565b505050565b5b818110156200023a576200022e600082620001fb565b60018101905062000218565b5050565b601f82111562000289576200025381620000fd565b6200025e8462000112565b810160208510156200026e578190505b620002866200027d8562000112565b83018262000217565b50505b505050565b600082821c905092915050565b6000620002ae600019846008026200028e565b1980831691505092915050565b6000620002c983836200029b565b9150826002028217905092915050565b620002e4826200005f565b67ffffffffffffffff8111156200030057620002ff6200006a565b5b6200030c8254620000c8565b620003198282856200023e565b600060209050601f8311600181146200035157600084156200033c578287015190505b620003488582620002bb565b865550620003b8565b601f1984166200036186620000fd565b60005b828110156200038b5784890151825560018201915060208501945060208101905062000364565b86831015620003ab5784890151620003a7601f8916826200029b565b8355505b6001600288020188555050505b505050505050565b61202480620003d06000396000f3fe608060405234801561001057600080fd5b50600436106100b45760003560e01c80638dc83771116100715780638dc837711461017b578063b7e03264146101ad578063beb604e0146101cd578063e5ed5b1e146101eb578063e6a5e61d14610207578063fa106d4014610223576100b4565b806302d947ef146100b957806307e4b70a146100d55780630b32ff77146100f15780632280043d1461010d5780634b1c4c291461012b57806379614b2e14610149575b600080fd5b6100d360048036038101906100ce91906111f0565b61023f565b005b6100ef60048036038101906100ea9190611230565b610560565b005b61010b600480360381019061010691906113a3565b610762565b005b61011561085e565b60405161012291906114ad565b60405180910390f35b6101336108ec565b60405161014091906114de565b60405180910390f35b610163600480360381019061015e91906114f9565b6108f2565b60405161017293929190611526565b60405180910390f35b610195600480360381019061019091906114f9565b6109c0565b6040516101a493929190611564565b60405180910390f35b6101b5610b0a565b6040516101c4939291906115a9565b60405180910390f35b6101d5610c1b565b6040516101e291906114de565b60405180910390f35b610205600480360381019061020091906115e7565b610c21565b005b610221600480360381019061021c9190611230565b610dab565b005b61023d600480360381019061023891906115e7565b610fa8565b005b60405160200161024e9061167e565b604051602081830303815290604052805190602001206007604051602001610276919061178b565b6040516020818303038152906040528051906020012003610441576000600160008373ffffffffffffffffffffffffffffffffffffffff1673ffffffffffffffffffffffffffffffffffffffff16815260200190815260200160002054036103cd576000600260008373ffffffffffffffffffffffffffffffffffffffff1673ffffffffffffffffffffffffffffffffffffffff168152602001908152602001600020540361035a576040517f08c379a000000000000000000000000000000000000000000000000000000000815260040161035190611814565b60405180910390fd5b6000600260008373ffffffffffffffffffffffffffffffffffffffff1673ffffffffffffffffffffffffffffffffffffffff168152602001908152602001600020819055506003600083815260200190815260200160002060008154809291906103c390611863565b919050555061043c565b6000600160008373ffffffffffffffffffffffffffffffffffffffff1673ffffffffffffffffffffffffffffffffffffffff1681526020019081526020016000208190555060036000838152602001908152602001600020600081548092919061043690611863565b91905055505b61055c565b604051602001610450906118f7565b604051602081830303815290604052805190602001206007604051602001610478919061178b565b60405160208183030381529060405280519060200120036104ce576040517f08c379a00000000000000000000000000000000000000000000000000000000081526004016104c590611958565b60405180910390fd5b6040516020016104dd906119c4565b604051602081830303815290604052805190602001206007604051602001610505919061178b565b604051602081830303815290604052805190602001200361055b576040517f08c379a000000000000000000000000000000000000000000000000000000000815260040161055290611a25565b60405180910390fd5b5b5050565b60405160200161056f906119c4565b604051602081830303815290604052805190602001206007604051602001610597919061178b565b60405160208183030381529060405280519060200120036105ed576040517f08c379a00000000000000000000000000000000000000000000000000000000081526004016105e490611a91565b60405180910390fd5b6040516020016105fc9061167e565b604051602081830303815290604052805190602001206007604051602001610624919061178b565b604051602081830303815290604052805190602001200361075f57735b38da6a701c568545dcfcb03fcb875f56beddc473ffffffffffffffffffffffffffffffffffffffff168173ffffffffffffffffffffffffffffffffffffffff16036106d0576040518060400160405280600581526020017f454e444544000000000000000000000000000000000000000000000000000000815250600790816106ca9190611c48565b5061075e565b6040516020016106df906118f7565b604051602081830303815290604052805190602001206007604051602001610707919061178b565b604051602081830303815290604052805190602001200361075d576040517f08c379a000000000000000000000000000000000000000000000000000000000815260040161075490611d66565b60405180910390fd5b5b5b50565b735b38da6a701c568545dcfcb03fcb875f56beddc473ffffffffffffffffffffffffffffffffffffffff168173ffffffffffffffffffffffffffffffffffffffff160361081e57600460008154809291906107bc90611863565b9190505550604051806040016040528084815260200183815250600080600454815260200190815260200160002060008201518160000190816107ff9190611c48565b5060208201518160010190816108159190611c48565b50905050610859565b6040517f08c379a000000000000000000000000000000000000000000000000000000000815260040161085090611df8565b60405180910390fd5b505050565b6007805461086b906116c2565b80601f0160208091040260200160405190810160405280929190818152602001828054610897906116c2565b80156108e45780601f106108b9576101008083540402835291602001916108e4565b820191906000526020600020905b8154815290600101906020018083116108c757829003601f168201915b505050505081565b60045481565b60006060600080600080868152602001908152602001600020905084816000016003600088815260200190815260200160002054818054610932906116c2565b80601f016020809104026020016040519081016040528092919081815260200182805461095e906116c2565b80156109ab5780601f10610980576101008083540402835291602001916109ab565b820191906000526020600020905b81548152906001019060200180831161098e57829003601f168201915b50505050509150935093509350509193909250565b6000606080600080600086815260200190815260200160002090508481600001826001018180546109f0906116c2565b80601f0160208091040260200160405190810160405280929190818152602001828054610a1c906116c2565b8015610a695780601f10610a3e57610100808354040283529160200191610a69565b820191906000526020600020905b815481529060010190602001808311610a4c57829003601f168201915b50505050509150808054610a7c906116c2565b80601f0160208091040260200160405190810160405280929190818152602001828054610aa8906116c2565b8015610af55780601f10610aca57610100808354040283529160200191610af5565b820191906000526020600020905b815481529060010190602001808311610ad857829003601f168201915b50505050509050935093509350509193909250565b60606000806000806000600190505b6004548111610b6a578160036000838152602001908152602001600020541115610b5757809250600360008281526020019081526020016000205491505b8080610b6290611863565b915050610b19565b506000808381526020019081526020016000206000018282828054610b8e906116c2565b80601f0160208091040260200160405190810160405280929190818152602001828054610bba906116c2565b8015610c075780601f10610bdc57610100808354040283529160200191610c07565b820191906000526020600020905b815481529060010190602001808311610bea57829003601f168201915b505050505092509450945094505050909192565b60065481565b600073ffffffffffffffffffffffffffffffffffffffff168173ffffffffffffffffffffffffffffffffffffffff1614610d6c576000600160008373ffffffffffffffffffffffffffffffffffffffff1673ffffffffffffffffffffffffffffffffffffffff1681526020019081526020016000205414610d2c57600554600260008473ffffffffffffffffffffffffffffffffffffffff1673ffffffffffffffffffffffffffffffffffffffff168152602001908152602001600020819055506000600160008373ffffffffffffffffffffffffffffffffffffffff1673ffffffffffffffffffffffffffffffffffffffff16815260200190815260200160002081905550610d67565b6040517f08c379a0000000000000000000000000000000000000000000000000000000008152600401610d5e90611e8a565b60405180910390fd5b610da7565b6040517f08c379a0000000000000000000000000000000000000000000000000000000008152600401610d9e90611ef6565b60405180910390fd5b5050565b604051602001610dba906119c4565b604051602081830303815290604052805190602001206007604051602001610de2919061178b565b6040516020818303038152906040528051906020012003610e38576040517f08c379a0000000000000000000000000000000000000000000000000000000008152600401610e2f90611a91565b60405180910390fd5b604051602001610e479061167e565b604051602081830303815290604052805190602001206007604051602001610e6f919061178b565b6040516020818303038152906040528051906020012003610ec5576040517f08c379a0000000000000000000000000000000000000000000000000000000008152600401610ebc90611f62565b60405180910390fd5b604051602001610ed4906118f7565b604051602081830303815290604052805190602001206007604051602001610efc919061178b565b6040516020818303038152906040528051906020012003610fa557735b38da6a701c568545dcfcb03fcb875f56beddc473ffffffffffffffffffffffffffffffffffffffff168173ffffffffffffffffffffffffffffffffffffffff1603610fa4576040518060400160405280600781526020017f4f4e474f494e470000000000000000000000000000000000000000000000000081525060079081610fa29190611c48565b505b5b50565b600073ffffffffffffffffffffffffffffffffffffffff168273ffffffffffffffffffffffffffffffffffffffff161461114457735b38da6a701c568545dcfcb03fcb875f56beddc473ffffffffffffffffffffffffffffffffffffffff168173ffffffffffffffffffffffffffffffffffffffff1603611108576000600160008473ffffffffffffffffffffffffffffffffffffffff1673ffffffffffffffffffffffffffffffffffffffff16815260200190815260200160002054146110a5576040517f08c379a000000000000000000000000000000000000000000000000000000000815260040161109c90611fce565b60405180910390fd5b600660008154809291906110b890611863565b9190505550600654600160008473ffffffffffffffffffffffffffffffffffffffff1673ffffffffffffffffffffffffffffffffffffffff16815260200190815260200160002081905550611143565b6040517f08c379a000000000000000000000000000000000000000000000000000000000815260040161113a90611df8565b60405180910390fd5b5b5050565b6000604051905090565b600080fd5b600080fd5b6000819050919050565b61116f8161115c565b811461117a57600080fd5b50565b60008135905061118c81611166565b92915050565b600073ffffffffffffffffffffffffffffffffffffffff82169050919050565b60006111bd82611192565b9050919050565b6111cd816111b2565b81146111d857600080fd5b50565b6000813590506111ea816111c4565b92915050565b6000806040838503121561120757611206611152565b5b60006112158582860161117d565b9250506020611226858286016111db565b9150509250929050565b60006020828403121561124657611245611152565b5b6000611254848285016111db565b91505092915050565b600080fd5b600080fd5b6000601f19601f8301169050919050565b7f4e487b7100000000000000000000000000000000000000000000000000000000600052604160045260246000fd5b6112b082611267565b810181811067ffffffffffffffff821117156112cf576112ce611278565b5b80604052505050565b60006112e2611148565b90506112ee82826112a7565b919050565b600067ffffffffffffffff82111561130e5761130d611278565b5b61131782611267565b9050602081019050919050565b82818337600083830152505050565b6000611346611341846112f3565b6112d8565b90508281526020810184848401111561136257611361611262565b5b61136d848285611324565b509392505050565b600082601f83011261138a5761138961125d565b5b813561139a848260208601611333565b91505092915050565b6000806000606084860312156113bc576113bb611152565b5b600084013567ffffffffffffffff8111156113da576113d9611157565b5b6113e686828701611375565b935050602084013567ffffffffffffffff81111561140757611406611157565b5b61141386828701611375565b9250506040611424868287016111db565b9150509250925092565b600081519050919050565b600082825260208201905092915050565b60005b8381101561146857808201518184015260208101905061144d565b60008484015250505050565b600061147f8261142e565b6114898185611439565b935061149981856020860161144a565b6114a281611267565b840191505092915050565b600060208201905081810360008301526114c78184611474565b905092915050565b6114d88161115c565b82525050565b60006020820190506114f360008301846114cf565b92915050565b60006020828403121561150f5761150e611152565b5b600061151d8482850161117d565b91505092915050565b600060608201905061153b60008301866114cf565b818103602083015261154d8185611474565b905061155c60408301846114cf565b949350505050565b600060608201905061157960008301866114cf565b818103602083015261158b8185611474565b9050818103604083015261159f8184611474565b9050949350505050565b600060608201905081810360008301526115c38186611474565b90506115d260208301856114cf565b6115df60408301846114cf565b949350505050565b600080604083850312156115fe576115fd611152565b5b600061160c858286016111db565b925050602061161d858286016111db565b9150509250929050565b600081905092915050565b7f4f4e474f494e4700000000000000000000000000000000000000000000000000600082015250565b6000611668600783611627565b915061167382611632565b600782019050919050565b60006116898261165b565b9150819050919050565b7f4e487b7100000000000000000000000000000000000000000000000000000000600052602260045260246000fd5b600060028204905060018216806116da57607f821691505b6020821081036116ed576116ec611693565b5b50919050565b60008190508160005260206000209050919050565b60008154611715816116c2565b61171f8186611627565b9450600182166000811461173a576001811461174f57611782565b60ff1983168652811515820286019350611782565b611758856116f3565b60005b8381101561177a5781548189015260018201915060208101905061175b565b838801955050505b50505092915050565b60006117978284611708565b915081905092915050565b7f766f746520616c726561647920636173746564206f7220766f74657220696e7660008201527f616c69642e200000000000000000000000000000000000000000000000000000602082015250565b60006117fe602683611439565b9150611809826117a2565b604082019050919050565b6000602082019050818103600083015261182d816117f1565b9050919050565b7f4e487b7100000000000000000000000000000000000000000000000000000000600052601160045260246000fd5b600061186e8261115c565b91507fffffffffffffffffffffffffffffffffffffffffffffffffffffffffffffffff82036118a05761189f611834565b5b600182019050919050565b7f4e4f542053544152544544000000000000000000000000000000000000000000600082015250565b60006118e1600b83611627565b91506118ec826118ab565b600b82019050919050565b6000611902826118d4565b9150819050919050565b7f456c656374696f6e206e6f742053746172746564000000000000000000000000600082015250565b6000611942601483611439565b915061194d8261190c565b602082019050919050565b6000602082019050818103600083015261197181611935565b9050919050565b7f454e444544000000000000000000000000000000000000000000000000000000600082015250565b60006119ae600583611627565b91506119b982611978565b600582019050919050565b60006119cf826119a1565b9150819050919050565b7f456c656374696f6e20456e646564000000000000000000000000000000000000600082015250565b6000611a0f600e83611439565b9150611a1a826119d9565b602082019050919050565b60006020820190508181036000830152611a3e81611a02565b9050919050565b7f456c656374696f6e2068617320656e6465642e20000000000000000000000000600082015250565b6000611a7b601483611439565b9150611a8682611a45565b602082019050919050565b60006020820190508181036000830152611aaa81611a6e565b9050919050565b60006020601f8301049050919050565b600082821b905092915050565b600060088302611afe7fffffffffffffffffffffffffffffffffffffffffffffffffffffffffffffffff82611ac1565b611b088683611ac1565b95508019841693508086168417925050509392505050565b6000819050919050565b6000611b45611b40611b3b8461115c565b611b20565b61115c565b9050919050565b6000819050919050565b611b5f83611b2a565b611b73611b6b82611b4c565b848454611ace565b825550505050565b600090565b611b88611b7b565b611b93818484611b56565b505050565b5b81811015611bb757611bac600082611b80565b600181019050611b99565b5050565b601f821115611bfc57611bcd816116f3565b611bd684611ab1565b81016020851015611be5578190505b611bf9611bf185611ab1565b830182611b98565b50505b505050565b600082821c905092915050565b6000611c1f60001984600802611c01565b1980831691505092915050565b6000611c388383611c0e565b9150826002028217905092915050565b611c518261142e565b67ffffffffffffffff811115611c6a57611c69611278565b5b611c7482546116c2565b611c7f828285611bbb565b600060209050601f831160018114611cb25760008415611ca0578287015190505b611caa8582611c2c565b865550611d12565b601f198416611cc0866116f3565b60005b82811015611ce857848901518255600182019150602085019450602081019050611cc3565b86831015611d055784890151611d01601f891682611c0e565b8355505b6001600288020188555050505b505050505050565b7f456c656374696f6e20686173206e6f742073746172746564207965742e200000600082015250565b6000611d50601e83611439565b9150611d5b82611d1a565b602082019050919050565b60006020820190508181036000830152611d7f81611d43565b9050919050565b7f4f6e6c792074686520636f6e7472616374206f776e65722063616e206164642060008201527f63616e646964617465732e000000000000000000000000000000000000000000602082015250565b6000611de2602b83611439565b9150611ded82611d86565b604082019050919050565b60006020820190508181036000830152611e1181611dd5565b9050919050565b7f506c656173652072656769737465722074686520766f7465722066697273742e60008201527f2000000000000000000000000000000000000000000000000000000000000000602082015250565b6000611e74602183611439565b9150611e7f82611e18565b604082019050919050565b60006020820190508181036000830152611ea381611e67565b9050919050565b7f496e76616c696420616464726573732e20000000000000000000000000000000600082015250565b6000611ee0601183611439565b9150611eeb82611eaa565b602082019050919050565b60006020820190508181036000830152611f0f81611ed3565b9050919050565b7f456c656374696f6e20697320616c726561647920676f696e206f6e2e20000000600082015250565b6000611f4c601d83611439565b9150611f5782611f16565b602082019050919050565b60006020820190508181036000830152611f7b81611f3f565b9050919050565b7f566f74657220616c7265616479206578697374732e0000000000000000000000600082015250565b6000611fb8601583611439565b9150611fc382611f82565b602082019050919050565b60006020820190508181036000830152611fe781611fab565b905091905056fea264697066735822122065153c39102be8e0b34d2c106ba5eeb79753f69d681e9a12fe6774c97a220e0764736f6c63430008120033",
					"opcodes": "PUSH1 0x80 PUSH1 0x40 MSTORE PUSH1 0x40 MLOAD DUP1 PUSH1 0x40 ADD PUSH1 0x40 MSTORE DUP1 PUSH1 0xB DUP2 MSTORE PUSH1 0x20 ADD PUSH32 0x4E4F542053544152544544000000000000000000000000000000000000000000 DUP2 MSTORE POP PUSH1 0x7 SWAP1 DUP2 PUSH3 0x4A SWAP2 SWAP1 PUSH3 0x2D9 JUMP JUMPDEST POP CALLVALUE DUP1 ISZERO PUSH3 0x58 JUMPI PUSH1 0x0 DUP1 REVERT JUMPDEST POP PUSH3 0x3C0 JUMP JUMPDEST PUSH1 0x0 DUP2 MLOAD SWAP1 POP SWAP2 SWAP1 POP JUMP JUMPDEST PUSH32 0x4E487B7100000000000000000000000000000000000000000000000000000000 PUSH1 0x0 MSTORE PUSH1 0x41 PUSH1 0x4 MSTORE PUSH1 0x24 PUSH1 0x0 REVERT JUMPDEST PUSH32 0x4E487B7100000000000000000000000000000000000000000000000000000000 PUSH1 0x0 MSTORE PUSH1 0x22 PUSH1 0x4 MSTORE PUSH1 0x24 PUSH1 0x0 REVERT JUMPDEST PUSH1 0x0 PUSH1 0x2 DUP3 DIV SWAP1 POP PUSH1 0x1 DUP3 AND DUP1 PUSH3 0xE1 JUMPI PUSH1 0x7F DUP3 AND SWAP2 POP JUMPDEST PUSH1 0x20 DUP3 LT DUP2 SUB PUSH3 0xF7 JUMPI PUSH3 0xF6 PUSH3 0x99 JUMP JUMPDEST JUMPDEST POP SWAP2 SWAP1 POP JUMP JUMPDEST PUSH1 0x0 DUP2 SWAP1 POP DUP2 PUSH1 0x0 MSTORE PUSH1 0x20 PUSH1 0x0 KECCAK256 SWAP1 POP SWAP2 SWAP1 POP JUMP JUMPDEST PUSH1 0x0 PUSH1 0x20 PUSH1 0x1F DUP4 ADD DIV SWAP1 POP SWAP2 SWAP1 POP JUMP JUMPDEST PUSH1 0x0 DUP3 DUP3 SHL SWAP1 POP SWAP3 SWAP2 POP POP JUMP JUMPDEST PUSH1 0x0 PUSH1 0x8 DUP4 MUL PUSH3 0x161 PUSH32 0xFFFFFFFFFFFFFFFFFFFFFFFFFFFFFFFFFFFFFFFFFFFFFFFFFFFFFFFFFFFFFFFF DUP3 PUSH3 0x122 JUMP JUMPDEST PUSH3 0x16D DUP7 DUP4 PUSH3 0x122 JUMP JUMPDEST SWAP6 POP DUP1 NOT DUP5 AND SWAP4 POP DUP1 DUP7 AND DUP5 OR SWAP3 POP POP POP SWAP4 SWAP3 POP POP POP JUMP JUMPDEST PUSH1 0x0 DUP2 SWAP1 POP SWAP2 SWAP1 POP JUMP JUMPDEST PUSH1 0x0 DUP2 SWAP1 POP SWAP2 SWAP1 POP JUMP JUMPDEST PUSH1 0x0 PUSH3 0x1BA PUSH3 0x1B4 PUSH3 0x1AE DUP5 PUSH3 0x185 JUMP JUMPDEST PUSH3 0x18F JUMP JUMPDEST PUSH3 0x185 JUMP JUMPDEST SWAP1 POP SWAP2 SWAP1 POP JUMP JUMPDEST PUSH1 0x0 DUP2 SWAP1 POP SWAP2 SWAP1 POP JUMP JUMPDEST PUSH3 0x1D6 DUP4 PUSH3 0x199 JUMP JUMPDEST PUSH3 0x1EE PUSH3 0x1E5 DUP3 PUSH3 0x1C1 JUMP JUMPDEST DUP5 DUP5 SLOAD PUSH3 0x12F JUMP JUMPDEST DUP3 SSTORE POP POP POP POP JUMP JUMPDEST PUSH1 0x0 SWAP1 JUMP JUMPDEST PUSH3 0x205 PUSH3 0x1F6 JUMP JUMPDEST PUSH3 0x212 DUP2 DUP5 DUP5 PUSH3 0x1CB JUMP JUMPDEST POP POP POP JUMP JUMPDEST JUMPDEST DUP2 DUP2 LT ISZERO PUSH3 0x23A JUMPI PUSH3 0x22E PUSH1 0x0 DUP3 PUSH3 0x1FB JUMP JUMPDEST PUSH1 0x1 DUP2 ADD SWAP1 POP PUSH3 0x218 JUMP JUMPDEST POP POP JUMP JUMPDEST PUSH1 0x1F DUP3 GT ISZERO PUSH3 0x289 JUMPI PUSH3 0x253 DUP2 PUSH3 0xFD JUMP JUMPDEST PUSH3 0x25E DUP5 PUSH3 0x112 JUMP JUMPDEST DUP2 ADD PUSH1 0x20 DUP6 LT ISZERO PUSH3 0x26E JUMPI DUP2 SWAP1 POP JUMPDEST PUSH3 0x286 PUSH3 0x27D DUP6 PUSH3 0x112 JUMP JUMPDEST DUP4 ADD DUP3 PUSH3 0x217 JUMP JUMPDEST POP POP JUMPDEST POP POP POP JUMP JUMPDEST PUSH1 0x0 DUP3 DUP3 SHR SWAP1 POP SWAP3 SWAP2 POP POP JUMP JUMPDEST PUSH1 0x0 PUSH3 0x2AE PUSH1 0x0 NOT DUP5 PUSH1 0x8 MUL PUSH3 0x28E JUMP JUMPDEST NOT DUP1 DUP4 AND SWAP2 POP POP SWAP3 SWAP2 POP POP JUMP JUMPDEST PUSH1 0x0 PUSH3 0x2C9 DUP4 DUP4 PUSH3 0x29B JUMP JUMPDEST SWAP2 POP DUP3 PUSH1 0x2 MUL DUP3 OR SWAP1 POP SWAP3 SWAP2 POP POP JUMP JUMPDEST PUSH3 0x2E4 DUP3 PUSH3 0x5F JUMP JUMPDEST PUSH8 0xFFFFFFFFFFFFFFFF DUP2 GT ISZERO PUSH3 0x300 JUMPI PUSH3 0x2FF PUSH3 0x6A JUMP JUMPDEST JUMPDEST PUSH3 0x30C DUP3 SLOAD PUSH3 0xC8 JUMP JUMPDEST PUSH3 0x319 DUP3 DUP3 DUP6 PUSH3 0x23E JUMP JUMPDEST PUSH1 0x0 PUSH1 0x20 SWAP1 POP PUSH1 0x1F DUP4 GT PUSH1 0x1 DUP2 EQ PUSH3 0x351 JUMPI PUSH1 0x0 DUP5 ISZERO PUSH3 0x33C JUMPI DUP3 DUP8 ADD MLOAD SWAP1 POP JUMPDEST PUSH3 0x348 DUP6 DUP3 PUSH3 0x2BB JUMP JUMPDEST DUP7 SSTORE POP PUSH3 0x3B8 JUMP JUMPDEST PUSH1 0x1F NOT DUP5 AND PUSH3 0x361 DUP7 PUSH3 0xFD JUMP JUMPDEST PUSH1 0x0 JUMPDEST DUP3 DUP2 LT ISZERO PUSH3 0x38B JUMPI DUP5 DUP10 ADD MLOAD DUP3 SSTORE PUSH1 0x1 DUP3 ADD SWAP2 POP PUSH1 0x20 DUP6 ADD SWAP5 POP PUSH1 0x20 DUP2 ADD SWAP1 POP PUSH3 0x364 JUMP JUMPDEST DUP7 DUP4 LT ISZERO PUSH3 0x3AB JUMPI DUP5 DUP10 ADD MLOAD PUSH3 0x3A7 PUSH1 0x1F DUP10 AND DUP3 PUSH3 0x29B JUMP JUMPDEST DUP4 SSTORE POP JUMPDEST PUSH1 0x1 PUSH1 0x2 DUP9 MUL ADD DUP9 SSTORE POP POP POP JUMPDEST POP POP POP POP POP POP JUMP JUMPDEST PUSH2 0x2024 DUP1 PUSH3 0x3D0 PUSH1 0x0 CODECOPY PUSH1 0x0 RETURN INVALID PUSH1 0x80 PUSH1 0x40 MSTORE CALLVALUE DUP1 ISZERO PUSH2 0x10 JUMPI PUSH1 0x0 DUP1 REVERT JUMPDEST POP PUSH1 0x4 CALLDATASIZE LT PUSH2 0xB4 JUMPI PUSH1 0x0 CALLDATALOAD PUSH1 0xE0 SHR DUP1 PUSH4 0x8DC83771 GT PUSH2 0x71 JUMPI DUP1 PUSH4 0x8DC83771 EQ PUSH2 0x17B JUMPI DUP1 PUSH4 0xB7E03264 EQ PUSH2 0x1AD JUMPI DUP1 PUSH4 0xBEB604E0 EQ PUSH2 0x1CD JUMPI DUP1 PUSH4 0xE5ED5B1E EQ PUSH2 0x1EB JUMPI DUP1 PUSH4 0xE6A5E61D EQ PUSH2 0x207 JUMPI DUP1 PUSH4 0xFA106D40 EQ PUSH2 0x223 JUMPI PUSH2 0xB4 JUMP JUMPDEST DUP1 PUSH4 0x2D947EF EQ PUSH2 0xB9 JUMPI DUP1 PUSH4 0x7E4B70A EQ PUSH2 0xD5 JUMPI DUP1 PUSH4 0xB32FF77 EQ PUSH2 0xF1 JUMPI DUP1 PUSH4 0x2280043D EQ PUSH2 0x10D JUMPI DUP1 PUSH4 0x4B1C4C29 EQ PUSH2 0x12B JUMPI DUP1 PUSH4 0x79614B2E EQ PUSH2 0x149 JUMPI JUMPDEST PUSH1 0x0 DUP1 REVERT JUMPDEST PUSH2 0xD3 PUSH1 0x4 DUP1 CALLDATASIZE SUB DUP2 ADD SWAP1 PUSH2 0xCE SWAP2 SWAP1 PUSH2 0x11F0 JUMP JUMPDEST PUSH2 0x23F JUMP JUMPDEST STOP JUMPDEST PUSH2 0xEF PUSH1 0x4 DUP1 CALLDATASIZE SUB DUP2 ADD SWAP1 PUSH2 0xEA SWAP2 SWAP1 PUSH2 0x1230 JUMP JUMPDEST PUSH2 0x560 JUMP JUMPDEST STOP JUMPDEST PUSH2 0x10B PUSH1 0x4 DUP1 CALLDATASIZE SUB DUP2 ADD SWAP1 PUSH2 0x106 SWAP2 SWAP1 PUSH2 0x13A3 JUMP JUMPDEST PUSH2 0x762 JUMP JUMPDEST STOP JUMPDEST PUSH2 0x115 PUSH2 0x85E JUMP JUMPDEST PUSH1 0x40 MLOAD PUSH2 0x122 SWAP2 SWAP1 PUSH2 0x14AD JUMP JUMPDEST PUSH1 0x40 MLOAD DUP1 SWAP2 SUB SWAP1 RETURN JUMPDEST PUSH2 0x133 PUSH2 0x8EC JUMP JUMPDEST PUSH1 0x40 MLOAD PUSH2 0x140 SWAP2 SWAP1 PUSH2 0x14DE JUMP JUMPDEST PUSH1 0x40 MLOAD DUP1 SWAP2 SUB SWAP1 RETURN JUMPDEST PUSH2 0x163 PUSH1 0x4 DUP1 CALLDATASIZE SUB DUP2 ADD SWAP1 PUSH2 0x15E SWAP2 SWAP1 PUSH2 0x14F9 JUMP JUMPDEST PUSH2 0x8F2 JUMP JUMPDEST PUSH1 0x40 MLOAD PUSH2 0x172 SWAP4 SWAP3 SWAP2 SWAP1 PUSH2 0x1526 JUMP JUMPDEST PUSH1 0x40 MLOAD DUP1 SWAP2 SUB SWAP1 RETURN JUMPDEST PUSH2 0x195 PUSH1 0x4 DUP1 CALLDATASIZE SUB DUP2 ADD SWAP1 PUSH2 0x190 SWAP2 SWAP1 PUSH2 0x14F9 JUMP JUMPDEST PUSH2 0x9C0 JUMP JUMPDEST PUSH1 0x40 MLOAD PUSH2 0x1A4 SWAP4 SWAP3 SWAP2 SWAP1 PUSH2 0x1564 JUMP JUMPDEST PUSH1 0x40 MLOAD DUP1 SWAP2 SUB SWAP1 RETURN JUMPDEST PUSH2 0x1B5 PUSH2 0xB0A JUMP JUMPDEST PUSH1 0x40 MLOAD PUSH2 0x1C4 SWAP4 SWAP3 SWAP2 SWAP1 PUSH2 0x15A9 JUMP JUMPDEST PUSH1 0x40 MLOAD DUP1 SWAP2 SUB SWAP1 RETURN JUMPDEST PUSH2 0x1D5 PUSH2 0xC1B JUMP JUMPDEST PUSH1 0x40 MLOAD PUSH2 0x1E2 SWAP2 SWAP1 PUSH2 0x14DE JUMP JUMPDEST PUSH1 0x40 MLOAD DUP1 SWAP2 SUB SWAP1 RETURN JUMPDEST PUSH2 0x205 PUSH1 0x4 DUP1 CALLDATASIZE SUB DUP2 ADD SWAP1 PUSH2 0x200 SWAP2 SWAP1 PUSH2 0x15E7 JUMP JUMPDEST PUSH2 0xC21 JUMP JUMPDEST STOP JUMPDEST PUSH2 0x221 PUSH1 0x4 DUP1 CALLDATASIZE SUB DUP2 ADD SWAP1 PUSH2 0x21C SWAP2 SWAP1 PUSH2 0x1230 JUMP JUMPDEST PUSH2 0xDAB JUMP JUMPDEST STOP JUMPDEST PUSH2 0x23D PUSH1 0x4 DUP1 CALLDATASIZE SUB DUP2 ADD SWAP1 PUSH2 0x238 SWAP2 SWAP1 PUSH2 0x15E7 JUMP JUMPDEST PUSH2 0xFA8 JUMP JUMPDEST STOP JUMPDEST PUSH1 0x40 MLOAD PUSH1 0x20 ADD PUSH2 0x24E SWAP1 PUSH2 0x167E JUMP JUMPDEST PUSH1 0x40 MLOAD PUSH1 0x20 DUP2 DUP4 SUB SUB DUP2 MSTORE SWAP1 PUSH1 0x40 MSTORE DUP1 MLOAD SWAP1 PUSH1 0x20 ADD KECCAK256 PUSH1 0x7 PUSH1 0x40 MLOAD PUSH1 0x20 ADD PUSH2 0x276 SWAP2 SWAP1 PUSH2 0x178B JUMP JUMPDEST PUSH1 0x40 MLOAD PUSH1 0x20 DUP2 DUP4 SUB SUB DUP2 MSTORE SWAP1 PUSH1 0x40 MSTORE DUP1 MLOAD SWAP1 PUSH1 0x20 ADD KECCAK256 SUB PUSH2 0x441 JUMPI PUSH1 0x0 PUSH1 0x1 PUSH1 0x0 DUP4 PUSH20 0xFFFFFFFFFFFFFFFFFFFFFFFFFFFFFFFFFFFFFFFF AND PUSH20 0xFFFFFFFFFFFFFFFFFFFFFFFFFFFFFFFFFFFFFFFF AND DUP2 MSTORE PUSH1 0x20 ADD SWAP1 DUP2 MSTORE PUSH1 0x20 ADD PUSH1 0x0 KECCAK256 SLOAD SUB PUSH2 0x3CD JUMPI PUSH1 0x0 PUSH1 0x2 PUSH1 0x0 DUP4 PUSH20 0xFFFFFFFFFFFFFFFFFFFFFFFFFFFFFFFFFFFFFFFF AND PUSH20 0xFFFFFFFFFFFFFFFFFFFFFFFFFFFFFFFFFFFFFFFF AND DUP2 MSTORE PUSH1 0x20 ADD SWAP1 DUP2 MSTORE PUSH1 0x20 ADD PUSH1 0x0 KECCAK256 SLOAD SUB PUSH2 0x35A JUMPI PUSH1 0x40 MLOAD PUSH32 0x8C379A000000000000000000000000000000000000000000000000000000000 DUP2 MSTORE PUSH1 0x4 ADD PUSH2 0x351 SWAP1 PUSH2 0x1814 JUMP JUMPDEST PUSH1 0x40 MLOAD DUP1 SWAP2 SUB SWAP1 REVERT JUMPDEST PUSH1 0x0 PUSH1 0x2 PUSH1 0x0 DUP4 PUSH20 0xFFFFFFFFFFFFFFFFFFFFFFFFFFFFFFFFFFFFFFFF AND PUSH20 0xFFFFFFFFFFFFFFFFFFFFFFFFFFFFFFFFFFFFFFFF AND DUP2 MSTORE PUSH1 0x20 ADD SWAP1 DUP2 MSTORE PUSH1 0x20 ADD PUSH1 0x0 KECCAK256 DUP2 SWAP1 SSTORE POP PUSH1 0x3 PUSH1 0x0 DUP4 DUP2 MSTORE PUSH1 0x20 ADD SWAP1 DUP2 MSTORE PUSH1 0x20 ADD PUSH1 0x0 KECCAK256 PUSH1 0x0 DUP2 SLOAD DUP1 SWAP3 SWAP2 SWAP1 PUSH2 0x3C3 SWAP1 PUSH2 0x1863 JUMP JUMPDEST SWAP2 SWAP1 POP SSTORE POP PUSH2 0x43C JUMP JUMPDEST PUSH1 0x0 PUSH1 0x1 PUSH1 0x0 DUP4 PUSH20 0xFFFFFFFFFFFFFFFFFFFFFFFFFFFFFFFFFFFFFFFF AND PUSH20 0xFFFFFFFFFFFFFFFFFFFFFFFFFFFFFFFFFFFFFFFF AND DUP2 MSTORE PUSH1 0x20 ADD SWAP1 DUP2 MSTORE PUSH1 0x20 ADD PUSH1 0x0 KECCAK256 DUP2 SWAP1 SSTORE POP PUSH1 0x3 PUSH1 0x0 DUP4 DUP2 MSTORE PUSH1 0x20 ADD SWAP1 DUP2 MSTORE PUSH1 0x20 ADD PUSH1 0x0 KECCAK256 PUSH1 0x0 DUP2 SLOAD DUP1 SWAP3 SWAP2 SWAP1 PUSH2 0x436 SWAP1 PUSH2 0x1863 JUMP JUMPDEST SWAP2 SWAP1 POP SSTORE POP JUMPDEST PUSH2 0x55C JUMP JUMPDEST PUSH1 0x40 MLOAD PUSH1 0x20 ADD PUSH2 0x450 SWAP1 PUSH2 0x18F7 JUMP JUMPDEST PUSH1 0x40 MLOAD PUSH1 0x20 DUP2 DUP4 SUB SUB DUP2 MSTORE SWAP1 PUSH1 0x40 MSTORE DUP1 MLOAD SWAP1 PUSH1 0x20 ADD KECCAK256 PUSH1 0x7 PUSH1 0x40 MLOAD PUSH1 0x20 ADD PUSH2 0x478 SWAP2 SWAP1 PUSH2 0x178B JUMP JUMPDEST PUSH1 0x40 MLOAD PUSH1 0x20 DUP2 DUP4 SUB SUB DUP2 MSTORE SWAP1 PUSH1 0x40 MSTORE DUP1 MLOAD SWAP1 PUSH1 0x20 ADD KECCAK256 SUB PUSH2 0x4CE JUMPI PUSH1 0x40 MLOAD PUSH32 0x8C379A000000000000000000000000000000000000000000000000000000000 DUP2 MSTORE PUSH1 0x4 ADD PUSH2 0x4C5 SWAP1 PUSH2 0x1958 JUMP JUMPDEST PUSH1 0x40 MLOAD DUP1 SWAP2 SUB SWAP1 REVERT JUMPDEST PUSH1 0x40 MLOAD PUSH1 0x20 ADD PUSH2 0x4DD SWAP1 PUSH2 0x19C4 JUMP JUMPDEST PUSH1 0x40 MLOAD PUSH1 0x20 DUP2 DUP4 SUB SUB DUP2 MSTORE SWAP1 PUSH1 0x40 MSTORE DUP1 MLOAD SWAP1 PUSH1 0x20 ADD KECCAK256 PUSH1 0x7 PUSH1 0x40 MLOAD PUSH1 0x20 ADD PUSH2 0x505 SWAP2 SWAP1 PUSH2 0x178B JUMP JUMPDEST PUSH1 0x40 MLOAD PUSH1 0x20 DUP2 DUP4 SUB SUB DUP2 MSTORE SWAP1 PUSH1 0x40 MSTORE DUP1 MLOAD SWAP1 PUSH1 0x20 ADD KECCAK256 SUB PUSH2 0x55B JUMPI PUSH1 0x40 MLOAD PUSH32 0x8C379A000000000000000000000000000000000000000000000000000000000 DUP2 MSTORE PUSH1 0x4 ADD PUSH2 0x552 SWAP1 PUSH2 0x1A25 JUMP JUMPDEST PUSH1 0x40 MLOAD DUP1 SWAP2 SUB SWAP1 REVERT JUMPDEST JUMPDEST POP POP JUMP JUMPDEST PUSH1 0x40 MLOAD PUSH1 0x20 ADD PUSH2 0x56F SWAP1 PUSH2 0x19C4 JUMP JUMPDEST PUSH1 0x40 MLOAD PUSH1 0x20 DUP2 DUP4 SUB SUB DUP2 MSTORE SWAP1 PUSH1 0x40 MSTORE DUP1 MLOAD SWAP1 PUSH1 0x20 ADD KECCAK256 PUSH1 0x7 PUSH1 0x40 MLOAD PUSH1 0x20 ADD PUSH2 0x597 SWAP2 SWAP1 PUSH2 0x178B JUMP JUMPDEST PUSH1 0x40 MLOAD PUSH1 0x20 DUP2 DUP4 SUB SUB DUP2 MSTORE SWAP1 PUSH1 0x40 MSTORE DUP1 MLOAD SWAP1 PUSH1 0x20 ADD KECCAK256 SUB PUSH2 0x5ED JUMPI PUSH1 0x40 MLOAD PUSH32 0x8C379A000000000000000000000000000000000000000000000000000000000 DUP2 MSTORE PUSH1 0x4 ADD PUSH2 0x5E4 SWAP1 PUSH2 0x1A91 JUMP JUMPDEST PUSH1 0x40 MLOAD DUP1 SWAP2 SUB SWAP1 REVERT JUMPDEST PUSH1 0x40 MLOAD PUSH1 0x20 ADD PUSH2 0x5FC SWAP1 PUSH2 0x167E JUMP JUMPDEST PUSH1 0x40 MLOAD PUSH1 0x20 DUP2 DUP4 SUB SUB DUP2 MSTORE SWAP1 PUSH1 0x40 MSTORE DUP1 MLOAD SWAP1 PUSH1 0x20 ADD KECCAK256 PUSH1 0x7 PUSH1 0x40 MLOAD PUSH1 0x20 ADD PUSH2 0x624 SWAP2 SWAP1 PUSH2 0x178B JUMP JUMPDEST PUSH1 0x40 MLOAD PUSH1 0x20 DUP2 DUP4 SUB SUB DUP2 MSTORE SWAP1 PUSH1 0x40 MSTORE DUP1 MLOAD SWAP1 PUSH1 0x20 ADD KECCAK256 SUB PUSH2 0x75F JUMPI PUSH20 0x5B38DA6A701C568545DCFCB03FCB875F56BEDDC4 PUSH20 0xFFFFFFFFFFFFFFFFFFFFFFFFFFFFFFFFFFFFFFFF AND DUP2 PUSH20 0xFFFFFFFFFFFFFFFFFFFFFFFFFFFFFFFFFFFFFFFF AND SUB PUSH2 0x6D0 JUMPI PUSH1 0x40 MLOAD DUP1 PUSH1 0x40 ADD PUSH1 0x40 MSTORE DUP1 PUSH1 0x5 DUP2 MSTORE PUSH1 0x20 ADD PUSH32 0x454E444544000000000000000000000000000000000000000000000000000000 DUP2 MSTORE POP PUSH1 0x7 SWAP1 DUP2 PUSH2 0x6CA SWAP2 SWAP1 PUSH2 0x1C48 JUMP JUMPDEST POP PUSH2 0x75E JUMP JUMPDEST PUSH1 0x40 MLOAD PUSH1 0x20 ADD PUSH2 0x6DF SWAP1 PUSH2 0x18F7 JUMP JUMPDEST PUSH1 0x40 MLOAD PUSH1 0x20 DUP2 DUP4 SUB SUB DUP2 MSTORE SWAP1 PUSH1 0x40 MSTORE DUP1 MLOAD SWAP1 PUSH1 0x20 ADD KECCAK256 PUSH1 0x7 PUSH1 0x40 MLOAD PUSH1 0x20 ADD PUSH2 0x707 SWAP2 SWAP1 PUSH2 0x178B JUMP JUMPDEST PUSH1 0x40 MLOAD PUSH1 0x20 DUP2 DUP4 SUB SUB DUP2 MSTORE SWAP1 PUSH1 0x40 MSTORE DUP1 MLOAD SWAP1 PUSH1 0x20 ADD KECCAK256 SUB PUSH2 0x75D JUMPI PUSH1 0x40 MLOAD PUSH32 0x8C379A000000000000000000000000000000000000000000000000000000000 DUP2 MSTORE PUSH1 0x4 ADD PUSH2 0x754 SWAP1 PUSH2 0x1D66 JUMP JUMPDEST PUSH1 0x40 MLOAD DUP1 SWAP2 SUB SWAP1 REVERT JUMPDEST JUMPDEST JUMPDEST POP JUMP JUMPDEST PUSH20 0x5B38DA6A701C568545DCFCB03FCB875F56BEDDC4 PUSH20 0xFFFFFFFFFFFFFFFFFFFFFFFFFFFFFFFFFFFFFFFF AND DUP2 PUSH20 0xFFFFFFFFFFFFFFFFFFFFFFFFFFFFFFFFFFFFFFFF AND SUB PUSH2 0x81E JUMPI PUSH1 0x4 PUSH1 0x0 DUP2 SLOAD DUP1 SWAP3 SWAP2 SWAP1 PUSH2 0x7BC SWAP1 PUSH2 0x1863 JUMP JUMPDEST SWAP2 SWAP1 POP SSTORE POP PUSH1 0x40 MLOAD DUP1 PUSH1 0x40 ADD PUSH1 0x40 MSTORE DUP1 DUP5 DUP2 MSTORE PUSH1 0x20 ADD DUP4 DUP2 MSTORE POP PUSH1 0x0 DUP1 PUSH1 0x4 SLOAD DUP2 MSTORE PUSH1 0x20 ADD SWAP1 DUP2 MSTORE PUSH1 0x20 ADD PUSH1 0x0 KECCAK256 PUSH1 0x0 DUP3 ADD MLOAD DUP2 PUSH1 0x0 ADD SWAP1 DUP2 PUSH2 0x7FF SWAP2 SWAP1 PUSH2 0x1C48 JUMP JUMPDEST POP PUSH1 0x20 DUP3 ADD MLOAD DUP2 PUSH1 0x1 ADD SWAP1 DUP2 PUSH2 0x815 SWAP2 SWAP1 PUSH2 0x1C48 JUMP JUMPDEST POP SWAP1 POP POP PUSH2 0x859 JUMP JUMPDEST PUSH1 0x40 MLOAD PUSH32 0x8C379A000000000000000000000000000000000000000000000000000000000 DUP2 MSTORE PUSH1 0x4 ADD PUSH2 0x850 SWAP1 PUSH2 0x1DF8 JUMP JUMPDEST PUSH1 0x40 MLOAD DUP1 SWAP2 SUB SWAP1 REVERT JUMPDEST POP POP POP JUMP JUMPDEST PUSH1 0x7 DUP1 SLOAD PUSH2 0x86B SWAP1 PUSH2 0x16C2 JUMP JUMPDEST DUP1 PUSH1 0x1F ADD PUSH1 0x20 DUP1 SWAP2 DIV MUL PUSH1 0x20 ADD PUSH1 0x40 MLOAD SWAP1 DUP2 ADD PUSH1 0x40 MSTORE DUP1 SWAP3 SWAP2 SWAP1 DUP2 DUP2 MSTORE PUSH1 0x20 ADD DUP3 DUP1 SLOAD PUSH2 0x897 SWAP1 PUSH2 0x16C2 JUMP JUMPDEST DUP1 ISZERO PUSH2 0x8E4 JUMPI DUP1 PUSH1 0x1F LT PUSH2 0x8B9 JUMPI PUSH2 0x100 DUP1 DUP4 SLOAD DIV MUL DUP4 MSTORE SWAP2 PUSH1 0x20 ADD SWAP2 PUSH2 0x8E4 JUMP JUMPDEST DUP3 ADD SWAP2 SWAP1 PUSH1 0x0 MSTORE PUSH1 0x20 PUSH1 0x0 KECCAK256 SWAP1 JUMPDEST DUP2 SLOAD DUP2 MSTORE SWAP1 PUSH1 0x1 ADD SWAP1 PUSH1 0x20 ADD DUP1 DUP4 GT PUSH2 0x8C7 JUMPI DUP3 SWAP1 SUB PUSH1 0x1F AND DUP3 ADD SWAP2 JUMPDEST POP POP POP POP POP DUP2 JUMP JUMPDEST PUSH1 0x4 SLOAD DUP2 JUMP JUMPDEST PUSH1 0x0 PUSH1 0x60 PUSH1 0x0 DUP1 PUSH1 0x0 DUP1 DUP7 DUP2 MSTORE PUSH1 0x20 ADD SWAP1 DUP2 MSTORE PUSH1 0x20 ADD PUSH1 0x0 KECCAK256 SWAP1 POP DUP5 DUP2 PUSH1 0x0 ADD PUSH1 0x3 PUSH1 0x0 DUP9 DUP2 MSTORE PUSH1 0x20 ADD SWAP1 DUP2 MSTORE PUSH1 0x20 ADD PUSH1 0x0 KECCAK256 SLOAD DUP2 DUP1 SLOAD PUSH2 0x932 SWAP1 PUSH2 0x16C2 JUMP JUMPDEST DUP1 PUSH1 0x1F ADD PUSH1 0x20 DUP1 SWAP2 DIV MUL PUSH1 0x20 ADD PUSH1 0x40 MLOAD SWAP1 DUP2 ADD PUSH1 0x40 MSTORE DUP1 SWAP3 SWAP2 SWAP1 DUP2 DUP2 MSTORE PUSH1 0x20 ADD DUP3 DUP1 SLOAD PUSH2 0x95E SWAP1 PUSH2 0x16C2 JUMP JUMPDEST DUP1 ISZERO PUSH2 0x9AB JUMPI DUP1 PUSH1 0x1F LT PUSH2 0x980 JUMPI PUSH2 0x100 DUP1 DUP4 SLOAD DIV MUL DUP4 MSTORE SWAP2 PUSH1 0x20 ADD SWAP2 PUSH2 0x9AB JUMP JUMPDEST DUP3 ADD SWAP2 SWAP1 PUSH1 0x0 MSTORE PUSH1 0x20 PUSH1 0x0 KECCAK256 SWAP1 JUMPDEST DUP2 SLOAD DUP2 MSTORE SWAP1 PUSH1 0x1 ADD SWAP1 PUSH1 0x20 ADD DUP1 DUP4 GT PUSH2 0x98E JUMPI DUP3 SWAP1 SUB PUSH1 0x1F AND DUP3 ADD SWAP2 JUMPDEST POP POP POP POP POP SWAP2 POP SWAP4 POP SWAP4 POP SWAP4 POP POP SWAP2 SWAP4 SWAP1 SWAP3 POP JUMP JUMPDEST PUSH1 0x0 PUSH1 0x60 DUP1 PUSH1 0x0 DUP1 PUSH1 0x0 DUP7 DUP2 MSTORE PUSH1 0x20 ADD SWAP1 DUP2 MSTORE PUSH1 0x20 ADD PUSH1 0x0 KECCAK256 SWAP1 POP DUP5 DUP2 PUSH1 0x0 ADD DUP3 PUSH1 0x1 ADD DUP2 DUP1 SLOAD PUSH2 0x9F0 SWAP1 PUSH2 0x16C2 JUMP JUMPDEST DUP1 PUSH1 0x1F ADD PUSH1 0x20 DUP1 SWAP2 DIV MUL PUSH1 0x20 ADD PUSH1 0x40 MLOAD SWAP1 DUP2 ADD PUSH1 0x40 MSTORE DUP1 SWAP3 SWAP2 SWAP1 DUP2 DUP2 MSTORE PUSH1 0x20 ADD DUP3 DUP1 SLOAD PUSH2 0xA1C SWAP1 PUSH2 0x16C2 JUMP JUMPDEST DUP1 ISZERO PUSH2 0xA69 JUMPI DUP1 PUSH1 0x1F LT PUSH2 0xA3E JUMPI PUSH2 0x100 DUP1 DUP4 SLOAD DIV MUL DUP4 MSTORE SWAP2 PUSH1 0x20 ADD SWAP2 PUSH2 0xA69 JUMP JUMPDEST DUP3 ADD SWAP2 SWAP1 PUSH1 0x0 MSTORE PUSH1 0x20 PUSH1 0x0 KECCAK256 SWAP1 JUMPDEST DUP2 SLOAD DUP2 MSTORE SWAP1 PUSH1 0x1 ADD SWAP1 PUSH1 0x20 ADD DUP1 DUP4 GT PUSH2 0xA4C JUMPI DUP3 SWAP1 SUB PUSH1 0x1F AND DUP3 ADD SWAP2 JUMPDEST POP POP POP POP POP SWAP2 POP DUP1 DUP1 SLOAD PUSH2 0xA7C SWAP1 PUSH2 0x16C2 JUMP JUMPDEST DUP1 PUSH1 0x1F ADD PUSH1 0x20 DUP1 SWAP2 DIV MUL PUSH1 0x20 ADD PUSH1 0x40 MLOAD SWAP1 DUP2 ADD PUSH1 0x40 MSTORE DUP1 SWAP3 SWAP2 SWAP1 DUP2 DUP2 MSTORE PUSH1 0x20 ADD DUP3 DUP1 SLOAD PUSH2 0xAA8 SWAP1 PUSH2 0x16C2 JUMP JUMPDEST DUP1 ISZERO PUSH2 0xAF5 JUMPI DUP1 PUSH1 0x1F LT PUSH2 0xACA JUMPI PUSH2 0x100 DUP1 DUP4 SLOAD DIV MUL DUP4 MSTORE SWAP2 PUSH1 0x20 ADD SWAP2 PUSH2 0xAF5 JUMP JUMPDEST DUP3 ADD SWAP2 SWAP1 PUSH1 0x0 MSTORE PUSH1 0x20 PUSH1 0x0 KECCAK256 SWAP1 JUMPDEST DUP2 SLOAD DUP2 MSTORE SWAP1 PUSH1 0x1 ADD SWAP1 PUSH1 0x20 ADD DUP1 DUP4 GT PUSH2 0xAD8 JUMPI DUP3 SWAP1 SUB PUSH1 0x1F AND DUP3 ADD SWAP2 JUMPDEST POP POP POP POP POP SWAP1 POP SWAP4 POP SWAP4 POP SWAP4 POP POP SWAP2 SWAP4 SWAP1 SWAP3 POP JUMP JUMPDEST PUSH1 0x60 PUSH1 0x0 DUP1 PUSH1 0x0 DUP1 PUSH1 0x0 PUSH1 0x1 SWAP1 POP JUMPDEST PUSH1 0x4 SLOAD DUP2 GT PUSH2 0xB6A JUMPI DUP2 PUSH1 0x3 PUSH1 0x0 DUP4 DUP2 MSTORE PUSH1 0x20 ADD SWAP1 DUP2 MSTORE PUSH1 0x20 ADD PUSH1 0x0 KECCAK256 SLOAD GT ISZERO PUSH2 0xB57 JUMPI DUP1 SWAP3 POP PUSH1 0x3 PUSH1 0x0 DUP3 DUP2 MSTORE PUSH1 0x20 ADD SWAP1 DUP2 MSTORE PUSH1 0x20 ADD PUSH1 0x0 KECCAK256 SLOAD SWAP2 POP JUMPDEST DUP1 DUP1 PUSH2 0xB62 SWAP1 PUSH2 0x1863 JUMP JUMPDEST SWAP2 POP POP PUSH2 0xB19 JUMP JUMPDEST POP PUSH1 0x0 DUP1 DUP4 DUP2 MSTORE PUSH1 0x20 ADD SWAP1 DUP2 MSTORE PUSH1 0x20 ADD PUSH1 0x0 KECCAK256 PUSH1 0x0 ADD DUP3 DUP3 DUP3 DUP1 SLOAD PUSH2 0xB8E SWAP1 PUSH2 0x16C2 JUMP JUMPDEST DUP1 PUSH1 0x1F ADD PUSH1 0x20 DUP1 SWAP2 DIV MUL PUSH1 0x20 ADD PUSH1 0x40 MLOAD SWAP1 DUP2 ADD PUSH1 0x40 MSTORE DUP1 SWAP3 SWAP2 SWAP1 DUP2 DUP2 MSTORE PUSH1 0x20 ADD DUP3 DUP1 SLOAD PUSH2 0xBBA SWAP1 PUSH2 0x16C2 JUMP JUMPDEST DUP1 ISZERO PUSH2 0xC07 JUMPI DUP1 PUSH1 0x1F LT PUSH2 0xBDC JUMPI PUSH2 0x100 DUP1 DUP4 SLOAD DIV MUL DUP4 MSTORE SWAP2 PUSH1 0x20 ADD SWAP2 PUSH2 0xC07 JUMP JUMPDEST DUP3 ADD SWAP2 SWAP1 PUSH1 0x0 MSTORE PUSH1 0x20 PUSH1 0x0 KECCAK256 SWAP1 JUMPDEST DUP2 SLOAD DUP2 MSTORE SWAP1 PUSH1 0x1 ADD SWAP1 PUSH1 0x20 ADD DUP1 DUP4 GT PUSH2 0xBEA JUMPI DUP3 SWAP1 SUB PUSH1 0x1F AND DUP3 ADD SWAP2 JUMPDEST POP POP POP POP POP SWAP3 POP SWAP5 POP SWAP5 POP SWAP5 POP POP POP SWAP1 SWAP2 SWAP3 JUMP JUMPDEST PUSH1 0x6 SLOAD DUP2 JUMP JUMPDEST PUSH1 0x0 PUSH20 0xFFFFFFFFFFFFFFFFFFFFFFFFFFFFFFFFFFFFFFFF AND DUP2 PUSH20 0xFFFFFFFFFFFFFFFFFFFFFFFFFFFFFFFFFFFFFFFF AND EQ PUSH2 0xD6C JUMPI PUSH1 0x0 PUSH1 0x1 PUSH1 0x0 DUP4 PUSH20 0xFFFFFFFFFFFFFFFFFFFFFFFFFFFFFFFFFFFFFFFF AND PUSH20 0xFFFFFFFFFFFFFFFFFFFFFFFFFFFFFFFFFFFFFFFF AND DUP2 MSTORE PUSH1 0x20 ADD SWAP1 DUP2 MSTORE PUSH1 0x20 ADD PUSH1 0x0 KECCAK256 SLOAD EQ PUSH2 0xD2C JUMPI PUSH1 0x5 SLOAD PUSH1 0x2 PUSH1 0x0 DUP5 PUSH20 0xFFFFFFFFFFFFFFFFFFFFFFFFFFFFFFFFFFFFFFFF AND PUSH20 0xFFFFFFFFFFFFFFFFFFFFFFFFFFFFFFFFFFFFFFFF AND DUP2 MSTORE PUSH1 0x20 ADD SWAP1 DUP2 MSTORE PUSH1 0x20 ADD PUSH1 0x0 KECCAK256 DUP2 SWAP1 SSTORE POP PUSH1 0x0 PUSH1 0x1 PUSH1 0x0 DUP4 PUSH20 0xFFFFFFFFFFFFFFFFFFFFFFFFFFFFFFFFFFFFFFFF AND PUSH20 0xFFFFFFFFFFFFFFFFFFFFFFFFFFFFFFFFFFFFFFFF AND DUP2 MSTORE PUSH1 0x20 ADD SWAP1 DUP2 MSTORE PUSH1 0x20 ADD PUSH1 0x0 KECCAK256 DUP2 SWAP1 SSTORE POP PUSH2 0xD67 JUMP JUMPDEST PUSH1 0x40 MLOAD PUSH32 0x8C379A000000000000000000000000000000000000000000000000000000000 DUP2 MSTORE PUSH1 0x4 ADD PUSH2 0xD5E SWAP1 PUSH2 0x1E8A JUMP JUMPDEST PUSH1 0x40 MLOAD DUP1 SWAP2 SUB SWAP1 REVERT JUMPDEST PUSH2 0xDA7 JUMP JUMPDEST PUSH1 0x40 MLOAD PUSH32 0x8C379A000000000000000000000000000000000000000000000000000000000 DUP2 MSTORE PUSH1 0x4 ADD PUSH2 0xD9E SWAP1 PUSH2 0x1EF6 JUMP JUMPDEST PUSH1 0x40 MLOAD DUP1 SWAP2 SUB SWAP1 REVERT JUMPDEST POP POP JUMP JUMPDEST PUSH1 0x40 MLOAD PUSH1 0x20 ADD PUSH2 0xDBA SWAP1 PUSH2 0x19C4 JUMP JUMPDEST PUSH1 0x40 MLOAD PUSH1 0x20 DUP2 DUP4 SUB SUB DUP2 MSTORE SWAP1 PUSH1 0x40 MSTORE DUP1 MLOAD SWAP1 PUSH1 0x20 ADD KECCAK256 PUSH1 0x7 PUSH1 0x40 MLOAD PUSH1 0x20 ADD PUSH2 0xDE2 SWAP2 SWAP1 PUSH2 0x178B JUMP JUMPDEST PUSH1 0x40 MLOAD PUSH1 0x20 DUP2 DUP4 SUB SUB DUP2 MSTORE SWAP1 PUSH1 0x40 MSTORE DUP1 MLOAD SWAP1 PUSH1 0x20 ADD KECCAK256 SUB PUSH2 0xE38 JUMPI PUSH1 0x40 MLOAD PUSH32 0x8C379A000000000000000000000000000000000000000000000000000000000 DUP2 MSTORE PUSH1 0x4 ADD PUSH2 0xE2F SWAP1 PUSH2 0x1A91 JUMP JUMPDEST PUSH1 0x40 MLOAD DUP1 SWAP2 SUB SWAP1 REVERT JUMPDEST PUSH1 0x40 MLOAD PUSH1 0x20 ADD PUSH2 0xE47 SWAP1 PUSH2 0x167E JUMP JUMPDEST PUSH1 0x40 MLOAD PUSH1 0x20 DUP2 DUP4 SUB SUB DUP2 MSTORE SWAP1 PUSH1 0x40 MSTORE DUP1 MLOAD SWAP1 PUSH1 0x20 ADD KECCAK256 PUSH1 0x7 PUSH1 0x40 MLOAD PUSH1 0x20 ADD PUSH2 0xE6F SWAP2 SWAP1 PUSH2 0x178B JUMP JUMPDEST PUSH1 0x40 MLOAD PUSH1 0x20 DUP2 DUP4 SUB SUB DUP2 MSTORE SWAP1 PUSH1 0x40 MSTORE DUP1 MLOAD SWAP1 PUSH1 0x20 ADD KECCAK256 SUB PUSH2 0xEC5 JUMPI PUSH1 0x40 MLOAD PUSH32 0x8C379A000000000000000000000000000000000000000000000000000000000 DUP2 MSTORE PUSH1 0x4 ADD PUSH2 0xEBC SWAP1 PUSH2 0x1F62 JUMP JUMPDEST PUSH1 0x40 MLOAD DUP1 SWAP2 SUB SWAP1 REVERT JUMPDEST PUSH1 0x40 MLOAD PUSH1 0x20 ADD PUSH2 0xED4 SWAP1 PUSH2 0x18F7 JUMP JUMPDEST PUSH1 0x40 MLOAD PUSH1 0x20 DUP2 DUP4 SUB SUB DUP2 MSTORE SWAP1 PUSH1 0x40 MSTORE DUP1 MLOAD SWAP1 PUSH1 0x20 ADD KECCAK256 PUSH1 0x7 PUSH1 0x40 MLOAD PUSH1 0x20 ADD PUSH2 0xEFC SWAP2 SWAP1 PUSH2 0x178B JUMP JUMPDEST PUSH1 0x40 MLOAD PUSH1 0x20 DUP2 DUP4 SUB SUB DUP2 MSTORE SWAP1 PUSH1 0x40 MSTORE DUP1 MLOAD SWAP1 PUSH1 0x20 ADD KECCAK256 SUB PUSH2 0xFA5 JUMPI PUSH20 0x5B38DA6A701C568545DCFCB03FCB875F56BEDDC4 PUSH20 0xFFFFFFFFFFFFFFFFFFFFFFFFFFFFFFFFFFFFFFFF AND DUP2 PUSH20 0xFFFFFFFFFFFFFFFFFFFFFFFFFFFFFFFFFFFFFFFF AND SUB PUSH2 0xFA4 JUMPI PUSH1 0x40 MLOAD DUP1 PUSH1 0x40 ADD PUSH1 0x40 MSTORE DUP1 PUSH1 0x7 DUP2 MSTORE PUSH1 0x20 ADD PUSH32 0x4F4E474F494E4700000000000000000000000000000000000000000000000000 DUP2 MSTORE POP PUSH1 0x7 SWAP1 DUP2 PUSH2 0xFA2 SWAP2 SWAP1 PUSH2 0x1C48 JUMP JUMPDEST POP JUMPDEST JUMPDEST POP JUMP JUMPDEST PUSH1 0x0 PUSH20 0xFFFFFFFFFFFFFFFFFFFFFFFFFFFFFFFFFFFFFFFF AND DUP3 PUSH20 0xFFFFFFFFFFFFFFFFFFFFFFFFFFFFFFFFFFFFFFFF AND EQ PUSH2 0x1144 JUMPI PUSH20 0x5B38DA6A701C568545DCFCB03FCB875F56BEDDC4 PUSH20 0xFFFFFFFFFFFFFFFFFFFFFFFFFFFFFFFFFFFFFFFF AND DUP2 PUSH20 0xFFFFFFFFFFFFFFFFFFFFFFFFFFFFFFFFFFFFFFFF AND SUB PUSH2 0x1108 JUMPI PUSH1 0x0 PUSH1 0x1 PUSH1 0x0 DUP5 PUSH20 0xFFFFFFFFFFFFFFFFFFFFFFFFFFFFFFFFFFFFFFFF AND PUSH20 0xFFFFFFFFFFFFFFFFFFFFFFFFFFFFFFFFFFFFFFFF AND DUP2 MSTORE PUSH1 0x20 ADD SWAP1 DUP2 MSTORE PUSH1 0x20 ADD PUSH1 0x0 KECCAK256 SLOAD EQ PUSH2 0x10A5 JUMPI PUSH1 0x40 MLOAD PUSH32 0x8C379A000000000000000000000000000000000000000000000000000000000 DUP2 MSTORE PUSH1 0x4 ADD PUSH2 0x109C SWAP1 PUSH2 0x1FCE JUMP JUMPDEST PUSH1 0x40 MLOAD DUP1 SWAP2 SUB SWAP1 REVERT JUMPDEST PUSH1 0x6 PUSH1 0x0 DUP2 SLOAD DUP1 SWAP3 SWAP2 SWAP1 PUSH2 0x10B8 SWAP1 PUSH2 0x1863 JUMP JUMPDEST SWAP2 SWAP1 POP SSTORE POP PUSH1 0x6 SLOAD PUSH1 0x1 PUSH1 0x0 DUP5 PUSH20 0xFFFFFFFFFFFFFFFFFFFFFFFFFFFFFFFFFFFFFFFF AND PUSH20 0xFFFFFFFFFFFFFFFFFFFFFFFFFFFFFFFFFFFFFFFF AND DUP2 MSTORE PUSH1 0x20 ADD SWAP1 DUP2 MSTORE PUSH1 0x20 ADD PUSH1 0x0 KECCAK256 DUP2 SWAP1 SSTORE POP PUSH2 0x1143 JUMP JUMPDEST PUSH1 0x40 MLOAD PUSH32 0x8C379A000000000000000000000000000000000000000000000000000000000 DUP2 MSTORE PUSH1 0x4 ADD PUSH2 0x113A SWAP1 PUSH2 0x1DF8 JUMP JUMPDEST PUSH1 0x40 MLOAD DUP1 SWAP2 SUB SWAP1 REVERT JUMPDEST JUMPDEST POP POP JUMP JUMPDEST PUSH1 0x0 PUSH1 0x40 MLOAD SWAP1 POP SWAP1 JUMP JUMPDEST PUSH1 0x0 DUP1 REVERT JUMPDEST PUSH1 0x0 DUP1 REVERT JUMPDEST PUSH1 0x0 DUP2 SWAP1 POP SWAP2 SWAP1 POP JUMP JUMPDEST PUSH2 0x116F DUP2 PUSH2 0x115C JUMP JUMPDEST DUP2 EQ PUSH2 0x117A JUMPI PUSH1 0x0 DUP1 REVERT JUMPDEST POP JUMP JUMPDEST PUSH1 0x0 DUP2 CALLDATALOAD SWAP1 POP PUSH2 0x118C DUP2 PUSH2 0x1166 JUMP JUMPDEST SWAP3 SWAP2 POP POP JUMP JUMPDEST PUSH1 0x0 PUSH20 0xFFFFFFFFFFFFFFFFFFFFFFFFFFFFFFFFFFFFFFFF DUP3 AND SWAP1 POP SWAP2 SWAP1 POP JUMP JUMPDEST PUSH1 0x0 PUSH2 0x11BD DUP3 PUSH2 0x1192 JUMP JUMPDEST SWAP1 POP SWAP2 SWAP1 POP JUMP JUMPDEST PUSH2 0x11CD DUP2 PUSH2 0x11B2 JUMP JUMPDEST DUP2 EQ PUSH2 0x11D8 JUMPI PUSH1 0x0 DUP1 REVERT JUMPDEST POP JUMP JUMPDEST PUSH1 0x0 DUP2 CALLDATALOAD SWAP1 POP PUSH2 0x11EA DUP2 PUSH2 0x11C4 JUMP JUMPDEST SWAP3 SWAP2 POP POP JUMP JUMPDEST PUSH1 0x0 DUP1 PUSH1 0x40 DUP4 DUP6 SUB SLT ISZERO PUSH2 0x1207 JUMPI PUSH2 0x1206 PUSH2 0x1152 JUMP JUMPDEST JUMPDEST PUSH1 0x0 PUSH2 0x1215 DUP6 DUP3 DUP7 ADD PUSH2 0x117D JUMP JUMPDEST SWAP3 POP POP PUSH1 0x20 PUSH2 0x1226 DUP6 DUP3 DUP7 ADD PUSH2 0x11DB JUMP JUMPDEST SWAP2 POP POP SWAP3 POP SWAP3 SWAP1 POP JUMP JUMPDEST PUSH1 0x0 PUSH1 0x20 DUP3 DUP5 SUB SLT ISZERO PUSH2 0x1246 JUMPI PUSH2 0x1245 PUSH2 0x1152 JUMP JUMPDEST JUMPDEST PUSH1 0x0 PUSH2 0x1254 DUP5 DUP3 DUP6 ADD PUSH2 0x11DB JUMP JUMPDEST SWAP2 POP POP SWAP3 SWAP2 POP POP JUMP JUMPDEST PUSH1 0x0 DUP1 REVERT JUMPDEST PUSH1 0x0 DUP1 REVERT JUMPDEST PUSH1 0x0 PUSH1 0x1F NOT PUSH1 0x1F DUP4 ADD AND SWAP1 POP SWAP2 SWAP1 POP JUMP JUMPDEST PUSH32 0x4E487B7100000000000000000000000000000000000000000000000000000000 PUSH1 0x0 MSTORE PUSH1 0x41 PUSH1 0x4 MSTORE PUSH1 0x24 PUSH1 0x0 REVERT JUMPDEST PUSH2 0x12B0 DUP3 PUSH2 0x1267 JUMP JUMPDEST DUP2 ADD DUP2 DUP2 LT PUSH8 0xFFFFFFFFFFFFFFFF DUP3 GT OR ISZERO PUSH2 0x12CF JUMPI PUSH2 0x12CE PUSH2 0x1278 JUMP JUMPDEST JUMPDEST DUP1 PUSH1 0x40 MSTORE POP POP POP JUMP JUMPDEST PUSH1 0x0 PUSH2 0x12E2 PUSH2 0x1148 JUMP JUMPDEST SWAP1 POP PUSH2 0x12EE DUP3 DUP3 PUSH2 0x12A7 JUMP JUMPDEST SWAP2 SWAP1 POP JUMP JUMPDEST PUSH1 0x0 PUSH8 0xFFFFFFFFFFFFFFFF DUP3 GT ISZERO PUSH2 0x130E JUMPI PUSH2 0x130D PUSH2 0x1278 JUMP JUMPDEST JUMPDEST PUSH2 0x1317 DUP3 PUSH2 0x1267 JUMP JUMPDEST SWAP1 POP PUSH1 0x20 DUP2 ADD SWAP1 POP SWAP2 SWAP1 POP JUMP JUMPDEST DUP3 DUP2 DUP4 CALLDATACOPY PUSH1 0x0 DUP4 DUP4 ADD MSTORE POP POP POP JUMP JUMPDEST PUSH1 0x0 PUSH2 0x1346 PUSH2 0x1341 DUP5 PUSH2 0x12F3 JUMP JUMPDEST PUSH2 0x12D8 JUMP JUMPDEST SWAP1 POP DUP3 DUP2 MSTORE PUSH1 0x20 DUP2 ADD DUP5 DUP5 DUP5 ADD GT ISZERO PUSH2 0x1362 JUMPI PUSH2 0x1361 PUSH2 0x1262 JUMP JUMPDEST JUMPDEST PUSH2 0x136D DUP5 DUP3 DUP6 PUSH2 0x1324 JUMP JUMPDEST POP SWAP4 SWAP3 POP POP POP JUMP JUMPDEST PUSH1 0x0 DUP3 PUSH1 0x1F DUP4 ADD SLT PUSH2 0x138A JUMPI PUSH2 0x1389 PUSH2 0x125D JUMP JUMPDEST JUMPDEST DUP2 CALLDATALOAD PUSH2 0x139A DUP5 DUP3 PUSH1 0x20 DUP7 ADD PUSH2 0x1333 JUMP JUMPDEST SWAP2 POP POP SWAP3 SWAP2 POP POP JUMP JUMPDEST PUSH1 0x0 DUP1 PUSH1 0x0 PUSH1 0x60 DUP5 DUP7 SUB SLT ISZERO PUSH2 0x13BC JUMPI PUSH2 0x13BB PUSH2 0x1152 JUMP JUMPDEST JUMPDEST PUSH1 0x0 DUP5 ADD CALLDATALOAD PUSH8 0xFFFFFFFFFFFFFFFF DUP2 GT ISZERO PUSH2 0x13DA JUMPI PUSH2 0x13D9 PUSH2 0x1157 JUMP JUMPDEST JUMPDEST PUSH2 0x13E6 DUP7 DUP3 DUP8 ADD PUSH2 0x1375 JUMP JUMPDEST SWAP4 POP POP PUSH1 0x20 DUP5 ADD CALLDATALOAD PUSH8 0xFFFFFFFFFFFFFFFF DUP2 GT ISZERO PUSH2 0x1407 JUMPI PUSH2 0x1406 PUSH2 0x1157 JUMP JUMPDEST JUMPDEST PUSH2 0x1413 DUP7 DUP3 DUP8 ADD PUSH2 0x1375 JUMP JUMPDEST SWAP3 POP POP PUSH1 0x40 PUSH2 0x1424 DUP7 DUP3 DUP8 ADD PUSH2 0x11DB JUMP JUMPDEST SWAP2 POP POP SWAP3 POP SWAP3 POP SWAP3 JUMP JUMPDEST PUSH1 0x0 DUP2 MLOAD SWAP1 POP SWAP2 SWAP1 POP JUMP JUMPDEST PUSH1 0x0 DUP3 DUP3 MSTORE PUSH1 0x20 DUP3 ADD SWAP1 POP SWAP3 SWAP2 POP POP JUMP JUMPDEST PUSH1 0x0 JUMPDEST DUP4 DUP2 LT ISZERO PUSH2 0x1468 JUMPI DUP1 DUP3 ADD MLOAD DUP2 DUP5 ADD MSTORE PUSH1 0x20 DUP2 ADD SWAP1 POP PUSH2 0x144D JUMP JUMPDEST PUSH1 0x0 DUP5 DUP5 ADD MSTORE POP POP POP POP JUMP JUMPDEST PUSH1 0x0 PUSH2 0x147F DUP3 PUSH2 0x142E JUMP JUMPDEST PUSH2 0x1489 DUP2 DUP6 PUSH2 0x1439 JUMP JUMPDEST SWAP4 POP PUSH2 0x1499 DUP2 DUP6 PUSH1 0x20 DUP7 ADD PUSH2 0x144A JUMP JUMPDEST PUSH2 0x14A2 DUP2 PUSH2 0x1267 JUMP JUMPDEST DUP5 ADD SWAP2 POP POP SWAP3 SWAP2 POP POP JUMP JUMPDEST PUSH1 0x0 PUSH1 0x20 DUP3 ADD SWAP1 POP DUP2 DUP2 SUB PUSH1 0x0 DUP4 ADD MSTORE PUSH2 0x14C7 DUP2 DUP5 PUSH2 0x1474 JUMP JUMPDEST SWAP1 POP SWAP3 SWAP2 POP POP JUMP JUMPDEST PUSH2 0x14D8 DUP2 PUSH2 0x115C JUMP JUMPDEST DUP3 MSTORE POP POP JUMP JUMPDEST PUSH1 0x0 PUSH1 0x20 DUP3 ADD SWAP1 POP PUSH2 0x14F3 PUSH1 0x0 DUP4 ADD DUP5 PUSH2 0x14CF JUMP JUMPDEST SWAP3 SWAP2 POP POP JUMP JUMPDEST PUSH1 0x0 PUSH1 0x20 DUP3 DUP5 SUB SLT ISZERO PUSH2 0x150F JUMPI PUSH2 0x150E PUSH2 0x1152 JUMP JUMPDEST JUMPDEST PUSH1 0x0 PUSH2 0x151D DUP5 DUP3 DUP6 ADD PUSH2 0x117D JUMP JUMPDEST SWAP2 POP POP SWAP3 SWAP2 POP POP JUMP JUMPDEST PUSH1 0x0 PUSH1 0x60 DUP3 ADD SWAP1 POP PUSH2 0x153B PUSH1 0x0 DUP4 ADD DUP7 PUSH2 0x14CF JUMP JUMPDEST DUP2 DUP2 SUB PUSH1 0x20 DUP4 ADD MSTORE PUSH2 0x154D DUP2 DUP6 PUSH2 0x1474 JUMP JUMPDEST SWAP1 POP PUSH2 0x155C PUSH1 0x40 DUP4 ADD DUP5 PUSH2 0x14CF JUMP JUMPDEST SWAP5 SWAP4 POP POP POP POP JUMP JUMPDEST PUSH1 0x0 PUSH1 0x60 DUP3 ADD SWAP1 POP PUSH2 0x1579 PUSH1 0x0 DUP4 ADD DUP7 PUSH2 0x14CF JUMP JUMPDEST DUP2 DUP2 SUB PUSH1 0x20 DUP4 ADD MSTORE PUSH2 0x158B DUP2 DUP6 PUSH2 0x1474 JUMP JUMPDEST SWAP1 POP DUP2 DUP2 SUB PUSH1 0x40 DUP4 ADD MSTORE PUSH2 0x159F DUP2 DUP5 PUSH2 0x1474 JUMP JUMPDEST SWAP1 POP SWAP5 SWAP4 POP POP POP POP JUMP JUMPDEST PUSH1 0x0 PUSH1 0x60 DUP3 ADD SWAP1 POP DUP2 DUP2 SUB PUSH1 0x0 DUP4 ADD MSTORE PUSH2 0x15C3 DUP2 DUP7 PUSH2 0x1474 JUMP JUMPDEST SWAP1 POP PUSH2 0x15D2 PUSH1 0x20 DUP4 ADD DUP6 PUSH2 0x14CF JUMP JUMPDEST PUSH2 0x15DF PUSH1 0x40 DUP4 ADD DUP5 PUSH2 0x14CF JUMP JUMPDEST SWAP5 SWAP4 POP POP POP POP JUMP JUMPDEST PUSH1 0x0 DUP1 PUSH1 0x40 DUP4 DUP6 SUB SLT ISZERO PUSH2 0x15FE JUMPI PUSH2 0x15FD PUSH2 0x1152 JUMP JUMPDEST JUMPDEST PUSH1 0x0 PUSH2 0x160C DUP6 DUP3 DUP7 ADD PUSH2 0x11DB JUMP JUMPDEST SWAP3 POP POP PUSH1 0x20 PUSH2 0x161D DUP6 DUP3 DUP7 ADD PUSH2 0x11DB JUMP JUMPDEST SWAP2 POP POP SWAP3 POP SWAP3 SWAP1 POP JUMP JUMPDEST PUSH1 0x0 DUP2 SWAP1 POP SWAP3 SWAP2 POP POP JUMP JUMPDEST PUSH32 0x4F4E474F494E4700000000000000000000000000000000000000000000000000 PUSH1 0x0 DUP3 ADD MSTORE POP JUMP JUMPDEST PUSH1 0x0 PUSH2 0x1668 PUSH1 0x7 DUP4 PUSH2 0x1627 JUMP JUMPDEST SWAP2 POP PUSH2 0x1673 DUP3 PUSH2 0x1632 JUMP JUMPDEST PUSH1 0x7 DUP3 ADD SWAP1 POP SWAP2 SWAP1 POP JUMP JUMPDEST PUSH1 0x0 PUSH2 0x1689 DUP3 PUSH2 0x165B JUMP JUMPDEST SWAP2 POP DUP2 SWAP1 POP SWAP2 SWAP1 POP JUMP JUMPDEST PUSH32 0x4E487B7100000000000000000000000000000000000000000000000000000000 PUSH1 0x0 MSTORE PUSH1 0x22 PUSH1 0x4 MSTORE PUSH1 0x24 PUSH1 0x0 REVERT JUMPDEST PUSH1 0x0 PUSH1 0x2 DUP3 DIV SWAP1 POP PUSH1 0x1 DUP3 AND DUP1 PUSH2 0x16DA JUMPI PUSH1 0x7F DUP3 AND SWAP2 POP JUMPDEST PUSH1 0x20 DUP3 LT DUP2 SUB PUSH2 0x16ED JUMPI PUSH2 0x16EC PUSH2 0x1693 JUMP JUMPDEST JUMPDEST POP SWAP2 SWAP1 POP JUMP JUMPDEST PUSH1 0x0 DUP2 SWAP1 POP DUP2 PUSH1 0x0 MSTORE PUSH1 0x20 PUSH1 0x0 KECCAK256 SWAP1 POP SWAP2 SWAP1 POP JUMP JUMPDEST PUSH1 0x0 DUP2 SLOAD PUSH2 0x1715 DUP2 PUSH2 0x16C2 JUMP JUMPDEST PUSH2 0x171F DUP2 DUP7 PUSH2 0x1627 JUMP JUMPDEST SWAP5 POP PUSH1 0x1 DUP3 AND PUSH1 0x0 DUP2 EQ PUSH2 0x173A JUMPI PUSH1 0x1 DUP2 EQ PUSH2 0x174F JUMPI PUSH2 0x1782 JUMP JUMPDEST PUSH1 0xFF NOT DUP4 AND DUP7 MSTORE DUP2 ISZERO ISZERO DUP3 MUL DUP7 ADD SWAP4 POP PUSH2 0x1782 JUMP JUMPDEST PUSH2 0x1758 DUP6 PUSH2 0x16F3 JUMP JUMPDEST PUSH1 0x0 JUMPDEST DUP4 DUP2 LT ISZERO PUSH2 0x177A JUMPI DUP2 SLOAD DUP2 DUP10 ADD MSTORE PUSH1 0x1 DUP3 ADD SWAP2 POP PUSH1 0x20 DUP2 ADD SWAP1 POP PUSH2 0x175B JUMP JUMPDEST DUP4 DUP9 ADD SWAP6 POP POP POP JUMPDEST POP POP POP SWAP3 SWAP2 POP POP JUMP JUMPDEST PUSH1 0x0 PUSH2 0x1797 DUP3 DUP5 PUSH2 0x1708 JUMP JUMPDEST SWAP2 POP DUP2 SWAP1 POP SWAP3 SWAP2 POP POP JUMP JUMPDEST PUSH32 0x766F746520616C726561647920636173746564206F7220766F74657220696E76 PUSH1 0x0 DUP3 ADD MSTORE PUSH32 0x616C69642E200000000000000000000000000000000000000000000000000000 PUSH1 0x20 DUP3 ADD MSTORE POP JUMP JUMPDEST PUSH1 0x0 PUSH2 0x17FE PUSH1 0x26 DUP4 PUSH2 0x1439 JUMP JUMPDEST SWAP2 POP PUSH2 0x1809 DUP3 PUSH2 0x17A2 JUMP JUMPDEST PUSH1 0x40 DUP3 ADD SWAP1 POP SWAP2 SWAP1 POP JUMP JUMPDEST PUSH1 0x0 PUSH1 0x20 DUP3 ADD SWAP1 POP DUP2 DUP2 SUB PUSH1 0x0 DUP4 ADD MSTORE PUSH2 0x182D DUP2 PUSH2 0x17F1 JUMP JUMPDEST SWAP1 POP SWAP2 SWAP1 POP JUMP JUMPDEST PUSH32 0x4E487B7100000000000000000000000000000000000000000000000000000000 PUSH1 0x0 MSTORE PUSH1 0x11 PUSH1 0x4 MSTORE PUSH1 0x24 PUSH1 0x0 REVERT JUMPDEST PUSH1 0x0 PUSH2 0x186E DUP3 PUSH2 0x115C JUMP JUMPDEST SWAP2 POP PUSH32 0xFFFFFFFFFFFFFFFFFFFFFFFFFFFFFFFFFFFFFFFFFFFFFFFFFFFFFFFFFFFFFFFF DUP3 SUB PUSH2 0x18A0 JUMPI PUSH2 0x189F PUSH2 0x1834 JUMP JUMPDEST JUMPDEST PUSH1 0x1 DUP3 ADD SWAP1 POP SWAP2 SWAP1 POP JUMP JUMPDEST PUSH32 0x4E4F542053544152544544000000000000000000000000000000000000000000 PUSH1 0x0 DUP3 ADD MSTORE POP JUMP JUMPDEST PUSH1 0x0 PUSH2 0x18E1 PUSH1 0xB DUP4 PUSH2 0x1627 JUMP JUMPDEST SWAP2 POP PUSH2 0x18EC DUP3 PUSH2 0x18AB JUMP JUMPDEST PUSH1 0xB DUP3 ADD SWAP1 POP SWAP2 SWAP1 POP JUMP JUMPDEST PUSH1 0x0 PUSH2 0x1902 DUP3 PUSH2 0x18D4 JUMP JUMPDEST SWAP2 POP DUP2 SWAP1 POP SWAP2 SWAP1 POP JUMP JUMPDEST PUSH32 0x456C656374696F6E206E6F742053746172746564000000000000000000000000 PUSH1 0x0 DUP3 ADD MSTORE POP JUMP JUMPDEST PUSH1 0x0 PUSH2 0x1942 PUSH1 0x14 DUP4 PUSH2 0x1439 JUMP JUMPDEST SWAP2 POP PUSH2 0x194D DUP3 PUSH2 0x190C JUMP JUMPDEST PUSH1 0x20 DUP3 ADD SWAP1 POP SWAP2 SWAP1 POP JUMP JUMPDEST PUSH1 0x0 PUSH1 0x20 DUP3 ADD SWAP1 POP DUP2 DUP2 SUB PUSH1 0x0 DUP4 ADD MSTORE PUSH2 0x1971 DUP2 PUSH2 0x1935 JUMP JUMPDEST SWAP1 POP SWAP2 SWAP1 POP JUMP JUMPDEST PUSH32 0x454E444544000000000000000000000000000000000000000000000000000000 PUSH1 0x0 DUP3 ADD MSTORE POP JUMP JUMPDEST PUSH1 0x0 PUSH2 0x19AE PUSH1 0x5 DUP4 PUSH2 0x1627 JUMP JUMPDEST SWAP2 POP PUSH2 0x19B9 DUP3 PUSH2 0x1978 JUMP JUMPDEST PUSH1 0x5 DUP3 ADD SWAP1 POP SWAP2 SWAP1 POP JUMP JUMPDEST PUSH1 0x0 PUSH2 0x19CF DUP3 PUSH2 0x19A1 JUMP JUMPDEST SWAP2 POP DUP2 SWAP1 POP SWAP2 SWAP1 POP JUMP JUMPDEST PUSH32 0x456C656374696F6E20456E646564000000000000000000000000000000000000 PUSH1 0x0 DUP3 ADD MSTORE POP JUMP JUMPDEST PUSH1 0x0 PUSH2 0x1A0F PUSH1 0xE DUP4 PUSH2 0x1439 JUMP JUMPDEST SWAP2 POP PUSH2 0x1A1A DUP3 PUSH2 0x19D9 JUMP JUMPDEST PUSH1 0x20 DUP3 ADD SWAP1 POP SWAP2 SWAP1 POP JUMP JUMPDEST PUSH1 0x0 PUSH1 0x20 DUP3 ADD SWAP1 POP DUP2 DUP2 SUB PUSH1 0x0 DUP4 ADD MSTORE PUSH2 0x1A3E DUP2 PUSH2 0x1A02 JUMP JUMPDEST SWAP1 POP SWAP2 SWAP1 POP JUMP JUMPDEST PUSH32 0x456C656374696F6E2068617320656E6465642E20000000000000000000000000 PUSH1 0x0 DUP3 ADD MSTORE POP JUMP JUMPDEST PUSH1 0x0 PUSH2 0x1A7B PUSH1 0x14 DUP4 PUSH2 0x1439 JUMP JUMPDEST SWAP2 POP PUSH2 0x1A86 DUP3 PUSH2 0x1A45 JUMP JUMPDEST PUSH1 0x20 DUP3 ADD SWAP1 POP SWAP2 SWAP1 POP JUMP JUMPDEST PUSH1 0x0 PUSH1 0x20 DUP3 ADD SWAP1 POP DUP2 DUP2 SUB PUSH1 0x0 DUP4 ADD MSTORE PUSH2 0x1AAA DUP2 PUSH2 0x1A6E JUMP JUMPDEST SWAP1 POP SWAP2 SWAP1 POP JUMP JUMPDEST PUSH1 0x0 PUSH1 0x20 PUSH1 0x1F DUP4 ADD DIV SWAP1 POP SWAP2 SWAP1 POP JUMP JUMPDEST PUSH1 0x0 DUP3 DUP3 SHL SWAP1 POP SWAP3 SWAP2 POP POP JUMP JUMPDEST PUSH1 0x0 PUSH1 0x8 DUP4 MUL PUSH2 0x1AFE PUSH32 0xFFFFFFFFFFFFFFFFFFFFFFFFFFFFFFFFFFFFFFFFFFFFFFFFFFFFFFFFFFFFFFFF DUP3 PUSH2 0x1AC1 JUMP JUMPDEST PUSH2 0x1B08 DUP7 DUP4 PUSH2 0x1AC1 JUMP JUMPDEST SWAP6 POP DUP1 NOT DUP5 AND SWAP4 POP DUP1 DUP7 AND DUP5 OR SWAP3 POP POP POP SWAP4 SWAP3 POP POP POP JUMP JUMPDEST PUSH1 0x0 DUP2 SWAP1 POP SWAP2 SWAP1 POP JUMP JUMPDEST PUSH1 0x0 PUSH2 0x1B45 PUSH2 0x1B40 PUSH2 0x1B3B DUP5 PUSH2 0x115C JUMP JUMPDEST PUSH2 0x1B20 JUMP JUMPDEST PUSH2 0x115C JUMP JUMPDEST SWAP1 POP SWAP2 SWAP1 POP JUMP JUMPDEST PUSH1 0x0 DUP2 SWAP1 POP SWAP2 SWAP1 POP JUMP JUMPDEST PUSH2 0x1B5F DUP4 PUSH2 0x1B2A JUMP JUMPDEST PUSH2 0x1B73 PUSH2 0x1B6B DUP3 PUSH2 0x1B4C JUMP JUMPDEST DUP5 DUP5 SLOAD PUSH2 0x1ACE JUMP JUMPDEST DUP3 SSTORE POP POP POP POP JUMP JUMPDEST PUSH1 0x0 SWAP1 JUMP JUMPDEST PUSH2 0x1B88 PUSH2 0x1B7B JUMP JUMPDEST PUSH2 0x1B93 DUP2 DUP5 DUP5 PUSH2 0x1B56 JUMP JUMPDEST POP POP POP JUMP JUMPDEST JUMPDEST DUP2 DUP2 LT ISZERO PUSH2 0x1BB7 JUMPI PUSH2 0x1BAC PUSH1 0x0 DUP3 PUSH2 0x1B80 JUMP JUMPDEST PUSH1 0x1 DUP2 ADD SWAP1 POP PUSH2 0x1B99 JUMP JUMPDEST POP POP JUMP JUMPDEST PUSH1 0x1F DUP3 GT ISZERO PUSH2 0x1BFC JUMPI PUSH2 0x1BCD DUP2 PUSH2 0x16F3 JUMP JUMPDEST PUSH2 0x1BD6 DUP5 PUSH2 0x1AB1 JUMP JUMPDEST DUP2 ADD PUSH1 0x20 DUP6 LT ISZERO PUSH2 0x1BE5 JUMPI DUP2 SWAP1 POP JUMPDEST PUSH2 0x1BF9 PUSH2 0x1BF1 DUP6 PUSH2 0x1AB1 JUMP JUMPDEST DUP4 ADD DUP3 PUSH2 0x1B98 JUMP JUMPDEST POP POP JUMPDEST POP POP POP JUMP JUMPDEST PUSH1 0x0 DUP3 DUP3 SHR SWAP1 POP SWAP3 SWAP2 POP POP JUMP JUMPDEST PUSH1 0x0 PUSH2 0x1C1F PUSH1 0x0 NOT DUP5 PUSH1 0x8 MUL PUSH2 0x1C01 JUMP JUMPDEST NOT DUP1 DUP4 AND SWAP2 POP POP SWAP3 SWAP2 POP POP JUMP JUMPDEST PUSH1 0x0 PUSH2 0x1C38 DUP4 DUP4 PUSH2 0x1C0E JUMP JUMPDEST SWAP2 POP DUP3 PUSH1 0x2 MUL DUP3 OR SWAP1 POP SWAP3 SWAP2 POP POP JUMP JUMPDEST PUSH2 0x1C51 DUP3 PUSH2 0x142E JUMP JUMPDEST PUSH8 0xFFFFFFFFFFFFFFFF DUP2 GT ISZERO PUSH2 0x1C6A JUMPI PUSH2 0x1C69 PUSH2 0x1278 JUMP JUMPDEST JUMPDEST PUSH2 0x1C74 DUP3 SLOAD PUSH2 0x16C2 JUMP JUMPDEST PUSH2 0x1C7F DUP3 DUP3 DUP6 PUSH2 0x1BBB JUMP JUMPDEST PUSH1 0x0 PUSH1 0x20 SWAP1 POP PUSH1 0x1F DUP4 GT PUSH1 0x1 DUP2 EQ PUSH2 0x1CB2 JUMPI PUSH1 0x0 DUP5 ISZERO PUSH2 0x1CA0 JUMPI DUP3 DUP8 ADD MLOAD SWAP1 POP JUMPDEST PUSH2 0x1CAA DUP6 DUP3 PUSH2 0x1C2C JUMP JUMPDEST DUP7 SSTORE POP PUSH2 0x1D12 JUMP JUMPDEST PUSH1 0x1F NOT DUP5 AND PUSH2 0x1CC0 DUP7 PUSH2 0x16F3 JUMP JUMPDEST PUSH1 0x0 JUMPDEST DUP3 DUP2 LT ISZERO PUSH2 0x1CE8 JUMPI DUP5 DUP10 ADD MLOAD DUP3 SSTORE PUSH1 0x1 DUP3 ADD SWAP2 POP PUSH1 0x20 DUP6 ADD SWAP5 POP PUSH1 0x20 DUP2 ADD SWAP1 POP PUSH2 0x1CC3 JUMP JUMPDEST DUP7 DUP4 LT ISZERO PUSH2 0x1D05 JUMPI DUP5 DUP10 ADD MLOAD PUSH2 0x1D01 PUSH1 0x1F DUP10 AND DUP3 PUSH2 0x1C0E JUMP JUMPDEST DUP4 SSTORE POP JUMPDEST PUSH1 0x1 PUSH1 0x2 DUP9 MUL ADD DUP9 SSTORE POP POP POP JUMPDEST POP POP POP POP POP POP JUMP JUMPDEST PUSH32 0x456C656374696F6E20686173206E6F742073746172746564207965742E200000 PUSH1 0x0 DUP3 ADD MSTORE POP JUMP JUMPDEST PUSH1 0x0 PUSH2 0x1D50 PUSH1 0x1E DUP4 PUSH2 0x1439 JUMP JUMPDEST SWAP2 POP PUSH2 0x1D5B DUP3 PUSH2 0x1D1A JUMP JUMPDEST PUSH1 0x20 DUP3 ADD SWAP1 POP SWAP2 SWAP1 POP JUMP JUMPDEST PUSH1 0x0 PUSH1 0x20 DUP3 ADD SWAP1 POP DUP2 DUP2 SUB PUSH1 0x0 DUP4 ADD MSTORE PUSH2 0x1D7F DUP2 PUSH2 0x1D43 JUMP JUMPDEST SWAP1 POP SWAP2 SWAP1 POP JUMP JUMPDEST PUSH32 0x4F6E6C792074686520636F6E7472616374206F776E65722063616E2061646420 PUSH1 0x0 DUP3 ADD MSTORE PUSH32 0x63616E646964617465732E000000000000000000000000000000000000000000 PUSH1 0x20 DUP3 ADD MSTORE POP JUMP JUMPDEST PUSH1 0x0 PUSH2 0x1DE2 PUSH1 0x2B DUP4 PUSH2 0x1439 JUMP JUMPDEST SWAP2 POP PUSH2 0x1DED DUP3 PUSH2 0x1D86 JUMP JUMPDEST PUSH1 0x40 DUP3 ADD SWAP1 POP SWAP2 SWAP1 POP JUMP JUMPDEST PUSH1 0x0 PUSH1 0x20 DUP3 ADD SWAP1 POP DUP2 DUP2 SUB PUSH1 0x0 DUP4 ADD MSTORE PUSH2 0x1E11 DUP2 PUSH2 0x1DD5 JUMP JUMPDEST SWAP1 POP SWAP2 SWAP1 POP JUMP JUMPDEST PUSH32 0x506C656173652072656769737465722074686520766F7465722066697273742E PUSH1 0x0 DUP3 ADD MSTORE PUSH32 0x2000000000000000000000000000000000000000000000000000000000000000 PUSH1 0x20 DUP3 ADD MSTORE POP JUMP JUMPDEST PUSH1 0x0 PUSH2 0x1E74 PUSH1 0x21 DUP4 PUSH2 0x1439 JUMP JUMPDEST SWAP2 POP PUSH2 0x1E7F DUP3 PUSH2 0x1E18 JUMP JUMPDEST PUSH1 0x40 DUP3 ADD SWAP1 POP SWAP2 SWAP1 POP JUMP JUMPDEST PUSH1 0x0 PUSH1 0x20 DUP3 ADD SWAP1 POP DUP2 DUP2 SUB PUSH1 0x0 DUP4 ADD MSTORE PUSH2 0x1EA3 DUP2 PUSH2 0x1E67 JUMP JUMPDEST SWAP1 POP SWAP2 SWAP1 POP JUMP JUMPDEST PUSH32 0x496E76616C696420616464726573732E20000000000000000000000000000000 PUSH1 0x0 DUP3 ADD MSTORE POP JUMP JUMPDEST PUSH1 0x0 PUSH2 0x1EE0 PUSH1 0x11 DUP4 PUSH2 0x1439 JUMP JUMPDEST SWAP2 POP PUSH2 0x1EEB DUP3 PUSH2 0x1EAA JUMP JUMPDEST PUSH1 0x20 DUP3 ADD SWAP1 POP SWAP2 SWAP1 POP JUMP JUMPDEST PUSH1 0x0 PUSH1 0x20 DUP3 ADD SWAP1 POP DUP2 DUP2 SUB PUSH1 0x0 DUP4 ADD MSTORE PUSH2 0x1F0F DUP2 PUSH2 0x1ED3 JUMP JUMPDEST SWAP1 POP SWAP2 SWAP1 POP JUMP JUMPDEST PUSH32 0x456C656374696F6E20697320616C726561647920676F696E206F6E2E20000000 PUSH1 0x0 DUP3 ADD MSTORE POP JUMP JUMPDEST PUSH1 0x0 PUSH2 0x1F4C PUSH1 0x1D DUP4 PUSH2 0x1439 JUMP JUMPDEST SWAP2 POP PUSH2 0x1F57 DUP3 PUSH2 0x1F16 JUMP JUMPDEST PUSH1 0x20 DUP3 ADD SWAP1 POP SWAP2 SWAP1 POP JUMP JUMPDEST PUSH1 0x0 PUSH1 0x20 DUP3 ADD SWAP1 POP DUP2 DUP2 SUB PUSH1 0x0 DUP4 ADD MSTORE PUSH2 0x1F7B DUP2 PUSH2 0x1F3F JUMP JUMPDEST SWAP1 POP SWAP2 SWAP1 POP JUMP JUMPDEST PUSH32 0x566F74657220616C7265616479206578697374732E0000000000000000000000 PUSH1 0x0 DUP3 ADD MSTORE POP JUMP JUMPDEST PUSH1 0x0 PUSH2 0x1FB8 PUSH1 0x15 DUP4 PUSH2 0x1439 JUMP JUMPDEST SWAP2 POP PUSH2 0x1FC3 DUP3 PUSH2 0x1F82 JUMP JUMPDEST PUSH1 0x20 DUP3 ADD SWAP1 POP SWAP2 SWAP1 POP JUMP JUMPDEST PUSH1 0x0 PUSH1 0x20 DUP3 ADD SWAP1 POP DUP2 DUP2 SUB PUSH1 0x0 DUP4 ADD MSTORE PUSH2 0x1FE7 DUP2 PUSH2 0x1FAB JUMP JUMPDEST SWAP1 POP SWAP2 SWAP1 POP JUMP INVALID LOG2 PUSH5 0x6970667358 0x22 SLT KECCAK256 PUSH6 0x153C39102BE8 0xE0 0xB3 0x4D 0x2C LT PUSH12 0xA5EEB79753F69D681E9A12FE PUSH8 0x74C97A220E076473 PUSH16 0x6C634300081200330000000000000000 "
				},
				"gasEstimates": {
					"creation": {
						"codeDepositCost": "1645600",
						"executionCost": "infinite",
						"totalCost": "infinite"
					},
					"external": {
						"addCandidate(string,string,address)": "infinite",
						"addVoter(address,address)": "infinite",
						"candidate_count()": "2518",
						"delegateVote(address,address)": "infinite",
						"displayCandidate(uint256)": "infinite",
						"electionState()": "infinite",
						"endElection(address)": "infinite",
						"showResults(uint256)": "infinite",
						"showWinner()": "infinite",
						"startElection(address)": "infinite",
						"vote(uint256,address)": "infinite",
						"voter_count()": "2473"
					}
				},
				"methodIdentifiers": {
					"addCandidate(string,string,address)": "0b32ff77",
					"addVoter(address,address)": "fa106d40",
					"candidate_count()": "4b1c4c29",
					"delegateVote(address,address)": "e5ed5b1e",
					"displayCandidate(uint256)": "8dc83771",
					"electionState()": "2280043d",
					"endElection(address)": "07e4b70a",
					"showResults(uint256)": "79614b2e",
					"showWinner()": "b7e03264",
					"startElection(address)": "e6a5e61d",
					"vote(uint256,address)": "02d947ef",
					"voter_count()": "beb604e0"
				}
			},
			"storageLayout": {
				"storage": [
					{
						"astId": 11,
						"contract": "contracts/Main.sol:Main",
						"label": "candidateMapping",
						"offset": 0,
						"slot": "0",
						"type": "t_mapping(t_uint256,t_struct(candidateStruct)6_storage)"
					},
					{
						"astId": 15,
						"contract": "contracts/Main.sol:Main",
						"label": "voterMapping",
						"offset": 0,
						"slot": "1",
						"type": "t_mapping(t_address,t_uint256)"
					},
					{
						"astId": 19,
						"contract": "contracts/Main.sol:Main",
						"label": "delegateMapping",
						"offset": 0,
						"slot": "2",
						"type": "t_mapping(t_address,t_uint256)"
					},
					{
						"astId": 23,
						"contract": "contracts/Main.sol:Main",
						"label": "voteCount",
						"offset": 0,
						"slot": "3",
						"type": "t_mapping(t_uint256,t_uint256)"
					},
					{
						"astId": 25,
						"contract": "contracts/Main.sol:Main",
						"label": "candidate_count",
						"offset": 0,
						"slot": "4",
						"type": "t_uint256"
					},
					{
						"astId": 27,
						"contract": "contracts/Main.sol:Main",
						"label": "delegate_count",
						"offset": 0,
						"slot": "5",
						"type": "t_uint256"
					},
					{
						"astId": 29,
						"contract": "contracts/Main.sol:Main",
						"label": "voter_count",
						"offset": 0,
						"slot": "6",
						"type": "t_uint256"
					},
					{
						"astId": 32,
						"contract": "contracts/Main.sol:Main",
						"label": "electionState",
						"offset": 0,
						"slot": "7",
						"type": "t_string_storage"
					}
				],
				"types": {
					"t_address": {
						"encoding": "inplace",
						"label": "address",
						"numberOfBytes": "20"
					},
					"t_mapping(t_address,t_uint256)": {
						"encoding": "mapping",
						"key": "t_address",
						"label": "mapping(address => uint256)",
						"numberOfBytes": "32",
						"value": "t_uint256"
					},
					"t_mapping(t_uint256,t_struct(candidateStruct)6_storage)": {
						"encoding": "mapping",
						"key": "t_uint256",
						"label": "mapping(uint256 => struct Main.candidateStruct)",
						"numberOfBytes": "32",
						"value": "t_struct(candidateStruct)6_storage"
					},
					"t_mapping(t_uint256,t_uint256)": {
						"encoding": "mapping",
						"key": "t_uint256",
						"label": "mapping(uint256 => uint256)",
						"numberOfBytes": "32",
						"value": "t_uint256"
					},
					"t_string_storage": {
						"encoding": "bytes",
						"label": "string",
						"numberOfBytes": "32"
					},
					"t_struct(candidateStruct)6_storage": {
						"encoding": "inplace",
						"label": "struct Main.candidateStruct",
						"members": [
							{
								"astId": 3,
								"contract": "contracts/Main.sol:Main",
								"label": "name",
								"offset": 0,
								"slot": "0",
								"type": "t_string_storage"
							},
							{
								"astId": 5,
								"contract": "contracts/Main.sol:Main",
								"label": "proposal",
								"offset": 0,
								"slot": "1",
								"type": "t_string_storage"
							}
						],
						"numberOfBytes": "64"
					},
					"t_uint256": {
						"encoding": "inplace",
						"label": "uint256",
						"numberOfBytes": "32"
					}
				}
			},
			"userdoc": {
				"kind": "user",
				"methods": {},
				"version": 1
			}
		}
	}
}